{
  "_format": "hh-sol-artifact-1",
  "contractName": "TrafficData",
  "sourceName": "contracts/TrafficData.sol",
  "abi": [
    {
      "anonymous": false,
      "inputs": [
        {
          "indexed": true,
          "internalType": "uint256",
          "name": "index",
          "type": "uint256"
        }
      ],
      "name": "NewTrafficLightRegister",
      "type": "event"
    },
    {
      "inputs": [],
      "name": "LLA_DECIMAL",
      "outputs": [
        {
          "internalType": "uint256",
          "name": "",
          "type": "uint256"
        }
      ],
      "stateMutability": "view",
      "type": "function"
    },
    {
      "inputs": [
        {
          "internalType": "uint256",
          "name": "id",
          "type": "uint256"
        },
        {
          "internalType": "string",
          "name": "imageUri",
          "type": "string"
        }
      ],
      "name": "addImages",
      "outputs": [],
      "stateMutability": "nonpayable",
      "type": "function"
    },
    {
      "inputs": [],
      "name": "getIndex",
      "outputs": [
        {
          "internalType": "uint256",
          "name": "",
          "type": "uint256"
        }
      ],
      "stateMutability": "view",
      "type": "function"
    },
    {
      "inputs": [
        {
          "internalType": "uint256",
          "name": "index",
          "type": "uint256"
        }
      ],
      "name": "getTrafficLightByIndex",
      "outputs": [
        {
          "components": [
            {
              "internalType": "address",
              "name": "owner",
              "type": "address"
            },
            {
              "internalType": "uint256",
              "name": "lat",
              "type": "uint256"
            },
            {
              "internalType": "uint256",
              "name": "lng",
              "type": "uint256"
            },
            {
              "internalType": "uint256",
              "name": "orientation",
              "type": "uint256"
            },
            {
              "internalType": "string[]",
              "name": "uri",
              "type": "string[]"
            },
            {
              "internalType": "enum TrafficData.TrafficLightValidationStatus",
              "name": "validationStatus",
              "type": "uint8"
            }
          ],
          "internalType": "struct TrafficData.TrafficLight",
          "name": "",
          "type": "tuple"
        }
      ],
      "stateMutability": "view",
      "type": "function"
    },
    {
      "inputs": [
        {
          "internalType": "address",
          "name": "validator",
          "type": "address"
        }
      ],
      "name": "getValidatorMetadata",
      "outputs": [
        {
          "components": [
            {
              "internalType": "string",
              "name": "name",
              "type": "string"
            },
            {
              "internalType": "address",
              "name": "owner",
              "type": "address"
            },
            {
              "internalType": "string[]",
              "name": "supportedModels",
              "type": "string[]"
            },
            {
              "internalType": "uint256",
              "name": "validatedCount",
              "type": "uint256"
            }
          ],
          "internalType": "struct TrafficData.ValidatorMetadata",
          "name": "",
          "type": "tuple"
        }
      ],
      "stateMutability": "view",
      "type": "function"
    },
    {
      "inputs": [
        {
          "components": [
            {
              "internalType": "address",
              "name": "owner",
              "type": "address"
            },
            {
              "internalType": "uint256",
              "name": "lat",
              "type": "uint256"
            },
            {
              "internalType": "uint256",
              "name": "lng",
              "type": "uint256"
            },
            {
              "internalType": "uint256",
              "name": "orientation",
              "type": "uint256"
            },
            {
              "internalType": "string[]",
              "name": "uri",
              "type": "string[]"
            },
            {
              "internalType": "enum TrafficData.TrafficLightValidationStatus",
              "name": "validationStatus",
              "type": "uint8"
            }
          ],
          "internalType": "struct TrafficData.TrafficLight",
          "name": "input",
          "type": "tuple"
        }
      ],
      "name": "registerTrafficLight",
      "outputs": [],
      "stateMutability": "nonpayable",
      "type": "function"
    },
    {
      "inputs": [
        {
          "internalType": "string",
          "name": "name",
          "type": "string"
        },
        {
          "internalType": "string[]",
          "name": "supportedModels",
          "type": "string[]"
        }
      ],
      "name": "registerValidator",
      "outputs": [],
      "stateMutability": "nonpayable",
      "type": "function"
    },
    {
      "inputs": [
        {
          "internalType": "uint256",
          "name": "",
          "type": "uint256"
        }
      ],
      "name": "trafficLights",
      "outputs": [
        {
          "internalType": "address",
          "name": "owner",
          "type": "address"
        },
        {
          "internalType": "uint256",
          "name": "lat",
          "type": "uint256"
        },
        {
          "internalType": "uint256",
          "name": "lng",
          "type": "uint256"
        },
        {
          "internalType": "uint256",
          "name": "orientation",
          "type": "uint256"
        },
        {
          "internalType": "enum TrafficData.TrafficLightValidationStatus",
          "name": "validationStatus",
          "type": "uint8"
        }
      ],
      "stateMutability": "view",
      "type": "function"
    },
    {
      "inputs": [],
      "name": "trafficLightsIndex",
      "outputs": [
        {
          "internalType": "uint256",
          "name": "",
          "type": "uint256"
        }
      ],
      "stateMutability": "view",
      "type": "function"
    },
    {
      "inputs": [
        {
          "internalType": "uint256",
          "name": "id",
          "type": "uint256"
        },
        {
          "internalType": "uint64",
          "name": "lat",
          "type": "uint64"
        },
        {
          "internalType": "uint64",
          "name": "lng",
          "type": "uint64"
        },
        {
          "internalType": "uint64",
          "name": "orientation",
          "type": "uint64"
        },
        {
          "internalType": "string[]",
          "name": "uri",
          "type": "string[]"
        }
      ],
      "name": "updateTrafficLight",
      "outputs": [],
      "stateMutability": "nonpayable",
      "type": "function"
    },
    {
      "inputs": [
        {
          "internalType": "uint256",
          "name": "id",
          "type": "uint256"
        },
        {
          "internalType": "enum TrafficData.TrafficLightValidationStatus",
          "name": "validationStatus",
          "type": "uint8"
        }
      ],
      "name": "updateValidationStatus",
      "outputs": [],
      "stateMutability": "nonpayable",
      "type": "function"
    },
    {
      "inputs": [],
      "name": "validatorIndex",
      "outputs": [
        {
          "internalType": "uint256",
          "name": "",
          "type": "uint256"
        }
      ],
      "stateMutability": "view",
      "type": "function"
    },
    {
      "inputs": [
        {
          "internalType": "address",
          "name": "",
          "type": "address"
        }
      ],
      "name": "validators",
      "outputs": [
        {
          "internalType": "string",
          "name": "name",
          "type": "string"
        },
        {
          "internalType": "address",
          "name": "owner",
          "type": "address"
        },
        {
          "internalType": "uint256",
          "name": "validatedCount",
          "type": "uint256"
        }
      ],
      "stateMutability": "view",
      "type": "function"
    },
    {
      "inputs": [
        {
          "internalType": "uint256",
          "name": "",
          "type": "uint256"
        }
      ],
      "name": "validatorsAddresses",
      "outputs": [
        {
          "internalType": "address",
          "name": "",
          "type": "address"
        }
      ],
      "stateMutability": "view",
      "type": "function"
    }
  ],
  "bytecode": "0x608060405260008055600060035534801561001957600080fd5b506121ec806100296000396000f3fe608060405234801561001057600080fd5b50600436106100ea5760003560e01c80639f973e7d1161008c578063b363c6c211610066578063b363c6c21461023b578063ed7171841461026b578063f93227411461029b578063fa52c7d8146102b7576100ea565b80639f973e7d146101e5578063a114251514610201578063a1bf49aa1461021d576100ea565b80636ddf30c4116100c85780636ddf30c41461015957806381045ead146101775780638dc87e4d14610195578063956a678b146101b1576100ea565b80631c4bc0be146100ef5780636219d0a91461010d5780636957210e1461013d575b600080fd5b6100f76102e9565b60405161010491906110af565b60405180910390f35b6101276004803603810190610122919061110a565b6102ee565b60405161013491906113d9565b60405180910390f35b61015760048036038101906101529190611420565b6104f6565b005b610161610671565b60405161016e91906110af565b60405180910390f35b61017f610677565b60405161018c91906110af565b60405180910390f35b6101af60048036038101906101aa91906114c5565b610680565b005b6101cb60048036038101906101c6919061110a565b6106e6565b6040516101dc959493929190611543565b60405180910390f35b6101ff60048036038101906101fa9190611899565b610759565b005b61021b60048036038101906102169190611922565b6108ed565b005b610225610a0e565b60405161023291906110af565b60405180910390f35b6102556004803603810190610250919061110a565b610a14565b60405161026291906119b9565b60405180910390f35b610285600480360381019061028091906119d4565b610a53565b6040516102929190611a6b565b60405180910390f35b6102b560048036038101906102b09190611ae3565b610c77565b005b6102d160048036038101906102cc91906119d4565b610e4e565b6040516102e093929190611bae565b60405180910390f35b600681565b6102f6610f20565b816000541161033a576040517f08c379a000000000000000000000000000000000000000000000000000000000815260040161033190611c38565b60405180910390fd5b6001828154811061034e5761034d611c58565b5b90600052602060002090600602016040518060c00160405290816000820160009054906101000a900473ffffffffffffffffffffffffffffffffffffffff1673ffffffffffffffffffffffffffffffffffffffff1673ffffffffffffffffffffffffffffffffffffffff16815260200160018201548152602001600282015481526020016003820154815260200160048201805480602002602001604051908101604052809291908181526020016000905b828210156104ac57838290600052602060002001805461041f90611cb6565b80601f016020809104026020016040519081016040528092919081815260200182805461044b90611cb6565b80156104985780601f1061046d57610100808354040283529160200191610498565b820191906000526020600020905b81548152906001019060200180831161047b57829003601f168201915b505050505081526020019060010190610400565b5050505081526020016005820160009054906101000a900460ff1660038111156104d9576104d86112d9565b5b60038111156104eb576104ea6112d9565b5b815250509050919050565b3373ffffffffffffffffffffffffffffffffffffffff16600260003373ffffffffffffffffffffffffffffffffffffffff1673ffffffffffffffffffffffffffffffffffffffff16815260200190815260200160002060010160009054906101000a900473ffffffffffffffffffffffffffffffffffffffff1673ffffffffffffffffffffffffffffffffffffffff16146105c6576040517f08c379a00000000000000000000000000000000000000000000000000000000081526004016105bd90611d59565b60405180910390fd5b6001600260003373ffffffffffffffffffffffffffffffffffffffff1673ffffffffffffffffffffffffffffffffffffffff16815260200190815260200160002060030160008282546106199190611da8565b92505081905550806001838154811061063557610634611c58565b5b906000526020600020906006020160050160006101000a81548160ff02191690836003811115610668576106676112d9565b5b02179055505050565b60005481565b60008054905090565b6001838154811061069457610693611c58565b5b90600052602060002090600602016004018282909180600181540180825580915050600190039060005260206000200160009091929091929091929091925091826106e0929190611f93565b50505050565b600181815481106106f657600080fd5b90600052602060002090600602016000915090508060000160009054906101000a900473ffffffffffffffffffffffffffffffffffffffff16908060010154908060020154908060030154908060050160009054906101000a900460ff16905085565b33816000019073ffffffffffffffffffffffffffffffffffffffff16908173ffffffffffffffffffffffffffffffffffffffff168152505060008160a0019060038111156107aa576107a96112d9565b5b908160038111156107be576107bd6112d9565b5b81525050600181908060018154018082558091505060019003906000526020600020906006020160009091909190915060008201518160000160006101000a81548173ffffffffffffffffffffffffffffffffffffffff021916908373ffffffffffffffffffffffffffffffffffffffff160217905550602082015181600101556040820151816002015560608201518160030155608082015181600401908051906020019061086f929190610f7e565b5060a08201518160050160006101000a81548160ff0219169083600381111561089b5761089a6112d9565b5b021790555050506000547f4046cd0d5427a1a3a70a3453f8a6114979200006ef5fba493a840ce915c612b360405160405180910390a260016000808282546108e39190611da8565b9250508190555050565b6000548510610931576040517f08c379a0000000000000000000000000000000000000000000000000000000008152600401610928906120af565b60405180910390fd5b8367ffffffffffffffff16600186815481106109505761094f611c58565b5b9060005260206000209060060201600101819055508267ffffffffffffffff166001868154811061098457610983611c58565b5b9060005260206000209060060201600201819055508167ffffffffffffffff16600186815481106109b8576109b7611c58565b5b90600052602060002090600602016003018190555080600186815481106109e2576109e1611c58565b5b90600052602060002090600602016004019080519060200190610a06929190610f7e565b505050505050565b60035481565b60048181548110610a2457600080fd5b906000526020600020016000915054906101000a900473ffffffffffffffffffffffffffffffffffffffff1681565b610a5b610fd7565b600260008373ffffffffffffffffffffffffffffffffffffffff1673ffffffffffffffffffffffffffffffffffffffff168152602001908152602001600020604051806080016040529081600082018054610ab590611cb6565b80601f0160208091040260200160405190810160405280929190818152602001828054610ae190611cb6565b8015610b2e5780601f10610b0357610100808354040283529160200191610b2e565b820191906000526020600020905b815481529060010190602001808311610b1157829003601f168201915b505050505081526020016001820160009054906101000a900473ffffffffffffffffffffffffffffffffffffffff1673ffffffffffffffffffffffffffffffffffffffff1673ffffffffffffffffffffffffffffffffffffffff16815260200160028201805480602002602001604051908101604052809291908181526020016000905b82821015610c5e578382906000526020600020018054610bd190611cb6565b80601f0160208091040260200160405190810160405280929190818152602001828054610bfd90611cb6565b8015610c4a5780601f10610c1f57610100808354040283529160200191610c4a565b820191906000526020600020905b815481529060010190602001808311610c2d57829003601f168201915b505050505081526020019060010190610bb2565b5050505081526020016003820154815250509050919050565b6000604051806080016040528086868080601f016020809104026020016040519081016040528093929190818152602001838380828437600081840152601f19601f8201169050808301925050505050505081526020013373ffffffffffffffffffffffffffffffffffffffff168152602001848490610cf791906120cf565b81526020016000815250905080600260003373ffffffffffffffffffffffffffffffffffffffff1673ffffffffffffffffffffffffffffffffffffffff1681526020019081526020016000206000820151816000019081610d5891906120e4565b5060208201518160010160006101000a81548173ffffffffffffffffffffffffffffffffffffffff021916908373ffffffffffffffffffffffffffffffffffffffff1602179055506040820151816002019080519060200190610dbc929190610f7e565b50606082015181600301559050506004339080600181540180825580915050600190039060005260206000200160009091909190916101000a81548173ffffffffffffffffffffffffffffffffffffffff021916908373ffffffffffffffffffffffffffffffffffffffff160217905550600160036000828254610e409190611da8565b925050819055505050505050565b6002602052806000526040600020600091509050806000018054610e7190611cb6565b80601f0160208091040260200160405190810160405280929190818152602001828054610e9d90611cb6565b8015610eea5780601f10610ebf57610100808354040283529160200191610eea565b820191906000526020600020905b815481529060010190602001808311610ecd57829003601f168201915b5050505050908060010160009054906101000a900473ffffffffffffffffffffffffffffffffffffffff16908060030154905083565b6040518060c00160405280600073ffffffffffffffffffffffffffffffffffffffff1681526020016000815260200160008152602001600081526020016060815260200160006003811115610f7857610f776112d9565b5b81525090565b828054828255906000526020600020908101928215610fc6579160200282015b82811115610fc5578251829081610fb591906120e4565b5091602001919060010190610f9e565b5b509050610fd39190611015565b5090565b604051806080016040528060608152602001600073ffffffffffffffffffffffffffffffffffffffff16815260200160608152602001600081525090565b5b80821115611035576000818161102c9190611039565b50600101611016565b5090565b50805461104590611cb6565b6000825580601f106110575750611076565b601f0160209004906000526020600020908101906110759190611079565b5b50565b5b8082111561109257600081600090555060010161107a565b5090565b6000819050919050565b6110a981611096565b82525050565b60006020820190506110c460008301846110a0565b92915050565b6000604051905090565b600080fd5b600080fd5b6110e781611096565b81146110f257600080fd5b50565b600081359050611104816110de565b92915050565b6000602082840312156111205761111f6110d4565b5b600061112e848285016110f5565b91505092915050565b600073ffffffffffffffffffffffffffffffffffffffff82169050919050565b600061116282611137565b9050919050565b61117281611157565b82525050565b61118181611096565b82525050565b600081519050919050565b600082825260208201905092915050565b6000819050602082019050919050565b600081519050919050565b600082825260208201905092915050565b60005b838110156111ed5780820151818401526020810190506111d2565b60008484015250505050565b6000601f19601f8301169050919050565b6000611215826111b3565b61121f81856111be565b935061122f8185602086016111cf565b611238816111f9565b840191505092915050565b600061124f838361120a565b905092915050565b6000602082019050919050565b600061126f82611187565b6112798185611192565b93508360208202850161128b856111a3565b8060005b858110156112c757848403895281516112a88582611243565b94506112b383611257565b925060208a0199505060018101905061128f565b50829750879550505050505092915050565b7f4e487b7100000000000000000000000000000000000000000000000000000000600052602160045260246000fd5b60048110611319576113186112d9565b5b50565b600081905061132a82611308565b919050565b600061133a8261131c565b9050919050565b61134a8161132f565b82525050565b600060c0830160008301516113686000860182611169565b50602083015161137b6020860182611178565b50604083015161138e6040860182611178565b5060608301516113a16060860182611178565b50608083015184820360808601526113b98282611264565b91505060a08301516113ce60a0860182611341565b508091505092915050565b600060208201905081810360008301526113f38184611350565b905092915050565b6004811061140857600080fd5b50565b60008135905061141a816113fb565b92915050565b60008060408385031215611437576114366110d4565b5b6000611445858286016110f5565b92505060206114568582860161140b565b9150509250929050565b600080fd5b600080fd5b600080fd5b60008083601f84011261148557611484611460565b5b8235905067ffffffffffffffff8111156114a2576114a1611465565b5b6020830191508360018202830111156114be576114bd61146a565b5b9250929050565b6000806000604084860312156114de576114dd6110d4565b5b60006114ec868287016110f5565b935050602084013567ffffffffffffffff81111561150d5761150c6110d9565b5b6115198682870161146f565b92509250509250925092565b61152e81611157565b82525050565b61153d8161132f565b82525050565b600060a0820190506115586000830188611525565b61156560208301876110a0565b61157260408301866110a0565b61157f60608301856110a0565b61158c6080830184611534565b9695505050505050565b600080fd5b7f4e487b7100000000000000000000000000000000000000000000000000000000600052604160045260246000fd5b6115d3826111f9565b810181811067ffffffffffffffff821117156115f2576115f161159b565b5b80604052505050565b60006116056110ca565b905061161182826115ca565b919050565b600080fd5b61162481611157565b811461162f57600080fd5b50565b6000813590506116418161161b565b92915050565b600067ffffffffffffffff8211156116625761166161159b565b5b602082029050602081019050919050565b600080fd5b600067ffffffffffffffff8211156116935761169261159b565b5b61169c826111f9565b9050602081019050919050565b82818337600083830152505050565b60006116cb6116c684611678565b6115fb565b9050828152602081018484840111156116e7576116e6611673565b5b6116f28482856116a9565b509392505050565b600082601f83011261170f5761170e611460565b5b813561171f8482602086016116b8565b91505092915050565b600061173b61173684611647565b6115fb565b9050808382526020820190506020840283018581111561175e5761175d61146a565b5b835b818110156117a557803567ffffffffffffffff81111561178357611782611460565b5b80860161179089826116fa565b85526020850194505050602081019050611760565b5050509392505050565b600082601f8301126117c4576117c3611460565b5b81356117d4848260208601611728565b91505092915050565b600060c082840312156117f3576117f2611596565b5b6117fd60c06115fb565b9050600061180d84828501611632565b6000830152506020611821848285016110f5565b6020830152506040611835848285016110f5565b6040830152506060611849848285016110f5565b606083015250608082013567ffffffffffffffff81111561186d5761186c611616565b5b611879848285016117af565b60808301525060a061188d8482850161140b565b60a08301525092915050565b6000602082840312156118af576118ae6110d4565b5b600082013567ffffffffffffffff8111156118cd576118cc6110d9565b5b6118d9848285016117dd565b91505092915050565b600067ffffffffffffffff82169050919050565b6118ff816118e2565b811461190a57600080fd5b50565b60008135905061191c816118f6565b92915050565b600080600080600060a0868803121561193e5761193d6110d4565b5b600061194c888289016110f5565b955050602061195d8882890161190d565b945050604061196e8882890161190d565b935050606061197f8882890161190d565b925050608086013567ffffffffffffffff8111156119a05761199f6110d9565b5b6119ac888289016117af565b9150509295509295909350565b60006020820190506119ce6000830184611525565b92915050565b6000602082840312156119ea576119e96110d4565b5b60006119f884828501611632565b91505092915050565b60006080830160008301518482036000860152611a1e828261120a565b9150506020830151611a336020860182611169565b5060408301518482036040860152611a4b8282611264565b9150506060830151611a606060860182611178565b508091505092915050565b60006020820190508181036000830152611a858184611a01565b905092915050565b60008083601f840112611aa357611aa2611460565b5b8235905067ffffffffffffffff811115611ac057611abf611465565b5b602083019150836020820283011115611adc57611adb61146a565b5b9250929050565b60008060008060408587031215611afd57611afc6110d4565b5b600085013567ffffffffffffffff811115611b1b57611b1a6110d9565b5b611b278782880161146f565b9450945050602085013567ffffffffffffffff811115611b4a57611b496110d9565b5b611b5687828801611a8d565b925092505092959194509250565b600082825260208201905092915050565b6000611b80826111b3565b611b8a8185611b64565b9350611b9a8185602086016111cf565b611ba3816111f9565b840191505092915050565b60006060820190508181036000830152611bc88186611b75565b9050611bd76020830185611525565b611be460408301846110a0565b949350505050565b7f696e646578206f7574206f662072616e67650000000000000000000000000000600082015250565b6000611c22601283611b64565b9150611c2d82611bec565b602082019050919050565b60006020820190508181036000830152611c5181611c15565b9050919050565b7f4e487b7100000000000000000000000000000000000000000000000000000000600052603260045260246000fd5b7f4e487b7100000000000000000000000000000000000000000000000000000000600052602260045260246000fd5b60006002820490506001821680611cce57607f821691505b602082108103611ce157611ce0611c87565b5b50919050565b7f75736572206973206e6f7420612076616c696461746f722c20706c656173652060008201527f7265676973746572000000000000000000000000000000000000000000000000602082015250565b6000611d43602883611b64565b9150611d4e82611ce7565b604082019050919050565b60006020820190508181036000830152611d7281611d36565b9050919050565b7f4e487b7100000000000000000000000000000000000000000000000000000000600052601160045260246000fd5b6000611db382611096565b9150611dbe83611096565b9250828201905080821115611dd657611dd5611d79565b5b92915050565b600082905092915050565b60008190508160005260206000209050919050565b60006020601f8301049050919050565b600082821b905092915050565b600060088302611e497fffffffffffffffffffffffffffffffffffffffffffffffffffffffffffffffff82611e0c565b611e538683611e0c565b95508019841693508086168417925050509392505050565b6000819050919050565b6000611e90611e8b611e8684611096565b611e6b565b611096565b9050919050565b6000819050919050565b611eaa83611e75565b611ebe611eb682611e97565b848454611e19565b825550505050565b600090565b611ed3611ec6565b611ede818484611ea1565b505050565b5b81811015611f0257611ef7600082611ecb565b600181019050611ee4565b5050565b601f821115611f4757611f1881611de7565b611f2184611dfc565b81016020851015611f30578190505b611f44611f3c85611dfc565b830182611ee3565b50505b505050565b600082821c905092915050565b6000611f6a60001984600802611f4c565b1980831691505092915050565b6000611f838383611f59565b9150826002028217905092915050565b611f9d8383611ddc565b67ffffffffffffffff811115611fb657611fb561159b565b5b611fc08254611cb6565b611fcb828285611f06565b6000601f831160018114611ffa5760008415611fe8578287013590505b611ff28582611f77565b86555061205a565b601f19841661200886611de7565b60005b828110156120305784890135825560018201915060208501945060208101905061200b565b8683101561204d5784890135612049601f891682611f59565b8355505b6001600288020188555050505b50505050505050565b7f696e76616c696420696400000000000000000000000000000000000000000000600082015250565b6000612099600a83611b64565b91506120a482612063565b602082019050919050565b600060208201905081810360008301526120c88161208c565b9050919050565b60006120dc368484611728565b905092915050565b6120ed826111b3565b67ffffffffffffffff8111156121065761210561159b565b5b6121108254611cb6565b61211b828285611f06565b600060209050601f83116001811461214e576000841561213c578287015190505b6121468582611f77565b8655506121ae565b601f19841661215c86611de7565b60005b828110156121845784890151825560018201915060208501945060208101905061215f565b868310156121a1578489015161219d601f891682611f59565b8355505b6001600288020188555050505b50505050505056fea2646970667358221220f54859cee870a96525d9dc1c271efc5915ed606ab5c9e88585f5d45d36353d8e64736f6c63430008180033",
  "linkReferences": {},
  "deployedLinkReferences": {}
}