{
  "_format": "hh-sol-artifact-1",
  "contractName": "TrafficConsensus",
  "sourceName": "contracts/TrafficConsensus.sol",
  "abi": [
    {
      "inputs": [],
      "stateMutability": "nonpayable",
      "type": "constructor"
    },
    {
      "anonymous": false,
      "inputs": [
        {
          "indexed": true,
          "internalType": "uint256",
          "name": "proposalId",
          "type": "uint256"
        }
      ],
      "name": "ProposalCreated",
      "type": "event"
    },
    {
      "anonymous": false,
      "inputs": [
        {
          "indexed": true,
          "internalType": "uint256",
          "name": "proposalId",
          "type": "uint256"
        }
      ],
      "name": "ProposalExecuted",
      "type": "event"
    },
    {
      "anonymous": false,
      "inputs": [
        {
          "indexed": true,
          "internalType": "address",
          "name": "validator",
          "type": "address"
        },
        {
          "indexed": false,
          "internalType": "uint256",
          "name": "amount",
          "type": "uint256"
        }
      ],
      "name": "Slashed",
      "type": "event"
    },
    {
      "anonymous": false,
      "inputs": [
        {
          "indexed": true,
          "internalType": "address",
          "name": "validator",
          "type": "address"
        }
      ],
      "name": "ValidatorAdded",
      "type": "event"
    },
    {
      "anonymous": false,
      "inputs": [
        {
          "indexed": true,
          "internalType": "address",
          "name": "validator",
          "type": "address"
        }
      ],
      "name": "ValidatorRemoved",
      "type": "event"
    },
    {
      "anonymous": false,
      "inputs": [
        {
          "indexed": true,
          "internalType": "uint256",
          "name": "proposalId",
          "type": "uint256"
        },
        {
          "indexed": true,
          "internalType": "address",
          "name": "validator",
          "type": "address"
        },
        {
          "indexed": false,
          "internalType": "uint256",
          "name": "votes",
          "type": "uint256"
        }
      ],
      "name": "VoteCasted",
      "type": "event"
    },
    {
      "inputs": [
        {
          "internalType": "address",
          "name": "_validator",
          "type": "address"
        },
        {
          "internalType": "uint256",
          "name": "_stakeAmount",
          "type": "uint256"
        }
      ],
      "name": "addValidator",
      "outputs": [],
      "stateMutability": "nonpayable",
      "type": "function"
    },
    {
      "inputs": [],
      "name": "createProposal",
      "outputs": [
        {
          "internalType": "uint256",
          "name": "",
          "type": "uint256"
        }
      ],
      "stateMutability": "nonpayable",
      "type": "function"
    },
    {
      "inputs": [
        {
          "internalType": "address",
          "name": "_validator",
          "type": "address"
        }
      ],
      "name": "getStakedAmount",
      "outputs": [
        {
          "internalType": "uint256",
          "name": "",
          "type": "uint256"
        }
      ],
      "stateMutability": "view",
      "type": "function"
    },
    {
      "inputs": [],
      "name": "getValidators",
      "outputs": [
        {
          "internalType": "address[]",
          "name": "",
          "type": "address[]"
        }
      ],
      "stateMutability": "view",
      "type": "function"
    },
    {
      "inputs": [
        {
          "internalType": "address",
          "name": "_validator",
          "type": "address"
        }
      ],
      "name": "isValidator",
      "outputs": [
        {
          "internalType": "bool",
          "name": "",
          "type": "bool"
        }
      ],
      "stateMutability": "view",
      "type": "function"
    },
    {
      "inputs": [],
      "name": "proposalCount",
      "outputs": [
        {
          "internalType": "uint256",
          "name": "",
          "type": "uint256"
        }
      ],
      "stateMutability": "view",
      "type": "function"
    },
    {
      "inputs": [
        {
          "internalType": "uint256",
          "name": "",
          "type": "uint256"
        }
      ],
      "name": "proposals",
      "outputs": [
        {
          "internalType": "uint256",
          "name": "Id",
          "type": "uint256"
        },
        {
          "internalType": "uint256",
          "name": "votes",
          "type": "uint256"
        },
        {
          "internalType": "bool",
          "name": "executed",
          "type": "bool"
        }
      ],
      "stateMutability": "view",
      "type": "function"
    },
    {
      "inputs": [
        {
          "internalType": "address",
          "name": "_validator",
          "type": "address"
        }
      ],
      "name": "removeValidator",
      "outputs": [],
      "stateMutability": "nonpayable",
      "type": "function"
    },
    {
      "inputs": [],
      "name": "totalStakeAmount",
      "outputs": [
        {
          "internalType": "uint256",
          "name": "",
          "type": "uint256"
        }
      ],
      "stateMutability": "view",
      "type": "function"
    },
    {
      "inputs": [],
      "name": "trafficConsensusThreshold",
      "outputs": [
        {
          "internalType": "uint256",
          "name": "",
          "type": "uint256"
        }
      ],
      "stateMutability": "view",
      "type": "function"
    },
    {
      "inputs": [
        {
          "internalType": "uint256",
          "name": "_proposalId",
          "type": "uint256"
        },
        {
          "internalType": "uint256",
          "name": "_votes",
          "type": "uint256"
        }
      ],
      "name": "vote",
      "outputs": [],
      "stateMutability": "nonpayable",
      "type": "function"
    }
  ],
  "bytecode": "0x608060405234801561001057600080fd5b506001600281905550611512806100286000396000f3fe608060405234801561001057600080fd5b50600436106100a95760003560e01c8063b384abef11610071578063b384abef14610168578063b7ab4db514610184578063da35c664146101a2578063ee33d51c146101c0578063facd743b146101de578063fc6c1f021461020e576100a9565b8063013cf08b146100ae578063180fd87f146100e057806340a141ff146100fe5780634da6a5561461011a57806394409a561461014a575b600080fd5b6100c860048036038101906100c39190610dc5565b61022a565b6040516100d793929190610e1c565b60405180910390f35b6100e8610261565b6040516100f59190610e53565b60405180910390f35b61011860048036038101906101139190610ecc565b6102fa565b005b610134600480360381019061012f9190610ecc565b61065d565b6040516101419190610e53565b60405180910390f35b6101526106a8565b60405161015f9190610e53565b60405180910390f35b610182600480360381019061017d9190610ef9565b6106ae565b005b61018c610a48565b6040516101999190610ff7565b60405180910390f35b6101aa610ad6565b6040516101b79190610e53565b60405180910390f35b6101c8610adc565b6040516101d59190610e53565b60405180910390f35b6101f860048036038101906101f39190610ecc565b610ae2565b6040516102059190611019565b60405180910390f35b61022860048036038101906102239190611034565b610b3a565b005b60046020528060005260406000206000915090508060000154908060010154908060020160009054906101000a900460ff16905083565b600061026c33610ae2565b6102ab576040517f08c379a00000000000000000000000000000000000000000000000000000000081526004016102a2906110f7565b60405180910390fd5b600560008154809291906102be90611146565b91905055506005547fc2c021f5d73c63c481d336fbbafec58f694fc45095f00b02d2deb8cca59afe0760405160405180910390a2600554905090565b61030333610ae2565b610342576040517f08c379a0000000000000000000000000000000000000000000000000000000008152600401610339906110f7565b60405180910390fd5b61034b81610ae2565b61038a576040517f08c379a0000000000000000000000000000000000000000000000000000000008152600401610381906111da565b60405180910390fd5b60008060008373ffffffffffffffffffffffffffffffffffffffff1673ffffffffffffffffffffffffffffffffffffffff16815260200190815260200160002060010154905060008060008473ffffffffffffffffffffffffffffffffffffffff1673ffffffffffffffffffffffffffffffffffffffff16815260200190815260200160002060020160006101000a81548160ff021916908315150217905550806003600082825461043c91906111fa565b925050819055508173ffffffffffffffffffffffffffffffffffffffff167f4ed05e9673c26d2ed44f7ef6a7f2942df0ee3b5e1e17db4b99f9dcd261a339cd826040516104899190610e53565b60405180910390a260005b600180549050811015610615578273ffffffffffffffffffffffffffffffffffffffff16600182815481106104cc576104cb61122e565b5b9060005260206000200160009054906101000a900473ffffffffffffffffffffffffffffffffffffffff1673ffffffffffffffffffffffffffffffffffffffff160361060857600180808054905061052491906111fa565b815481106105355761053461122e565b5b9060005260206000200160009054906101000a900473ffffffffffffffffffffffffffffffffffffffff16600182815481106105745761057361122e565b5b9060005260206000200160006101000a81548173ffffffffffffffffffffffffffffffffffffffff021916908373ffffffffffffffffffffffffffffffffffffffff16021790555060018054806105ce576105cd61125d565b5b6001900381819060005260206000200160006101000a81549073ffffffffffffffffffffffffffffffffffffffff02191690559055610615565b8080600101915050610494565b508173ffffffffffffffffffffffffffffffffffffffff167fe1434e25d6611e0db941968fdc97811c982ac1602e951637d206f5fdda9dd8f160405160405180910390a25050565b60008060008373ffffffffffffffffffffffffffffffffffffffff1673ffffffffffffffffffffffffffffffffffffffff168152602001908152602001600020600101549050919050565b60035481565b6106b733610ae2565b6106f6576040517f08c379a00000000000000000000000000000000000000000000000000000000081526004016106ed906110f7565b60405180910390fd5b6004600083815260200190815260200160002060020160009054906101000a900460ff161561075a576040517f08c379a0000000000000000000000000000000000000000000000000000000008152600401610751906112d8565b60405180910390fd5b6001811161079d576040517f08c379a000000000000000000000000000000000000000000000000000000000815260040161079490611344565b60405180910390fd5b6004600083815260200190815260200160002060030160003373ffffffffffffffffffffffffffffffffffffffff1673ffffffffffffffffffffffffffffffffffffffff16815260200190815260200160002060009054906101000a900460ff161561083e576040517f08c379a0000000000000000000000000000000000000000000000000000000008152600401610835906113b0565b60405180910390fd5b806000803373ffffffffffffffffffffffffffffffffffffffff1673ffffffffffffffffffffffffffffffffffffffff1681526020019081526020016000206001015410156108c2576040517f08c379a00000000000000000000000000000000000000000000000000000000081526004016108b99061141c565b60405180910390fd5b806000803373ffffffffffffffffffffffffffffffffffffffff1673ffffffffffffffffffffffffffffffffffffffff168152602001908152602001600020600101600082825461091391906111fa565b92505081905550806003600082825461092c91906111fa565b9250508190555080600460008481526020019081526020016000206001016000828254610959919061143c565b9250508190555060016004600084815260200190815260200160002060030160003373ffffffffffffffffffffffffffffffffffffffff1673ffffffffffffffffffffffffffffffffffffffff16815260200190815260200160002060006101000a81548160ff0219169083151502179055503373ffffffffffffffffffffffffffffffffffffffff16827fe7ee74ca1f4bb1b82b14f87794c45b3e59c39e372b862fb97a6316b43355b69e83604051610a139190610e53565b60405180910390a3600254600460008481526020019081526020016000206001015410610a4457610a4382610d2b565b5b5050565b60606001805480602002602001604051908101604052809291908181526020018280548015610acc57602002820191906000526020600020905b8160009054906101000a900473ffffffffffffffffffffffffffffffffffffffff1673ffffffffffffffffffffffffffffffffffffffff1681526020019060010190808311610a82575b5050505050905090565b60055481565b60025481565b60008060008373ffffffffffffffffffffffffffffffffffffffff1673ffffffffffffffffffffffffffffffffffffffff16815260200190815260200160002060020160009054906101000a900460ff169050919050565b610b4382610ae2565b610b82576040517f08c379a0000000000000000000000000000000000000000000000000000000008152600401610b79906114bc565b60405180910390fd5b60405180606001604052808373ffffffffffffffffffffffffffffffffffffffff168152602001828152602001600115158152506000808473ffffffffffffffffffffffffffffffffffffffff1673ffffffffffffffffffffffffffffffffffffffff16815260200190815260200160002060008201518160000160006101000a81548173ffffffffffffffffffffffffffffffffffffffff021916908373ffffffffffffffffffffffffffffffffffffffff1602179055506020820151816001015560408201518160020160006101000a81548160ff0219169083151502179055509050506001829080600181540180825580915050600190039060005260206000200160009091909190916101000a81548173ffffffffffffffffffffffffffffffffffffffff021916908373ffffffffffffffffffffffffffffffffffffffff1602179055508060036000828254610cdd919061143c565b925050819055508173ffffffffffffffffffffffffffffffffffffffff167fe366c1c0452ed8eec96861e9e54141ebff23c9ec89fe27b996b45f5ec388498760405160405180910390a25050565b60016004600083815260200190815260200160002060020160006101000a81548160ff021916908315150217905550807f712ae1383f79ac853f8d882153778e0260ef8f03b504e2866e0593e04d2b291f60405160405180910390a250565b600080fd5b6000819050919050565b610da281610d8f565b8114610dad57600080fd5b50565b600081359050610dbf81610d99565b92915050565b600060208284031215610ddb57610dda610d8a565b5b6000610de984828501610db0565b91505092915050565b610dfb81610d8f565b82525050565b60008115159050919050565b610e1681610e01565b82525050565b6000606082019050610e316000830186610df2565b610e3e6020830185610df2565b610e4b6040830184610e0d565b949350505050565b6000602082019050610e686000830184610df2565b92915050565b600073ffffffffffffffffffffffffffffffffffffffff82169050919050565b6000610e9982610e6e565b9050919050565b610ea981610e8e565b8114610eb457600080fd5b50565b600081359050610ec681610ea0565b92915050565b600060208284031215610ee257610ee1610d8a565b5b6000610ef084828501610eb7565b91505092915050565b60008060408385031215610f1057610f0f610d8a565b5b6000610f1e85828601610db0565b9250506020610f2f85828601610db0565b9150509250929050565b600081519050919050565b600082825260208201905092915050565b6000819050602082019050919050565b610f6e81610e8e565b82525050565b6000610f808383610f65565b60208301905092915050565b6000602082019050919050565b6000610fa482610f39565b610fae8185610f44565b9350610fb983610f55565b8060005b83811015610fea578151610fd18882610f74565b9750610fdc83610f8c565b925050600181019050610fbd565b5085935050505092915050565b600060208201905081810360008301526110118184610f99565b905092915050565b600060208201905061102e6000830184610e0d565b92915050565b6000806040838503121561104b5761104a610d8a565b5b600061105985828601610eb7565b925050602061106a85828601610db0565b9150509250929050565b600082825260208201905092915050565b7f4f6e6c79207468652076616c696461746f72732063616e20706572666f726d2060008201527f7468697320616374696f6e000000000000000000000000000000000000000000602082015250565b60006110e1602b83611074565b91506110ec82611085565b604082019050919050565b60006020820190508181036000830152611110816110d4565b9050919050565b7f4e487b7100000000000000000000000000000000000000000000000000000000600052601160045260246000fd5b600061115182610d8f565b91507fffffffffffffffffffffffffffffffffffffffffffffffffffffffffffffffff820361118357611182611117565b5b600182019050919050565b7f56616c696461746f7220646f6573206e6f742065786973740000000000000000600082015250565b60006111c4601883611074565b91506111cf8261118e565b602082019050919050565b600060208201905081810360008301526111f3816111b7565b9050919050565b600061120582610d8f565b915061121083610d8f565b925082820390508181111561122857611227611117565b5b92915050565b7f4e487b7100000000000000000000000000000000000000000000000000000000600052603260045260246000fd5b7f4e487b7100000000000000000000000000000000000000000000000000000000600052603160045260246000fd5b7f50726f706f73616c20616c726561647920657865637574656400000000000000600082015250565b60006112c2601983611074565b91506112cd8261128c565b602082019050919050565b600060208201905081810360008301526112f1816112b5565b9050919050565b7f566f746573206d7573742062652067726561746572207468616e206f6e650000600082015250565b600061132e601e83611074565b9150611339826112f8565b602082019050919050565b6000602082019050818103600083015261135d81611321565b9050919050565b7f416c726561647920766f746564206f6e20746869732070726f706f73616c0000600082015250565b600061139a601e83611074565b91506113a582611364565b602082019050919050565b600060208201905081810360008301526113c98161138d565b9050919050565b7f7374616b65206e6f7420656e6f75676800000000000000000000000000000000600082015250565b6000611406601083611074565b9150611411826113d0565b602082019050919050565b60006020820190508181036000830152611435816113f9565b9050919050565b600061144782610d8f565b915061145283610d8f565b925082820190508082111561146a57611469611117565b5b92915050565b7f56616c696461746f7220616c7265616479206578697374730000000000000000600082015250565b60006114a6601883611074565b91506114b182611470565b602082019050919050565b600060208201905081810360008301526114d581611499565b905091905056fea26469706673582212201ecc0e853f96bc6c42781d38555479ebe8266361a2b703c0e40ff30663f6065764736f6c63430008180033",
  "linkReferences": {},
  "deployedLinkReferences": {}
}