{
  "_format": "hh-sol-artifact-1",
  "contractName": "TrafficData",
  "sourceName": "contracts/TrafficData.sol",
  "abi": [
    {
      "inputs": [],
      "stateMutability": "nonpayable",
      "type": "constructor"
    },
    {
      "anonymous": false,
      "inputs": [
        {
          "indexed": true,
          "internalType": "uint256",
          "name": "index",
          "type": "uint256"
        }
      ],
      "name": "NewTrafficLightRegister",
      "type": "event"
    },
    {
      "inputs": [],
      "name": "LLA_DECIMAL",
      "outputs": [
        {
          "internalType": "uint256",
          "name": "",
          "type": "uint256"
        }
      ],
      "stateMutability": "view",
      "type": "function"
    },
    {
      "inputs": [
        {
          "internalType": "uint256",
          "name": "id",
          "type": "uint256"
        },
        {
          "internalType": "string",
          "name": "imageUri",
          "type": "string"
        }
      ],
      "name": "addImages",
      "outputs": [],
      "stateMutability": "nonpayable",
      "type": "function"
    },
    {
      "inputs": [
        {
          "internalType": "address",
          "name": "user",
          "type": "address"
        }
      ],
      "name": "getAllTrafficLightDetection",
      "outputs": [
        {
          "components": [
            {
              "internalType": "uint256",
              "name": "id",
              "type": "uint256"
            },
            {
              "internalType": "uint256",
              "name": "lat",
              "type": "uint256"
            },
            {
              "internalType": "uint256",
              "name": "lng",
              "type": "uint256"
            },
            {
              "internalType": "uint256",
              "name": "orientation",
              "type": "uint256"
            },
            {
              "internalType": "string",
              "name": "cid",
              "type": "string"
            },
            {
              "internalType": "uint256",
              "name": "topLeft_x",
              "type": "uint256"
            },
            {
              "internalType": "uint256",
              "name": "topLeft_y",
              "type": "uint256"
            },
            {
              "internalType": "uint256",
              "name": "width",
              "type": "uint256"
            },
            {
              "internalType": "uint256",
              "name": "height",
              "type": "uint256"
            },
            {
              "internalType": "uint256",
              "name": "score",
              "type": "uint256"
            }
          ],
          "internalType": "struct TrafficData.TrafficLightDetection[]",
          "name": "",
          "type": "tuple[]"
        }
      ],
      "stateMutability": "view",
      "type": "function"
    },
    {
      "inputs": [],
      "name": "getAllValidators",
      "outputs": [
        {
          "components": [
            {
              "internalType": "string",
              "name": "name",
              "type": "string"
            },
            {
              "internalType": "address",
              "name": "owner",
              "type": "address"
            },
            {
              "internalType": "string[]",
              "name": "supportedModels",
              "type": "string[]"
            },
            {
              "internalType": "uint256",
              "name": "validatedCount",
              "type": "uint256"
            }
          ],
          "internalType": "struct TrafficData.ValidatorMetadata[]",
          "name": "",
          "type": "tuple[]"
        }
      ],
      "stateMutability": "view",
      "type": "function"
    },
    {
      "inputs": [],
      "name": "getIndex",
      "outputs": [
        {
          "internalType": "uint256",
          "name": "",
          "type": "uint256"
        }
      ],
      "stateMutability": "view",
      "type": "function"
    },
    {
      "inputs": [
        {
          "internalType": "uint256",
          "name": "index",
          "type": "uint256"
        }
      ],
      "name": "getTrafficLightByIndex",
      "outputs": [
        {
          "components": [
            {
              "internalType": "address",
              "name": "owner",
              "type": "address"
            },
            {
              "internalType": "uint256",
              "name": "lat",
              "type": "uint256"
            },
            {
              "internalType": "uint256",
              "name": "lng",
              "type": "uint256"
            },
            {
              "internalType": "uint256",
              "name": "orientation",
              "type": "uint256"
            },
            {
              "internalType": "string[]",
              "name": "uri",
              "type": "string[]"
            },
            {
              "internalType": "enum TrafficData.TrafficLightValidationStatus",
              "name": "validationStatus",
              "type": "uint8"
            }
          ],
          "internalType": "struct TrafficData.TrafficLight",
          "name": "",
          "type": "tuple"
        }
      ],
      "stateMutability": "nonpayable",
      "type": "function"
    },
    {
      "inputs": [],
      "name": "getTrafficLights",
      "outputs": [
        {
          "components": [
            {
              "internalType": "address",
              "name": "owner",
              "type": "address"
            },
            {
              "internalType": "uint256",
              "name": "lat",
              "type": "uint256"
            },
            {
              "internalType": "uint256",
              "name": "lng",
              "type": "uint256"
            },
            {
              "internalType": "uint256",
              "name": "orientation",
              "type": "uint256"
            },
            {
              "internalType": "string[]",
              "name": "uri",
              "type": "string[]"
            },
            {
              "internalType": "enum TrafficData.TrafficLightValidationStatus",
              "name": "validationStatus",
              "type": "uint8"
            }
          ],
          "internalType": "struct TrafficData.TrafficLight[]",
          "name": "",
          "type": "tuple[]"
        }
      ],
      "stateMutability": "nonpayable",
      "type": "function"
    },
    {
      "inputs": [
        {
          "internalType": "address",
          "name": "validator",
          "type": "address"
        }
      ],
      "name": "getValidatorMetadata",
      "outputs": [
        {
          "components": [
            {
              "internalType": "string",
              "name": "name",
              "type": "string"
            },
            {
              "internalType": "address",
              "name": "owner",
              "type": "address"
            },
            {
              "internalType": "string[]",
              "name": "supportedModels",
              "type": "string[]"
            },
            {
              "internalType": "uint256",
              "name": "validatedCount",
              "type": "uint256"
            }
          ],
          "internalType": "struct TrafficData.ValidatorMetadata",
          "name": "",
          "type": "tuple"
        }
      ],
      "stateMutability": "view",
      "type": "function"
    },
    {
      "inputs": [
        {
          "internalType": "address",
          "name": "_token",
          "type": "address"
        }
      ],
      "name": "registerToken",
      "outputs": [],
      "stateMutability": "nonpayable",
      "type": "function"
    },
    {
      "inputs": [
        {
          "components": [
            {
              "internalType": "address",
              "name": "owner",
              "type": "address"
            },
            {
              "internalType": "uint256",
              "name": "lat",
              "type": "uint256"
            },
            {
              "internalType": "uint256",
              "name": "lng",
              "type": "uint256"
            },
            {
              "internalType": "uint256",
              "name": "orientation",
              "type": "uint256"
            },
            {
              "internalType": "string[]",
              "name": "uri",
              "type": "string[]"
            },
            {
              "internalType": "enum TrafficData.TrafficLightValidationStatus",
              "name": "validationStatus",
              "type": "uint8"
            }
          ],
          "internalType": "struct TrafficData.TrafficLight",
          "name": "input",
          "type": "tuple"
        }
      ],
      "name": "registerTrafficLight",
      "outputs": [],
      "stateMutability": "nonpayable",
      "type": "function"
    },
    {
      "inputs": [
        {
          "components": [
            {
              "internalType": "uint256",
              "name": "id",
              "type": "uint256"
            },
            {
              "internalType": "uint256",
              "name": "lat",
              "type": "uint256"
            },
            {
              "internalType": "uint256",
              "name": "lng",
              "type": "uint256"
            },
            {
              "internalType": "uint256",
              "name": "orientation",
              "type": "uint256"
            },
            {
              "internalType": "string",
              "name": "cid",
              "type": "string"
            },
            {
              "internalType": "uint256",
              "name": "topLeft_x",
              "type": "uint256"
            },
            {
              "internalType": "uint256",
              "name": "topLeft_y",
              "type": "uint256"
            },
            {
              "internalType": "uint256",
              "name": "width",
              "type": "uint256"
            },
            {
              "internalType": "uint256",
              "name": "height",
              "type": "uint256"
            },
            {
              "internalType": "uint256",
              "name": "score",
              "type": "uint256"
            }
          ],
          "internalType": "struct TrafficData.TrafficLightDetection",
          "name": "input",
          "type": "tuple"
        }
      ],
      "name": "registerTrafficLightDetection",
      "outputs": [],
      "stateMutability": "nonpayable",
      "type": "function"
    },
    {
      "inputs": [
        {
          "internalType": "string",
          "name": "name",
          "type": "string"
        },
        {
          "internalType": "string[]",
          "name": "supportedModels",
          "type": "string[]"
        }
      ],
      "name": "registerValidator",
      "outputs": [],
      "stateMutability": "nonpayable",
      "type": "function"
    },
    {
      "inputs": [
        {
          "internalType": "address",
          "name": "",
          "type": "address"
        },
        {
          "internalType": "uint256",
          "name": "",
          "type": "uint256"
        }
      ],
      "name": "trafficLightDetections",
      "outputs": [
        {
          "internalType": "uint256",
          "name": "id",
          "type": "uint256"
        },
        {
          "internalType": "uint256",
          "name": "lat",
          "type": "uint256"
        },
        {
          "internalType": "uint256",
          "name": "lng",
          "type": "uint256"
        },
        {
          "internalType": "uint256",
          "name": "orientation",
          "type": "uint256"
        },
        {
          "internalType": "string",
          "name": "cid",
          "type": "string"
        },
        {
          "internalType": "uint256",
          "name": "topLeft_x",
          "type": "uint256"
        },
        {
          "internalType": "uint256",
          "name": "topLeft_y",
          "type": "uint256"
        },
        {
          "internalType": "uint256",
          "name": "width",
          "type": "uint256"
        },
        {
          "internalType": "uint256",
          "name": "height",
          "type": "uint256"
        },
        {
          "internalType": "uint256",
          "name": "score",
          "type": "uint256"
        }
      ],
      "stateMutability": "view",
      "type": "function"
    },
    {
      "inputs": [],
      "name": "trafficLightsIndex",
      "outputs": [
        {
          "internalType": "uint256",
          "name": "",
          "type": "uint256"
        }
      ],
      "stateMutability": "view",
      "type": "function"
    },
    {
      "inputs": [
        {
          "internalType": "uint256",
          "name": "id",
          "type": "uint256"
        },
        {
          "internalType": "uint64",
          "name": "lat",
          "type": "uint64"
        },
        {
          "internalType": "uint64",
          "name": "lng",
          "type": "uint64"
        },
        {
          "internalType": "uint64",
          "name": "orientation",
          "type": "uint64"
        },
        {
          "internalType": "string[]",
          "name": "uri",
          "type": "string[]"
        }
      ],
      "name": "updateTrafficLight",
      "outputs": [],
      "stateMutability": "nonpayable",
      "type": "function"
    },
    {
      "inputs": [
        {
          "internalType": "uint256",
          "name": "id",
          "type": "uint256"
        },
        {
          "internalType": "enum TrafficData.TrafficLightValidationStatus",
          "name": "validationStatus",
          "type": "uint8"
        }
      ],
      "name": "updateValidationStatus",
      "outputs": [],
      "stateMutability": "nonpayable",
      "type": "function"
    },
    {
      "inputs": [],
      "name": "validatorIndex",
      "outputs": [
        {
          "internalType": "uint256",
          "name": "",
          "type": "uint256"
        }
      ],
      "stateMutability": "view",
      "type": "function"
    },
    {
      "inputs": [
        {
          "internalType": "address",
          "name": "",
          "type": "address"
        }
      ],
      "name": "validators",
      "outputs": [
        {
          "internalType": "string",
          "name": "name",
          "type": "string"
        },
        {
          "internalType": "address",
          "name": "owner",
          "type": "address"
        },
        {
          "internalType": "uint256",
          "name": "validatedCount",
          "type": "uint256"
        }
      ],
      "stateMutability": "view",
      "type": "function"
    },
    {
      "inputs": [
        {
          "internalType": "uint256",
          "name": "",
          "type": "uint256"
        }
      ],
      "name": "validatorsAddresses",
      "outputs": [
        {
          "internalType": "address",
          "name": "",
          "type": "address"
        }
      ],
      "stateMutability": "view",
      "type": "function"
    }
  ],
  "bytecode": "0x60806040526000600255600060065534801561001a57600080fd5b5033600160006101000a81548173ffffffffffffffffffffffffffffffffffffffff021916908373ffffffffffffffffffffffffffffffffffffffff16021790555061373b8061006b6000396000f3fe608060405234801561001057600080fd5b50600436106101215760003560e01c80638dc87e4d116100ad578063b363c6c211610071578063b363c6c2146102fd578063ed7171841461032d578063f3513a371461035d578063f93227411461037b578063fa52c7d81461039757610121565b80638dc87e4d1461025b5780639f973e7d14610277578063a114251514610293578063a1bf49aa146102af578063aee991ef146102cd57610121565b80636957210e116100f45780636957210e146101ae5780636ddf30c4146101ca5780636fde5645146101e857806381045ead1461020457806388ca05cc1461022257610121565b806309824a80146101265780631c4bc0be146101425780632cc2e41e146101605780636219d0a91461017e575b600080fd5b610140600480360381019061013b9190611dc0565b6103c9565b005b61014a61053e565b6040516101579190611e06565b60405180910390f35b610168610543565b6040516101759190612153565b60405180910390f35b610198600480360381019061019391906121a1565b6107d6565b6040516101a59190612257565b60405180910390f35b6101c860048036038101906101c3919061229e565b610a80565b005b6101d2610bfb565b6040516101df9190611e06565b60405180910390f35b61020260048036038101906101fd919061252f565b610c01565b005b61020c610d81565b6040516102199190611e06565b60405180910390f35b61023c60048036038101906102379190612578565b610d8b565b6040516102529a99989796959493929190612602565b60405180910390f35b61027560048036038101906102709190612705565b610e84565b005b610291600480360381019061028c9190612902565b610eea565b005b6102ad60048036038101906102a8919061298b565b61111f565b005b6102b7611240565b6040516102c49190611e06565b60405180910390f35b6102e760048036038101906102e29190611dc0565b611246565b6040516102f49190612bbe565b60405180910390f35b610317600480360381019061031291906121a1565b6113d1565b6040516103249190612bef565b60405180910390f35b61034760048036038101906103429190611dc0565b611410565b6040516103549190612c74565b60405180910390f35b610365611634565b6040516103729190612dc2565b60405180910390f35b61039560048036038101906103909190612e3a565b61192f565b005b6103b160048036038101906103ac9190611dc0565b611b06565b6040516103c093929190612ebb565b60405180910390f35b600160009054906101000a900473ffffffffffffffffffffffffffffffffffffffff1673ffffffffffffffffffffffffffffffffffffffff163373ffffffffffffffffffffffffffffffffffffffff1614610459576040517f08c379a000000000000000000000000000000000000000000000000000000000815260040161045090612f45565b60405180910390fd5b806000806101000a81548173ffffffffffffffffffffffffffffffffffffffff021916908373ffffffffffffffffffffffffffffffffffffffff16021790555060008054906101000a900473ffffffffffffffffffffffffffffffffffffffff1673ffffffffffffffffffffffffffffffffffffffff166340c10f1930620186a06040518363ffffffff1660e01b81526004016104f7929190612faa565b6020604051808303816000875af1158015610516573d6000803e3d6000fd5b505050506040513d601f19601f8201168201806040525081019061053a919061300b565b5050565b600681565b60606000600380549050905060008054906101000a900473ffffffffffffffffffffffffffffffffffffffff1673ffffffffffffffffffffffffffffffffffffffff166323b872dd3330846040518463ffffffff1660e01b81526004016105ac93929190613038565b6020604051808303816000875af11580156105cb573d6000803e3d6000fd5b505050506040513d601f19601f820116820180604052508101906105ef919061300b565b506003805480602002602001604051908101604052809291908181526020016000905b828210156107cc57838290600052602060002090600602016040518060c00160405290816000820160009054906101000a900473ffffffffffffffffffffffffffffffffffffffff1673ffffffffffffffffffffffffffffffffffffffff1673ffffffffffffffffffffffffffffffffffffffff16815260200160018201548152602001600282015481526020016003820154815260200160048201805480602002602001604051908101604052809291908181526020016000905b8282101561077a5783829060005260206000200180546106ed9061309e565b80601f01602080910402602001604051908101604052809291908181526020018280546107199061309e565b80156107665780601f1061073b57610100808354040283529160200191610766565b820191906000526020600020905b81548152906001019060200180831161074957829003601f168201915b5050505050815260200190600101906106ce565b5050505081526020016005820160009054906101000a900460ff1660038111156107a7576107a6611fbd565b5b60038111156107b9576107b8611fbd565b5b8152505081526020019060010190610612565b5050505091505090565b6107de611bd8565b8160025411610822576040517f08c379a00000000000000000000000000000000000000000000000000000000081526004016108199061311b565b60405180910390fd5b60008054906101000a900473ffffffffffffffffffffffffffffffffffffffff1673ffffffffffffffffffffffffffffffffffffffff166323b872dd333060016040518463ffffffff1660e01b815260040161088093929190613176565b6020604051808303816000875af115801561089f573d6000803e3d6000fd5b505050506040513d601f19601f820116820180604052508101906108c3919061300b565b50600382815481106108d8576108d76131ad565b5b90600052602060002090600602016040518060c00160405290816000820160009054906101000a900473ffffffffffffffffffffffffffffffffffffffff1673ffffffffffffffffffffffffffffffffffffffff1673ffffffffffffffffffffffffffffffffffffffff16815260200160018201548152602001600282015481526020016003820154815260200160048201805480602002602001604051908101604052809291908181526020016000905b82821015610a365783829060005260206000200180546109a99061309e565b80601f01602080910402602001604051908101604052809291908181526020018280546109d59061309e565b8015610a225780601f106109f757610100808354040283529160200191610a22565b820191906000526020600020905b815481529060010190602001808311610a0557829003601f168201915b50505050508152602001906001019061098a565b5050505081526020016005820160009054906101000a900460ff166003811115610a6357610a62611fbd565b5b6003811115610a7557610a74611fbd565b5b815250509050919050565b3373ffffffffffffffffffffffffffffffffffffffff16600560003373ffffffffffffffffffffffffffffffffffffffff1673ffffffffffffffffffffffffffffffffffffffff16815260200190815260200160002060010160009054906101000a900473ffffffffffffffffffffffffffffffffffffffff1673ffffffffffffffffffffffffffffffffffffffff1614610b50576040517f08c379a0000000000000000000000000000000000000000000000000000000008152600401610b479061324e565b60405180910390fd5b6001600560003373ffffffffffffffffffffffffffffffffffffffff1673ffffffffffffffffffffffffffffffffffffffff1681526020019081526020016000206003016000828254610ba3919061329d565b925050819055508060038381548110610bbf57610bbe6131ad565b5b906000526020600020906006020160050160006101000a81548160ff02191690836003811115610bf257610bf1611fbd565b5b02179055505050565b60025481565b600460003373ffffffffffffffffffffffffffffffffffffffff1673ffffffffffffffffffffffffffffffffffffffff1681526020019081526020016000208190806001815401808255809150506001900390600052602060002090600a0201600090919091909150600082015181600001556020820151816001015560408201518160020155606082015181600301556080820151816004019081610ca79190613473565b5060a0820151816005015560c0820151816006015560e0820151816007015561010082015181600801556101208201518160090155505060008054906101000a900473ffffffffffffffffffffffffffffffffffffffff1673ffffffffffffffffffffffffffffffffffffffff1663a9059cbb33600a6040518363ffffffff1660e01b8152600401610d3a929190613580565b6020604051808303816000875af1158015610d59573d6000803e3d6000fd5b505050506040513d601f19601f82011682018060405250810190610d7d919061300b565b5050565b6000600254905090565b60046020528160005260406000208181548110610da757600080fd5b90600052602060002090600a020160009150915050806000015490806001015490806002015490806003015490806004018054610de39061309e565b80601f0160208091040260200160405190810160405280929190818152602001828054610e0f9061309e565b8015610e5c5780601f10610e3157610100808354040283529160200191610e5c565b820191906000526020600020905b815481529060010190602001808311610e3f57829003601f168201915b505050505090806005015490806006015490806007015490806008015490806009015490508a565b60038381548110610e9857610e976131ad565b5b9060005260206000209060060201600401828290918060018154018082558091505060019003906000526020600020016000909192909192909192909192509182610ee49291906135b4565b50505050565b33816000019073ffffffffffffffffffffffffffffffffffffffff16908173ffffffffffffffffffffffffffffffffffffffff168152505060008160a001906003811115610f3b57610f3a611fbd565b5b90816003811115610f4f57610f4e611fbd565b5b81525050600381908060018154018082558091505060019003906000526020600020906006020160009091909190915060008201518160000160006101000a81548173ffffffffffffffffffffffffffffffffffffffff021916908373ffffffffffffffffffffffffffffffffffffffff1602179055506020820151816001015560408201518160020155606082015181600301556080820151816004019080519060200190611000929190611c36565b5060a08201518160050160006101000a81548160ff0219169083600381111561102c5761102b611fbd565b5b021790555050506002547f4046cd0d5427a1a3a70a3453f8a6114979200006ef5fba493a840ce915c612b360405160405180910390a2600160026000828254611075919061329d565b9250508190555060008054906101000a900473ffffffffffffffffffffffffffffffffffffffff1673ffffffffffffffffffffffffffffffffffffffff1663a9059cbb33600a6040518363ffffffff1660e01b81526004016110d8929190613580565b6020604051808303816000875af11580156110f7573d6000803e3d6000fd5b505050506040513d601f19601f8201168201806040525081019061111b919061300b565b5050565b6002548510611163576040517f08c379a000000000000000000000000000000000000000000000000000000000815260040161115a906136d0565b60405180910390fd5b8367ffffffffffffffff1660038681548110611182576111816131ad565b5b9060005260206000209060060201600101819055508267ffffffffffffffff16600386815481106111b6576111b56131ad565b5b9060005260206000209060060201600201819055508167ffffffffffffffff16600386815481106111ea576111e96131ad565b5b9060005260206000209060060201600301819055508060038681548110611214576112136131ad565b5b90600052602060002090600602016004019080519060200190611238929190611c36565b505050505050565b60065481565b6060600460008373ffffffffffffffffffffffffffffffffffffffff1673ffffffffffffffffffffffffffffffffffffffff168152602001908152602001600020805480602002602001604051908101604052809291908181526020016000905b828210156113c657838290600052602060002090600a020160405180610140016040529081600082015481526020016001820154815260200160028201548152602001600382015481526020016004820180546113039061309e565b80601f016020809104026020016040519081016040528092919081815260200182805461132f9061309e565b801561137c5780601f106113515761010080835404028352916020019161137c565b820191906000526020600020905b81548152906001019060200180831161135f57829003601f168201915b5050505050815260200160058201548152602001600682015481526020016007820154815260200160088201548152602001600982015481525050815260200190600101906112a7565b505050509050919050565b600781815481106113e157600080fd5b906000526020600020016000915054906101000a900473ffffffffffffffffffffffffffffffffffffffff1681565b611418611c8f565b600560008373ffffffffffffffffffffffffffffffffffffffff1673ffffffffffffffffffffffffffffffffffffffff1681526020019081526020016000206040518060800160405290816000820180546114729061309e565b80601f016020809104026020016040519081016040528092919081815260200182805461149e9061309e565b80156114eb5780601f106114c0576101008083540402835291602001916114eb565b820191906000526020600020905b8154815290600101906020018083116114ce57829003601f168201915b505050505081526020016001820160009054906101000a900473ffffffffffffffffffffffffffffffffffffffff1673ffffffffffffffffffffffffffffffffffffffff1673ffffffffffffffffffffffffffffffffffffffff16815260200160028201805480602002602001604051908101604052809291908181526020016000905b8282101561161b57838290600052602060002001805461158e9061309e565b80601f01602080910402602001604051908101604052809291908181526020018280546115ba9061309e565b80156116075780601f106115dc57610100808354040283529160200191611607565b820191906000526020600020905b8154815290600101906020018083116115ea57829003601f168201915b50505050508152602001906001019061156f565b5050505081526020016003820154815250509050919050565b6060600060065467ffffffffffffffff811115611654576116536122e3565b5b60405190808252806020026020018201604052801561168d57816020015b61167a611c8f565b8152602001906001900390816116725790505b50905060005b600654811015611927576000600782815481106116b3576116b26131ad565b5b9060005260206000200160009054906101000a900473ffffffffffffffffffffffffffffffffffffffff1690506000600560008373ffffffffffffffffffffffffffffffffffffffff1673ffffffffffffffffffffffffffffffffffffffff16815260200190815260200160002060405180608001604052908160008201805461173c9061309e565b80601f01602080910402602001604051908101604052809291908181526020018280546117689061309e565b80156117b55780601f1061178a576101008083540402835291602001916117b5565b820191906000526020600020905b81548152906001019060200180831161179857829003601f168201915b505050505081526020016001820160009054906101000a900473ffffffffffffffffffffffffffffffffffffffff1673ffffffffffffffffffffffffffffffffffffffff1673ffffffffffffffffffffffffffffffffffffffff16815260200160028201805480602002602001604051908101604052809291908181526020016000905b828210156118e55783829060005260206000200180546118589061309e565b80601f01602080910402602001604051908101604052809291908181526020018280546118849061309e565b80156118d15780601f106118a6576101008083540402835291602001916118d1565b820191906000526020600020905b8154815290600101906020018083116118b457829003601f168201915b505050505081526020019060010190611839565b50505050815260200160038201548152505090508084848151811061190d5761190c6131ad565b5b602002602001018190525050508080600101915050611693565b508091505090565b6000604051806080016040528086868080601f016020809104026020016040519081016040528093929190818152602001838380828437600081840152601f19601f8201169050808301925050505050505081526020013373ffffffffffffffffffffffffffffffffffffffff1681526020018484906119af91906136f0565b81526020016000815250905080600560003373ffffffffffffffffffffffffffffffffffffffff1673ffffffffffffffffffffffffffffffffffffffff1681526020019081526020016000206000820151816000019081611a109190613473565b5060208201518160010160006101000a81548173ffffffffffffffffffffffffffffffffffffffff021916908373ffffffffffffffffffffffffffffffffffffffff1602179055506040820151816002019080519060200190611a74929190611c36565b50606082015181600301559050506007339080600181540180825580915050600190039060005260206000200160009091909190916101000a81548173ffffffffffffffffffffffffffffffffffffffff021916908373ffffffffffffffffffffffffffffffffffffffff160217905550600160066000828254611af8919061329d565b925050819055505050505050565b6005602052806000526040600020600091509050806000018054611b299061309e565b80601f0160208091040260200160405190810160405280929190818152602001828054611b559061309e565b8015611ba25780601f10611b7757610100808354040283529160200191611ba2565b820191906000526020600020905b815481529060010190602001808311611b8557829003601f168201915b5050505050908060010160009054906101000a900473ffffffffffffffffffffffffffffffffffffffff16908060030154905083565b6040518060c00160405280600073ffffffffffffffffffffffffffffffffffffffff1681526020016000815260200160008152602001600081526020016060815260200160006003811115611c3057611c2f611fbd565b5b81525090565b828054828255906000526020600020908101928215611c7e579160200282015b82811115611c7d578251829081611c6d9190613473565b5091602001919060010190611c56565b5b509050611c8b9190611ccd565b5090565b604051806080016040528060608152602001600073ffffffffffffffffffffffffffffffffffffffff16815260200160608152602001600081525090565b5b80821115611ced5760008181611ce49190611cf1565b50600101611cce565b5090565b508054611cfd9061309e565b6000825580601f10611d0f5750611d2e565b601f016020900490600052602060002090810190611d2d9190611d31565b5b50565b5b80821115611d4a576000816000905550600101611d32565b5090565b6000604051905090565b600080fd5b600080fd5b600073ffffffffffffffffffffffffffffffffffffffff82169050919050565b6000611d8d82611d62565b9050919050565b611d9d81611d82565b8114611da857600080fd5b50565b600081359050611dba81611d94565b92915050565b600060208284031215611dd657611dd5611d58565b5b6000611de484828501611dab565b91505092915050565b6000819050919050565b611e0081611ded565b82525050565b6000602082019050611e1b6000830184611df7565b92915050565b600081519050919050565b600082825260208201905092915050565b6000819050602082019050919050565b611e5681611d82565b82525050565b611e6581611ded565b82525050565b600081519050919050565b600082825260208201905092915050565b6000819050602082019050919050565b600081519050919050565b600082825260208201905092915050565b60005b83811015611ed1578082015181840152602081019050611eb6565b60008484015250505050565b6000601f19601f8301169050919050565b6000611ef982611e97565b611f038185611ea2565b9350611f13818560208601611eb3565b611f1c81611edd565b840191505092915050565b6000611f338383611eee565b905092915050565b6000602082019050919050565b6000611f5382611e6b565b611f5d8185611e76565b935083602082028501611f6f85611e87565b8060005b85811015611fab5784840389528151611f8c8582611f27565b9450611f9783611f3b565b925060208a01995050600181019050611f73565b50829750879550505050505092915050565b7f4e487b7100000000000000000000000000000000000000000000000000000000600052602160045260246000fd5b60048110611ffd57611ffc611fbd565b5b50565b600081905061200e82611fec565b919050565b600061201e82612000565b9050919050565b61202e81612013565b82525050565b600060c08301600083015161204c6000860182611e4d565b50602083015161205f6020860182611e5c565b5060408301516120726040860182611e5c565b5060608301516120856060860182611e5c565b506080830151848203608086015261209d8282611f48565b91505060a08301516120b260a0860182612025565b508091505092915050565b60006120c98383612034565b905092915050565b6000602082019050919050565b60006120e982611e21565b6120f38185611e2c565b93508360208202850161210585611e3d565b8060005b85811015612141578484038952815161212285826120bd565b945061212d836120d1565b925060208a01995050600181019050612109565b50829750879550505050505092915050565b6000602082019050818103600083015261216d81846120de565b905092915050565b61217e81611ded565b811461218957600080fd5b50565b60008135905061219b81612175565b92915050565b6000602082840312156121b7576121b6611d58565b5b60006121c58482850161218c565b91505092915050565b600060c0830160008301516121e66000860182611e4d565b5060208301516121f96020860182611e5c565b50604083015161220c6040860182611e5c565b50606083015161221f6060860182611e5c565b50608083015184820360808601526122378282611f48565b91505060a083015161224c60a0860182612025565b508091505092915050565b6000602082019050818103600083015261227181846121ce565b905092915050565b6004811061228657600080fd5b50565b60008135905061229881612279565b92915050565b600080604083850312156122b5576122b4611d58565b5b60006122c38582860161218c565b92505060206122d485828601612289565b9150509250929050565b600080fd5b7f4e487b7100000000000000000000000000000000000000000000000000000000600052604160045260246000fd5b61231b82611edd565b810181811067ffffffffffffffff8211171561233a576123396122e3565b5b80604052505050565b600061234d611d4e565b90506123598282612312565b919050565b600080fd5b600080fd5b600080fd5b600067ffffffffffffffff821115612388576123876122e3565b5b61239182611edd565b9050602081019050919050565b82818337600083830152505050565b60006123c06123bb8461236d565b612343565b9050828152602081018484840111156123dc576123db612368565b5b6123e784828561239e565b509392505050565b600082601f83011261240457612403612363565b5b81356124148482602086016123ad565b91505092915050565b60006101408284031215612434576124336122de565b5b61243f610140612343565b9050600061244f8482850161218c565b60008301525060206124638482850161218c565b60208301525060406124778482850161218c565b604083015250606061248b8482850161218c565b606083015250608082013567ffffffffffffffff8111156124af576124ae61235e565b5b6124bb848285016123ef565b60808301525060a06124cf8482850161218c565b60a08301525060c06124e38482850161218c565b60c08301525060e06124f78482850161218c565b60e08301525061010061250c8482850161218c565b610100830152506101206125228482850161218c565b6101208301525092915050565b60006020828403121561254557612544611d58565b5b600082013567ffffffffffffffff81111561256357612562611d5d565b5b61256f8482850161241d565b91505092915050565b6000806040838503121561258f5761258e611d58565b5b600061259d85828601611dab565b92505060206125ae8582860161218c565b9150509250929050565b600082825260208201905092915050565b60006125d482611e97565b6125de81856125b8565b93506125ee818560208601611eb3565b6125f781611edd565b840191505092915050565b600061014082019050612618600083018d611df7565b612625602083018c611df7565b612632604083018b611df7565b61263f606083018a611df7565b818103608083015261265181896125c9565b905061266060a0830188611df7565b61266d60c0830187611df7565b61267a60e0830186611df7565b612688610100830185611df7565b612696610120830184611df7565b9b9a5050505050505050505050565b600080fd5b600080fd5b60008083601f8401126126c5576126c4612363565b5b8235905067ffffffffffffffff8111156126e2576126e16126a5565b5b6020830191508360018202830111156126fe576126fd6126aa565b5b9250929050565b60008060006040848603121561271e5761271d611d58565b5b600061272c8682870161218c565b935050602084013567ffffffffffffffff81111561274d5761274c611d5d565b5b612759868287016126af565b92509250509250925092565b600067ffffffffffffffff8211156127805761277f6122e3565b5b602082029050602081019050919050565b60006127a461279f84612765565b612343565b905080838252602082019050602084028301858111156127c7576127c66126aa565b5b835b8181101561280e57803567ffffffffffffffff8111156127ec576127eb612363565b5b8086016127f989826123ef565b855260208501945050506020810190506127c9565b5050509392505050565b600082601f83011261282d5761282c612363565b5b813561283d848260208601612791565b91505092915050565b600060c0828403121561285c5761285b6122de565b5b61286660c0612343565b9050600061287684828501611dab565b600083015250602061288a8482850161218c565b602083015250604061289e8482850161218c565b60408301525060606128b28482850161218c565b606083015250608082013567ffffffffffffffff8111156128d6576128d561235e565b5b6128e284828501612818565b60808301525060a06128f684828501612289565b60a08301525092915050565b60006020828403121561291857612917611d58565b5b600082013567ffffffffffffffff81111561293657612935611d5d565b5b61294284828501612846565b91505092915050565b600067ffffffffffffffff82169050919050565b6129688161294b565b811461297357600080fd5b50565b6000813590506129858161295f565b92915050565b600080600080600060a086880312156129a7576129a6611d58565b5b60006129b58882890161218c565b95505060206129c688828901612976565b94505060406129d788828901612976565b93505060606129e888828901612976565b925050608086013567ffffffffffffffff811115612a0957612a08611d5d565b5b612a1588828901612818565b9150509295509295909350565b600081519050919050565b600082825260208201905092915050565b6000819050602082019050919050565b600061014083016000830151612a676000860182611e5c565b506020830151612a7a6020860182611e5c565b506040830151612a8d6040860182611e5c565b506060830151612aa06060860182611e5c565b5060808301518482036080860152612ab88282611eee565b91505060a0830151612acd60a0860182611e5c565b5060c0830151612ae060c0860182611e5c565b5060e0830151612af360e0860182611e5c565b50610100830151612b08610100860182611e5c565b50610120830151612b1d610120860182611e5c565b508091505092915050565b6000612b348383612a4e565b905092915050565b6000602082019050919050565b6000612b5482612a22565b612b5e8185612a2d565b935083602082028501612b7085612a3e565b8060005b85811015612bac5784840389528151612b8d8582612b28565b9450612b9883612b3c565b925060208a01995050600181019050612b74565b50829750879550505050505092915050565b60006020820190508181036000830152612bd88184612b49565b905092915050565b612be981611d82565b82525050565b6000602082019050612c046000830184612be0565b92915050565b60006080830160008301518482036000860152612c278282611eee565b9150506020830151612c3c6020860182611e4d565b5060408301518482036040860152612c548282611f48565b9150506060830151612c696060860182611e5c565b508091505092915050565b60006020820190508181036000830152612c8e8184612c0a565b905092915050565b600081519050919050565b600082825260208201905092915050565b6000819050602082019050919050565b60006080830160008301518482036000860152612cdf8282611eee565b9150506020830151612cf46020860182611e4d565b5060408301518482036040860152612d0c8282611f48565b9150506060830151612d216060860182611e5c565b508091505092915050565b6000612d388383612cc2565b905092915050565b6000602082019050919050565b6000612d5882612c96565b612d628185612ca1565b935083602082028501612d7485612cb2565b8060005b85811015612db05784840389528151612d918582612d2c565b9450612d9c83612d40565b925060208a01995050600181019050612d78565b50829750879550505050505092915050565b60006020820190508181036000830152612ddc8184612d4d565b905092915050565b60008083601f840112612dfa57612df9612363565b5b8235905067ffffffffffffffff811115612e1757612e166126a5565b5b602083019150836020820283011115612e3357612e326126aa565b5b9250929050565b60008060008060408587031215612e5457612e53611d58565b5b600085013567ffffffffffffffff811115612e7257612e71611d5d565b5b612e7e878288016126af565b9450945050602085013567ffffffffffffffff811115612ea157612ea0611d5d565b5b612ead87828801612de4565b925092505092959194509250565b60006060820190508181036000830152612ed581866125c9565b9050612ee46020830185612be0565b612ef16040830184611df7565b949350505050565b7f6e6f74206f776e65720000000000000000000000000000000000000000000000600082015250565b6000612f2f6009836125b8565b9150612f3a82612ef9565b602082019050919050565b60006020820190508181036000830152612f5e81612f22565b9050919050565b6000819050919050565b6000819050919050565b6000612f94612f8f612f8a84612f65565b612f6f565b611ded565b9050919050565b612fa481612f79565b82525050565b6000604082019050612fbf6000830185612be0565b612fcc6020830184612f9b565b9392505050565b60008115159050919050565b612fe881612fd3565b8114612ff357600080fd5b50565b60008151905061300581612fdf565b92915050565b60006020828403121561302157613020611d58565b5b600061302f84828501612ff6565b91505092915050565b600060608201905061304d6000830186612be0565b61305a6020830185612be0565b6130676040830184611df7565b949350505050565b7f4e487b7100000000000000000000000000000000000000000000000000000000600052602260045260246000fd5b600060028204905060018216806130b657607f821691505b6020821081036130c9576130c861306f565b5b50919050565b7f696e646578206f7574206f662072616e67650000000000000000000000000000600082015250565b60006131056012836125b8565b9150613110826130cf565b602082019050919050565b60006020820190508181036000830152613134816130f8565b9050919050565b6000819050919050565b600061316061315b6131568461313b565b612f6f565b611ded565b9050919050565b61317081613145565b82525050565b600060608201905061318b6000830186612be0565b6131986020830185612be0565b6131a56040830184613167565b949350505050565b7f4e487b7100000000000000000000000000000000000000000000000000000000600052603260045260246000fd5b7f75736572206973206e6f7420612076616c696461746f722c20706c656173652060008201527f7265676973746572000000000000000000000000000000000000000000000000602082015250565b60006132386028836125b8565b9150613243826131dc565b604082019050919050565b600060208201905081810360008301526132678161322b565b9050919050565b7f4e487b7100000000000000000000000000000000000000000000000000000000600052601160045260246000fd5b60006132a882611ded565b91506132b383611ded565b92508282019050808211156132cb576132ca61326e565b5b92915050565b60008190508160005260206000209050919050565b60006020601f8301049050919050565b600082821b905092915050565b6000600883026133337fffffffffffffffffffffffffffffffffffffffffffffffffffffffffffffffff826132f6565b61333d86836132f6565b95508019841693508086168417925050509392505050565b600061337061336b61336684611ded565b612f6f565b611ded565b9050919050565b6000819050919050565b61338a83613355565b61339e61339682613377565b848454613303565b825550505050565b600090565b6133b36133a6565b6133be818484613381565b505050565b5b818110156133e2576133d76000826133ab565b6001810190506133c4565b5050565b601f821115613427576133f8816132d1565b613401846132e6565b81016020851015613410578190505b61342461341c856132e6565b8301826133c3565b50505b505050565b600082821c905092915050565b600061344a6000198460080261342c565b1980831691505092915050565b60006134638383613439565b9150826002028217905092915050565b61347c82611e97565b67ffffffffffffffff811115613495576134946122e3565b5b61349f825461309e565b6134aa8282856133e6565b600060209050601f8311600181146134dd57600084156134cb578287015190505b6134d58582613457565b86555061353d565b601f1984166134eb866132d1565b60005b82811015613513578489015182556001820191506020850194506020810190506134ee565b86831015613530578489015161352c601f891682613439565b8355505b6001600288020188555050505b505050505050565b6000819050919050565b600061356a61356561356084613545565b612f6f565b611ded565b9050919050565b61357a8161354f565b82525050565b60006040820190506135956000830185612be0565b6135a26020830184613571565b9392505050565b600082905092915050565b6135be83836135a9565b67ffffffffffffffff8111156135d7576135d66122e3565b5b6135e1825461309e565b6135ec8282856133e6565b6000601f83116001811461361b5760008415613609578287013590505b6136138582613457565b86555061367b565b601f198416613629866132d1565b60005b828110156136515784890135825560018201915060208501945060208101905061362c565b8683101561366e578489013561366a601f891682613439565b8355505b6001600288020188555050505b50505050505050565b7f696e76616c696420696400000000000000000000000000000000000000000000600082015250565b60006136ba600a836125b8565b91506136c582613684565b602082019050919050565b600060208201905081810360008301526136e9816136ad565b9050919050565b60006136fd368484612791565b90509291505056fea2646970667358221220b0bc6b96c962e80e3b549604912434235a790b82cc2b7bea6305c9178c9ff66364736f6c63430008180033",
  "linkReferences": {},
  "deployedLinkReferences": {}
}