{
  "_format": "hh-sol-artifact-1",
  "contractName": "TrafficData",
  "sourceName": "contracts/TrafficData.sol",
  "abi": [
    {
      "anonymous": false,
      "inputs": [
        {
          "indexed": true,
          "internalType": "uint256",
          "name": "index",
          "type": "uint256"
        }
      ],
      "name": "NewTrafficLightRegister",
      "type": "event"
    },
    {
      "inputs": [],
      "name": "LLA_DECIMAL",
      "outputs": [
        {
          "internalType": "uint256",
          "name": "",
          "type": "uint256"
        }
      ],
      "stateMutability": "view",
      "type": "function"
    },
    {
      "inputs": [
        {
          "internalType": "uint256",
          "name": "id",
          "type": "uint256"
        },
        {
          "internalType": "string",
          "name": "imageUri",
          "type": "string"
        }
      ],
      "name": "addImages",
      "outputs": [],
      "stateMutability": "nonpayable",
      "type": "function"
    },
    {
      "inputs": [],
      "name": "getAllValidators",
      "outputs": [
        {
          "components": [
            {
              "internalType": "string",
              "name": "name",
              "type": "string"
            },
            {
              "internalType": "address",
              "name": "owner",
              "type": "address"
            },
            {
              "internalType": "string[]",
              "name": "supportedModels",
              "type": "string[]"
            },
            {
              "internalType": "uint256",
              "name": "validatedCount",
              "type": "uint256"
            }
          ],
          "internalType": "struct TrafficData.ValidatorMetadata[]",
          "name": "",
          "type": "tuple[]"
        }
      ],
      "stateMutability": "view",
      "type": "function"
    },
    {
      "inputs": [],
      "name": "getIndex",
      "outputs": [
        {
          "internalType": "uint256",
          "name": "",
          "type": "uint256"
        }
      ],
      "stateMutability": "view",
      "type": "function"
    },
    {
      "inputs": [
        {
          "internalType": "uint256",
          "name": "index",
          "type": "uint256"
        }
      ],
      "name": "getTrafficLightByIndex",
      "outputs": [
        {
          "components": [
            {
              "internalType": "address",
              "name": "owner",
              "type": "address"
            },
            {
              "internalType": "uint256",
              "name": "lat",
              "type": "uint256"
            },
            {
              "internalType": "uint256",
              "name": "lng",
              "type": "uint256"
            },
            {
              "internalType": "uint256",
              "name": "orientation",
              "type": "uint256"
            },
            {
              "internalType": "string[]",
              "name": "uri",
              "type": "string[]"
            },
            {
              "internalType": "enum TrafficData.TrafficLightValidationStatus",
              "name": "validationStatus",
              "type": "uint8"
            }
          ],
          "internalType": "struct TrafficData.TrafficLight",
          "name": "",
          "type": "tuple"
        }
      ],
      "stateMutability": "view",
      "type": "function"
    },
    {
      "inputs": [],
      "name": "getTrafficLights",
      "outputs": [
        {
          "components": [
            {
              "internalType": "address",
              "name": "owner",
              "type": "address"
            },
            {
              "internalType": "uint256",
              "name": "lat",
              "type": "uint256"
            },
            {
              "internalType": "uint256",
              "name": "lng",
              "type": "uint256"
            },
            {
              "internalType": "uint256",
              "name": "orientation",
              "type": "uint256"
            },
            {
              "internalType": "string[]",
              "name": "uri",
              "type": "string[]"
            },
            {
              "internalType": "enum TrafficData.TrafficLightValidationStatus",
              "name": "validationStatus",
              "type": "uint8"
            }
          ],
          "internalType": "struct TrafficData.TrafficLight[]",
          "name": "",
          "type": "tuple[]"
        }
      ],
      "stateMutability": "view",
      "type": "function"
    },
    {
      "inputs": [
        {
          "internalType": "address",
          "name": "validator",
          "type": "address"
        }
      ],
      "name": "getValidatorMetadata",
      "outputs": [
        {
          "components": [
            {
              "internalType": "string",
              "name": "name",
              "type": "string"
            },
            {
              "internalType": "address",
              "name": "owner",
              "type": "address"
            },
            {
              "internalType": "string[]",
              "name": "supportedModels",
              "type": "string[]"
            },
            {
              "internalType": "uint256",
              "name": "validatedCount",
              "type": "uint256"
            }
          ],
          "internalType": "struct TrafficData.ValidatorMetadata",
          "name": "",
          "type": "tuple"
        }
      ],
      "stateMutability": "view",
      "type": "function"
    },
    {
      "inputs": [
        {
          "components": [
            {
              "internalType": "address",
              "name": "owner",
              "type": "address"
            },
            {
              "internalType": "uint256",
              "name": "lat",
              "type": "uint256"
            },
            {
              "internalType": "uint256",
              "name": "lng",
              "type": "uint256"
            },
            {
              "internalType": "uint256",
              "name": "orientation",
              "type": "uint256"
            },
            {
              "internalType": "string[]",
              "name": "uri",
              "type": "string[]"
            },
            {
              "internalType": "enum TrafficData.TrafficLightValidationStatus",
              "name": "validationStatus",
              "type": "uint8"
            }
          ],
          "internalType": "struct TrafficData.TrafficLight",
          "name": "input",
          "type": "tuple"
        }
      ],
      "name": "registerTrafficLight",
      "outputs": [],
      "stateMutability": "nonpayable",
      "type": "function"
    },
    {
      "inputs": [
        {
          "internalType": "string",
          "name": "name",
          "type": "string"
        },
        {
          "internalType": "string[]",
          "name": "supportedModels",
          "type": "string[]"
        }
      ],
      "name": "registerValidator",
      "outputs": [],
      "stateMutability": "nonpayable",
      "type": "function"
    },
    {
      "inputs": [
        {
          "internalType": "uint256",
          "name": "",
          "type": "uint256"
        }
      ],
      "name": "trafficLights",
      "outputs": [
        {
          "internalType": "address",
          "name": "owner",
          "type": "address"
        },
        {
          "internalType": "uint256",
          "name": "lat",
          "type": "uint256"
        },
        {
          "internalType": "uint256",
          "name": "lng",
          "type": "uint256"
        },
        {
          "internalType": "uint256",
          "name": "orientation",
          "type": "uint256"
        },
        {
          "internalType": "enum TrafficData.TrafficLightValidationStatus",
          "name": "validationStatus",
          "type": "uint8"
        }
      ],
      "stateMutability": "view",
      "type": "function"
    },
    {
      "inputs": [],
      "name": "trafficLightsIndex",
      "outputs": [
        {
          "internalType": "uint256",
          "name": "",
          "type": "uint256"
        }
      ],
      "stateMutability": "view",
      "type": "function"
    },
    {
      "inputs": [
        {
          "internalType": "uint256",
          "name": "id",
          "type": "uint256"
        },
        {
          "internalType": "uint64",
          "name": "lat",
          "type": "uint64"
        },
        {
          "internalType": "uint64",
          "name": "lng",
          "type": "uint64"
        },
        {
          "internalType": "uint64",
          "name": "orientation",
          "type": "uint64"
        },
        {
          "internalType": "string[]",
          "name": "uri",
          "type": "string[]"
        }
      ],
      "name": "updateTrafficLight",
      "outputs": [],
      "stateMutability": "nonpayable",
      "type": "function"
    },
    {
      "inputs": [
        {
          "internalType": "uint256",
          "name": "id",
          "type": "uint256"
        },
        {
          "internalType": "enum TrafficData.TrafficLightValidationStatus",
          "name": "validationStatus",
          "type": "uint8"
        }
      ],
      "name": "updateValidationStatus",
      "outputs": [],
      "stateMutability": "nonpayable",
      "type": "function"
    },
    {
      "inputs": [],
      "name": "validatorIndex",
      "outputs": [
        {
          "internalType": "uint256",
          "name": "",
          "type": "uint256"
        }
      ],
      "stateMutability": "view",
      "type": "function"
    },
    {
      "inputs": [
        {
          "internalType": "address",
          "name": "",
          "type": "address"
        }
      ],
      "name": "validators",
      "outputs": [
        {
          "internalType": "string",
          "name": "name",
          "type": "string"
        },
        {
          "internalType": "address",
          "name": "owner",
          "type": "address"
        },
        {
          "internalType": "uint256",
          "name": "validatedCount",
          "type": "uint256"
        }
      ],
      "stateMutability": "view",
      "type": "function"
    },
    {
      "inputs": [
        {
          "internalType": "uint256",
          "name": "",
          "type": "uint256"
        }
      ],
      "name": "validatorsAddresses",
      "outputs": [
        {
          "internalType": "address",
          "name": "",
          "type": "address"
        }
      ],
      "stateMutability": "view",
      "type": "function"
    }
  ],
  "bytecode": "0x608060405260008055600060035534801561001957600080fd5b506129db806100296000396000f3fe608060405234801561001057600080fd5b50600436106101005760003560e01c80639f973e7d11610097578063ed71718411610066578063ed7171841461029f578063f3513a37146102cf578063f9322741146102ed578063fa52c7d81461030957610100565b80639f973e7d14610219578063a114251514610235578063a1bf49aa14610251578063b363c6c21461026f57610100565b80636ddf30c4116100d35780636ddf30c41461018d57806381045ead146101ab5780638dc87e4d146101c9578063956a678b146101e557610100565b80631c4bc0be146101055780632cc2e41e146101235780636219d0a9146101415780636957210e14610171575b600080fd5b61010d61033b565b60405161011a91906115e3565b60405180910390f35b61012b610340565b6040516101389190611962565b60405180910390f35b61015b600480360381019061015691906119c4565b610527565b6040516101689190611a7a565b60405180910390f35b61018b60048036038101906101869190611ac1565b61072f565b005b6101956108aa565b6040516101a291906115e3565b60405180910390f35b6101b36108b0565b6040516101c091906115e3565b60405180910390f35b6101e360048036038101906101de9190611b66565b6108b9565b005b6101ff60048036038101906101fa91906119c4565b61091f565b604051610210959493929190611be4565b60405180910390f35b610233600480360381019061022e9190611f3a565b610992565b005b61024f600480360381019061024a9190611fc3565b610b26565b005b610259610c47565b60405161026691906115e3565b60405180910390f35b610289600480360381019061028491906119c4565b610c4d565b604051610296919061205a565b60405180910390f35b6102b960048036038101906102b49190612075565b610c8c565b6040516102c6919061210c565b60405180910390f35b6102d7610eb0565b6040516102e4919061225a565b60405180910390f35b610307600480360381019061030291906122d2565b6111ab565b005b610323600480360381019061031e9190612075565b611382565b6040516103329392919061239d565b60405180910390f35b600681565b60606001805480602002602001604051908101604052809291908181526020016000905b8282101561051e57838290600052602060002090600602016040518060c00160405290816000820160009054906101000a900473ffffffffffffffffffffffffffffffffffffffff1673ffffffffffffffffffffffffffffffffffffffff1673ffffffffffffffffffffffffffffffffffffffff16815260200160018201548152602001600282015481526020016003820154815260200160048201805480602002602001604051908101604052809291908181526020016000905b828210156104cc57838290600052602060002001805461043f9061240a565b80601f016020809104026020016040519081016040528092919081815260200182805461046b9061240a565b80156104b85780601f1061048d576101008083540402835291602001916104b8565b820191906000526020600020905b81548152906001019060200180831161049b57829003601f168201915b505050505081526020019060010190610420565b5050505081526020016005820160009054906101000a900460ff1660038111156104f9576104f86117cc565b5b600381111561050b5761050a6117cc565b5b8152505081526020019060010190610364565b50505050905090565b61052f611454565b8160005411610573576040517f08c379a000000000000000000000000000000000000000000000000000000000815260040161056a90612487565b60405180910390fd5b60018281548110610587576105866124a7565b5b90600052602060002090600602016040518060c00160405290816000820160009054906101000a900473ffffffffffffffffffffffffffffffffffffffff1673ffffffffffffffffffffffffffffffffffffffff1673ffffffffffffffffffffffffffffffffffffffff16815260200160018201548152602001600282015481526020016003820154815260200160048201805480602002602001604051908101604052809291908181526020016000905b828210156106e55783829060005260206000200180546106589061240a565b80601f01602080910402602001604051908101604052809291908181526020018280546106849061240a565b80156106d15780601f106106a6576101008083540402835291602001916106d1565b820191906000526020600020905b8154815290600101906020018083116106b457829003601f168201915b505050505081526020019060010190610639565b5050505081526020016005820160009054906101000a900460ff166003811115610712576107116117cc565b5b6003811115610724576107236117cc565b5b815250509050919050565b3373ffffffffffffffffffffffffffffffffffffffff16600260003373ffffffffffffffffffffffffffffffffffffffff1673ffffffffffffffffffffffffffffffffffffffff16815260200190815260200160002060010160009054906101000a900473ffffffffffffffffffffffffffffffffffffffff1673ffffffffffffffffffffffffffffffffffffffff16146107ff576040517f08c379a00000000000000000000000000000000000000000000000000000000081526004016107f690612548565b60405180910390fd5b6001600260003373ffffffffffffffffffffffffffffffffffffffff1673ffffffffffffffffffffffffffffffffffffffff16815260200190815260200160002060030160008282546108529190612597565b92505081905550806001838154811061086e5761086d6124a7565b5b906000526020600020906006020160050160006101000a81548160ff021916908360038111156108a1576108a06117cc565b5b02179055505050565b60005481565b60008054905090565b600183815481106108cd576108cc6124a7565b5b9060005260206000209060060201600401828290918060018154018082558091505060019003906000526020600020016000909192909192909192909192509182610919929190612782565b50505050565b6001818154811061092f57600080fd5b90600052602060002090600602016000915090508060000160009054906101000a900473ffffffffffffffffffffffffffffffffffffffff16908060010154908060020154908060030154908060050160009054906101000a900460ff16905085565b33816000019073ffffffffffffffffffffffffffffffffffffffff16908173ffffffffffffffffffffffffffffffffffffffff168152505060008160a0019060038111156109e3576109e26117cc565b5b908160038111156109f7576109f66117cc565b5b81525050600181908060018154018082558091505060019003906000526020600020906006020160009091909190915060008201518160000160006101000a81548173ffffffffffffffffffffffffffffffffffffffff021916908373ffffffffffffffffffffffffffffffffffffffff1602179055506020820151816001015560408201518160020155606082015181600301556080820151816004019080519060200190610aa89291906114b2565b5060a08201518160050160006101000a81548160ff02191690836003811115610ad457610ad36117cc565b5b021790555050506000547f4046cd0d5427a1a3a70a3453f8a6114979200006ef5fba493a840ce915c612b360405160405180910390a26001600080828254610b1c9190612597565b9250508190555050565b6000548510610b6a576040517f08c379a0000000000000000000000000000000000000000000000000000000008152600401610b619061289e565b60405180910390fd5b8367ffffffffffffffff1660018681548110610b8957610b886124a7565b5b9060005260206000209060060201600101819055508267ffffffffffffffff1660018681548110610bbd57610bbc6124a7565b5b9060005260206000209060060201600201819055508167ffffffffffffffff1660018681548110610bf157610bf06124a7565b5b9060005260206000209060060201600301819055508060018681548110610c1b57610c1a6124a7565b5b90600052602060002090600602016004019080519060200190610c3f9291906114b2565b505050505050565b60035481565b60048181548110610c5d57600080fd5b906000526020600020016000915054906101000a900473ffffffffffffffffffffffffffffffffffffffff1681565b610c9461150b565b600260008373ffffffffffffffffffffffffffffffffffffffff1673ffffffffffffffffffffffffffffffffffffffff168152602001908152602001600020604051806080016040529081600082018054610cee9061240a565b80601f0160208091040260200160405190810160405280929190818152602001828054610d1a9061240a565b8015610d675780601f10610d3c57610100808354040283529160200191610d67565b820191906000526020600020905b815481529060010190602001808311610d4a57829003601f168201915b505050505081526020016001820160009054906101000a900473ffffffffffffffffffffffffffffffffffffffff1673ffffffffffffffffffffffffffffffffffffffff1673ffffffffffffffffffffffffffffffffffffffff16815260200160028201805480602002602001604051908101604052809291908181526020016000905b82821015610e97578382906000526020600020018054610e0a9061240a565b80601f0160208091040260200160405190810160405280929190818152602001828054610e369061240a565b8015610e835780601f10610e5857610100808354040283529160200191610e83565b820191906000526020600020905b815481529060010190602001808311610e6657829003601f168201915b505050505081526020019060010190610deb565b5050505081526020016003820154815250509050919050565b6060600060035467ffffffffffffffff811115610ed057610ecf611c3c565b5b604051908082528060200260200182016040528015610f0957816020015b610ef661150b565b815260200190600190039081610eee5790505b50905060005b6003548110156111a357600060048281548110610f2f57610f2e6124a7565b5b9060005260206000200160009054906101000a900473ffffffffffffffffffffffffffffffffffffffff1690506000600260008373ffffffffffffffffffffffffffffffffffffffff1673ffffffffffffffffffffffffffffffffffffffff168152602001908152602001600020604051806080016040529081600082018054610fb89061240a565b80601f0160208091040260200160405190810160405280929190818152602001828054610fe49061240a565b80156110315780601f1061100657610100808354040283529160200191611031565b820191906000526020600020905b81548152906001019060200180831161101457829003601f168201915b505050505081526020016001820160009054906101000a900473ffffffffffffffffffffffffffffffffffffffff1673ffffffffffffffffffffffffffffffffffffffff1673ffffffffffffffffffffffffffffffffffffffff16815260200160028201805480602002602001604051908101604052809291908181526020016000905b828210156111615783829060005260206000200180546110d49061240a565b80601f01602080910402602001604051908101604052809291908181526020018280546111009061240a565b801561114d5780601f106111225761010080835404028352916020019161114d565b820191906000526020600020905b81548152906001019060200180831161113057829003601f168201915b5050505050815260200190600101906110b5565b505050508152602001600382015481525050905080848481518110611189576111886124a7565b5b602002602001018190525050508080600101915050610f0f565b508091505090565b6000604051806080016040528086868080601f016020809104026020016040519081016040528093929190818152602001838380828437600081840152601f19601f8201169050808301925050505050505081526020013373ffffffffffffffffffffffffffffffffffffffff16815260200184849061122b91906128be565b81526020016000815250905080600260003373ffffffffffffffffffffffffffffffffffffffff1673ffffffffffffffffffffffffffffffffffffffff168152602001908152602001600020600082015181600001908161128c91906128d3565b5060208201518160010160006101000a81548173ffffffffffffffffffffffffffffffffffffffff021916908373ffffffffffffffffffffffffffffffffffffffff16021790555060408201518160020190805190602001906112f09291906114b2565b50606082015181600301559050506004339080600181540180825580915050600190039060005260206000200160009091909190916101000a81548173ffffffffffffffffffffffffffffffffffffffff021916908373ffffffffffffffffffffffffffffffffffffffff1602179055506001600360008282546113749190612597565b925050819055505050505050565b60026020528060005260406000206000915090508060000180546113a59061240a565b80601f01602080910402602001604051908101604052809291908181526020018280546113d19061240a565b801561141e5780601f106113f35761010080835404028352916020019161141e565b820191906000526020600020905b81548152906001019060200180831161140157829003601f168201915b5050505050908060010160009054906101000a900473ffffffffffffffffffffffffffffffffffffffff16908060030154905083565b6040518060c00160405280600073ffffffffffffffffffffffffffffffffffffffff16815260200160008152602001600081526020016000815260200160608152602001600060038111156114ac576114ab6117cc565b5b81525090565b8280548282559060005260206000209081019282156114fa579160200282015b828111156114f95782518290816114e991906128d3565b50916020019190600101906114d2565b5b5090506115079190611549565b5090565b604051806080016040528060608152602001600073ffffffffffffffffffffffffffffffffffffffff16815260200160608152602001600081525090565b5b808211156115695760008181611560919061156d565b5060010161154a565b5090565b5080546115799061240a565b6000825580601f1061158b57506115aa565b601f0160209004906000526020600020908101906115a991906115ad565b5b50565b5b808211156115c65760008160009055506001016115ae565b5090565b6000819050919050565b6115dd816115ca565b82525050565b60006020820190506115f860008301846115d4565b92915050565b600081519050919050565b600082825260208201905092915050565b6000819050602082019050919050565b600073ffffffffffffffffffffffffffffffffffffffff82169050919050565b60006116558261162a565b9050919050565b6116658161164a565b82525050565b611674816115ca565b82525050565b600081519050919050565b600082825260208201905092915050565b6000819050602082019050919050565b600081519050919050565b600082825260208201905092915050565b60005b838110156116e05780820151818401526020810190506116c5565b60008484015250505050565b6000601f19601f8301169050919050565b6000611708826116a6565b61171281856116b1565b93506117228185602086016116c2565b61172b816116ec565b840191505092915050565b600061174283836116fd565b905092915050565b6000602082019050919050565b60006117628261167a565b61176c8185611685565b93508360208202850161177e85611696565b8060005b858110156117ba578484038952815161179b8582611736565b94506117a68361174a565b925060208a01995050600181019050611782565b50829750879550505050505092915050565b7f4e487b7100000000000000000000000000000000000000000000000000000000600052602160045260246000fd5b6004811061180c5761180b6117cc565b5b50565b600081905061181d826117fb565b919050565b600061182d8261180f565b9050919050565b61183d81611822565b82525050565b600060c08301600083015161185b600086018261165c565b50602083015161186e602086018261166b565b506040830151611881604086018261166b565b506060830151611894606086018261166b565b50608083015184820360808601526118ac8282611757565b91505060a08301516118c160a0860182611834565b508091505092915050565b60006118d88383611843565b905092915050565b6000602082019050919050565b60006118f8826115fe565b6119028185611609565b9350836020820285016119148561161a565b8060005b85811015611950578484038952815161193185826118cc565b945061193c836118e0565b925060208a01995050600181019050611918565b50829750879550505050505092915050565b6000602082019050818103600083015261197c81846118ed565b905092915050565b6000604051905090565b600080fd5b600080fd5b6119a1816115ca565b81146119ac57600080fd5b50565b6000813590506119be81611998565b92915050565b6000602082840312156119da576119d961198e565b5b60006119e8848285016119af565b91505092915050565b600060c083016000830151611a09600086018261165c565b506020830151611a1c602086018261166b565b506040830151611a2f604086018261166b565b506060830151611a42606086018261166b565b5060808301518482036080860152611a5a8282611757565b91505060a0830151611a6f60a0860182611834565b508091505092915050565b60006020820190508181036000830152611a9481846119f1565b905092915050565b60048110611aa957600080fd5b50565b600081359050611abb81611a9c565b92915050565b60008060408385031215611ad857611ad761198e565b5b6000611ae6858286016119af565b9250506020611af785828601611aac565b9150509250929050565b600080fd5b600080fd5b600080fd5b60008083601f840112611b2657611b25611b01565b5b8235905067ffffffffffffffff811115611b4357611b42611b06565b5b602083019150836001820283011115611b5f57611b5e611b0b565b5b9250929050565b600080600060408486031215611b7f57611b7e61198e565b5b6000611b8d868287016119af565b935050602084013567ffffffffffffffff811115611bae57611bad611993565b5b611bba86828701611b10565b92509250509250925092565b611bcf8161164a565b82525050565b611bde81611822565b82525050565b600060a082019050611bf96000830188611bc6565b611c0660208301876115d4565b611c1360408301866115d4565b611c2060608301856115d4565b611c2d6080830184611bd5565b9695505050505050565b600080fd5b7f4e487b7100000000000000000000000000000000000000000000000000000000600052604160045260246000fd5b611c74826116ec565b810181811067ffffffffffffffff82111715611c9357611c92611c3c565b5b80604052505050565b6000611ca6611984565b9050611cb28282611c6b565b919050565b600080fd5b611cc58161164a565b8114611cd057600080fd5b50565b600081359050611ce281611cbc565b92915050565b600067ffffffffffffffff821115611d0357611d02611c3c565b5b602082029050602081019050919050565b600080fd5b600067ffffffffffffffff821115611d3457611d33611c3c565b5b611d3d826116ec565b9050602081019050919050565b82818337600083830152505050565b6000611d6c611d6784611d19565b611c9c565b905082815260208101848484011115611d8857611d87611d14565b5b611d93848285611d4a565b509392505050565b600082601f830112611db057611daf611b01565b5b8135611dc0848260208601611d59565b91505092915050565b6000611ddc611dd784611ce8565b611c9c565b90508083825260208201905060208402830185811115611dff57611dfe611b0b565b5b835b81811015611e4657803567ffffffffffffffff811115611e2457611e23611b01565b5b808601611e318982611d9b565b85526020850194505050602081019050611e01565b5050509392505050565b600082601f830112611e6557611e64611b01565b5b8135611e75848260208601611dc9565b91505092915050565b600060c08284031215611e9457611e93611c37565b5b611e9e60c0611c9c565b90506000611eae84828501611cd3565b6000830152506020611ec2848285016119af565b6020830152506040611ed6848285016119af565b6040830152506060611eea848285016119af565b606083015250608082013567ffffffffffffffff811115611f0e57611f0d611cb7565b5b611f1a84828501611e50565b60808301525060a0611f2e84828501611aac565b60a08301525092915050565b600060208284031215611f5057611f4f61198e565b5b600082013567ffffffffffffffff811115611f6e57611f6d611993565b5b611f7a84828501611e7e565b91505092915050565b600067ffffffffffffffff82169050919050565b611fa081611f83565b8114611fab57600080fd5b50565b600081359050611fbd81611f97565b92915050565b600080600080600060a08688031215611fdf57611fde61198e565b5b6000611fed888289016119af565b9550506020611ffe88828901611fae565b945050604061200f88828901611fae565b935050606061202088828901611fae565b925050608086013567ffffffffffffffff81111561204157612040611993565b5b61204d88828901611e50565b9150509295509295909350565b600060208201905061206f6000830184611bc6565b92915050565b60006020828403121561208b5761208a61198e565b5b600061209984828501611cd3565b91505092915050565b600060808301600083015184820360008601526120bf82826116fd565b91505060208301516120d4602086018261165c565b50604083015184820360408601526120ec8282611757565b9150506060830151612101606086018261166b565b508091505092915050565b6000602082019050818103600083015261212681846120a2565b905092915050565b600081519050919050565b600082825260208201905092915050565b6000819050602082019050919050565b6000608083016000830151848203600086015261217782826116fd565b915050602083015161218c602086018261165c565b50604083015184820360408601526121a48282611757565b91505060608301516121b9606086018261166b565b508091505092915050565b60006121d0838361215a565b905092915050565b6000602082019050919050565b60006121f08261212e565b6121fa8185612139565b93508360208202850161220c8561214a565b8060005b85811015612248578484038952815161222985826121c4565b9450612234836121d8565b925060208a01995050600181019050612210565b50829750879550505050505092915050565b6000602082019050818103600083015261227481846121e5565b905092915050565b60008083601f84011261229257612291611b01565b5b8235905067ffffffffffffffff8111156122af576122ae611b06565b5b6020830191508360208202830111156122cb576122ca611b0b565b5b9250929050565b600080600080604085870312156122ec576122eb61198e565b5b600085013567ffffffffffffffff81111561230a57612309611993565b5b61231687828801611b10565b9450945050602085013567ffffffffffffffff81111561233957612338611993565b5b6123458782880161227c565b925092505092959194509250565b600082825260208201905092915050565b600061236f826116a6565b6123798185612353565b93506123898185602086016116c2565b612392816116ec565b840191505092915050565b600060608201905081810360008301526123b78186612364565b90506123c66020830185611bc6565b6123d360408301846115d4565b949350505050565b7f4e487b7100000000000000000000000000000000000000000000000000000000600052602260045260246000fd5b6000600282049050600182168061242257607f821691505b602082108103612435576124346123db565b5b50919050565b7f696e646578206f7574206f662072616e67650000000000000000000000000000600082015250565b6000612471601283612353565b915061247c8261243b565b602082019050919050565b600060208201905081810360008301526124a081612464565b9050919050565b7f4e487b7100000000000000000000000000000000000000000000000000000000600052603260045260246000fd5b7f75736572206973206e6f7420612076616c696461746f722c20706c656173652060008201527f7265676973746572000000000000000000000000000000000000000000000000602082015250565b6000612532602883612353565b915061253d826124d6565b604082019050919050565b6000602082019050818103600083015261256181612525565b9050919050565b7f4e487b7100000000000000000000000000000000000000000000000000000000600052601160045260246000fd5b60006125a2826115ca565b91506125ad836115ca565b92508282019050808211156125c5576125c4612568565b5b92915050565b600082905092915050565b60008190508160005260206000209050919050565b60006020601f8301049050919050565b600082821b905092915050565b6000600883026126387fffffffffffffffffffffffffffffffffffffffffffffffffffffffffffffffff826125fb565b61264286836125fb565b95508019841693508086168417925050509392505050565b6000819050919050565b600061267f61267a612675846115ca565b61265a565b6115ca565b9050919050565b6000819050919050565b61269983612664565b6126ad6126a582612686565b848454612608565b825550505050565b600090565b6126c26126b5565b6126cd818484612690565b505050565b5b818110156126f1576126e66000826126ba565b6001810190506126d3565b5050565b601f82111561273657612707816125d6565b612710846125eb565b8101602085101561271f578190505b61273361272b856125eb565b8301826126d2565b50505b505050565b600082821c905092915050565b60006127596000198460080261273b565b1980831691505092915050565b60006127728383612748565b9150826002028217905092915050565b61278c83836125cb565b67ffffffffffffffff8111156127a5576127a4611c3c565b5b6127af825461240a565b6127ba8282856126f5565b6000601f8311600181146127e957600084156127d7578287013590505b6127e18582612766565b865550612849565b601f1984166127f7866125d6565b60005b8281101561281f578489013582556001820191506020850194506020810190506127fa565b8683101561283c5784890135612838601f891682612748565b8355505b6001600288020188555050505b50505050505050565b7f696e76616c696420696400000000000000000000000000000000000000000000600082015250565b6000612888600a83612353565b915061289382612852565b602082019050919050565b600060208201905081810360008301526128b78161287b565b9050919050565b60006128cb368484611dc9565b905092915050565b6128dc826116a6565b67ffffffffffffffff8111156128f5576128f4611c3c565b5b6128ff825461240a565b61290a8282856126f5565b600060209050601f83116001811461293d576000841561292b578287015190505b6129358582612766565b86555061299d565b601f19841661294b866125d6565b60005b828110156129735784890151825560018201915060208501945060208101905061294e565b86831015612990578489015161298c601f891682612748565b8355505b6001600288020188555050505b50505050505056fea2646970667358221220ad1cc26b65fe555e69594c8e3eabf60a1b1367d66f05a5b701bc6a268ca4fe1a64736f6c63430008180033",
  "linkReferences": {},
  "deployedLinkReferences": {}
}