{
  "_format": "hh-sol-artifact-1",
  "contractName": "TrafficData",
  "sourceName": "contracts/TrafficData.sol",
  "abi": [
    {
      "inputs": [],
      "stateMutability": "nonpayable",
      "type": "constructor"
    },
    {
      "anonymous": false,
      "inputs": [
        {
          "indexed": true,
          "internalType": "uint256",
          "name": "index",
          "type": "uint256"
        }
      ],
      "name": "NewTrafficLightRegister",
      "type": "event"
    },
    {
      "inputs": [],
      "name": "LLA_DECIMAL",
      "outputs": [
        {
          "internalType": "uint256",
          "name": "",
          "type": "uint256"
        }
      ],
      "stateMutability": "view",
      "type": "function"
    },
    {
      "inputs": [
        {
          "internalType": "uint256",
          "name": "id",
          "type": "uint256"
        },
        {
          "internalType": "string",
          "name": "imageUri",
          "type": "string"
        }
      ],
      "name": "addImages",
      "outputs": [],
      "stateMutability": "nonpayable",
      "type": "function"
    },
    {
      "inputs": [
        {
          "internalType": "address",
          "name": "user",
          "type": "address"
        }
      ],
      "name": "getAllTrafficLightDetection",
      "outputs": [
        {
          "components": [
            {
              "internalType": "uint256",
              "name": "id",
              "type": "uint256"
            },
            {
              "internalType": "uint256",
              "name": "lat",
              "type": "uint256"
            },
            {
              "internalType": "uint256",
              "name": "lng",
              "type": "uint256"
            },
            {
              "internalType": "uint256",
              "name": "orientation",
              "type": "uint256"
            },
            {
              "internalType": "string",
              "name": "cid",
              "type": "string"
            },
            {
              "internalType": "uint256",
              "name": "topLeft_x",
              "type": "uint256"
            },
            {
              "internalType": "uint256",
              "name": "topLeft_y",
              "type": "uint256"
            },
            {
              "internalType": "uint256",
              "name": "width",
              "type": "uint256"
            },
            {
              "internalType": "uint256",
              "name": "height",
              "type": "uint256"
            },
            {
              "internalType": "uint256",
              "name": "score",
              "type": "uint256"
            }
          ],
          "internalType": "struct TrafficData.TrafficLightDetection[]",
          "name": "",
          "type": "tuple[]"
        }
      ],
      "stateMutability": "view",
      "type": "function"
    },
    {
      "inputs": [],
      "name": "getAllValidators",
      "outputs": [
        {
          "components": [
            {
              "internalType": "string",
              "name": "name",
              "type": "string"
            },
            {
              "internalType": "address",
              "name": "owner",
              "type": "address"
            },
            {
              "internalType": "string[]",
              "name": "supportedModels",
              "type": "string[]"
            },
            {
              "internalType": "uint256",
              "name": "validatedCount",
              "type": "uint256"
            }
          ],
          "internalType": "struct TrafficData.ValidatorMetadata[]",
          "name": "",
          "type": "tuple[]"
        }
      ],
      "stateMutability": "view",
      "type": "function"
    },
    {
      "inputs": [],
      "name": "getIndex",
      "outputs": [
        {
          "internalType": "uint256",
          "name": "",
          "type": "uint256"
        }
      ],
      "stateMutability": "view",
      "type": "function"
    },
    {
      "inputs": [
        {
          "internalType": "uint256",
          "name": "index",
          "type": "uint256"
        }
      ],
      "name": "getTrafficLightByIndex",
      "outputs": [
        {
          "components": [
            {
              "internalType": "address",
              "name": "owner",
              "type": "address"
            },
            {
              "internalType": "uint256",
              "name": "lat",
              "type": "uint256"
            },
            {
              "internalType": "uint256",
              "name": "lng",
              "type": "uint256"
            },
            {
              "internalType": "uint256",
              "name": "orientation",
              "type": "uint256"
            },
            {
              "internalType": "string[]",
              "name": "uri",
              "type": "string[]"
            },
            {
              "internalType": "enum TrafficData.TrafficLightValidationStatus",
              "name": "validationStatus",
              "type": "uint8"
            }
          ],
          "internalType": "struct TrafficData.TrafficLight",
          "name": "",
          "type": "tuple"
        }
      ],
      "stateMutability": "nonpayable",
      "type": "function"
    },
    {
      "inputs": [],
      "name": "getTrafficLights",
      "outputs": [
        {
          "components": [
            {
              "internalType": "address",
              "name": "owner",
              "type": "address"
            },
            {
              "internalType": "uint256",
              "name": "lat",
              "type": "uint256"
            },
            {
              "internalType": "uint256",
              "name": "lng",
              "type": "uint256"
            },
            {
              "internalType": "uint256",
              "name": "orientation",
              "type": "uint256"
            },
            {
              "internalType": "string[]",
              "name": "uri",
              "type": "string[]"
            },
            {
              "internalType": "enum TrafficData.TrafficLightValidationStatus",
              "name": "validationStatus",
              "type": "uint8"
            }
          ],
          "internalType": "struct TrafficData.TrafficLight[]",
          "name": "",
          "type": "tuple[]"
        }
      ],
      "stateMutability": "nonpayable",
      "type": "function"
    },
    {
      "inputs": [
        {
          "internalType": "address",
          "name": "validator",
          "type": "address"
        }
      ],
      "name": "getValidatorMetadata",
      "outputs": [
        {
          "components": [
            {
              "internalType": "string",
              "name": "name",
              "type": "string"
            },
            {
              "internalType": "address",
              "name": "owner",
              "type": "address"
            },
            {
              "internalType": "string[]",
              "name": "supportedModels",
              "type": "string[]"
            },
            {
              "internalType": "uint256",
              "name": "validatedCount",
              "type": "uint256"
            }
          ],
          "internalType": "struct TrafficData.ValidatorMetadata",
          "name": "",
          "type": "tuple"
        }
      ],
      "stateMutability": "view",
      "type": "function"
    },
    {
      "inputs": [
        {
          "internalType": "address",
          "name": "_token",
          "type": "address"
        }
      ],
      "name": "registerToken",
      "outputs": [],
      "stateMutability": "nonpayable",
      "type": "function"
    },
    {
      "inputs": [
        {
          "components": [
            {
              "internalType": "address",
              "name": "owner",
              "type": "address"
            },
            {
              "internalType": "uint256",
              "name": "lat",
              "type": "uint256"
            },
            {
              "internalType": "uint256",
              "name": "lng",
              "type": "uint256"
            },
            {
              "internalType": "uint256",
              "name": "orientation",
              "type": "uint256"
            },
            {
              "internalType": "string[]",
              "name": "uri",
              "type": "string[]"
            },
            {
              "internalType": "enum TrafficData.TrafficLightValidationStatus",
              "name": "validationStatus",
              "type": "uint8"
            }
          ],
          "internalType": "struct TrafficData.TrafficLight",
          "name": "input",
          "type": "tuple"
        }
      ],
      "name": "registerTrafficLight",
      "outputs": [],
      "stateMutability": "nonpayable",
      "type": "function"
    },
    {
      "inputs": [
        {
          "components": [
            {
              "internalType": "uint256",
              "name": "id",
              "type": "uint256"
            },
            {
              "internalType": "uint256",
              "name": "lat",
              "type": "uint256"
            },
            {
              "internalType": "uint256",
              "name": "lng",
              "type": "uint256"
            },
            {
              "internalType": "uint256",
              "name": "orientation",
              "type": "uint256"
            },
            {
              "internalType": "string",
              "name": "cid",
              "type": "string"
            },
            {
              "internalType": "uint256",
              "name": "topLeft_x",
              "type": "uint256"
            },
            {
              "internalType": "uint256",
              "name": "topLeft_y",
              "type": "uint256"
            },
            {
              "internalType": "uint256",
              "name": "width",
              "type": "uint256"
            },
            {
              "internalType": "uint256",
              "name": "height",
              "type": "uint256"
            },
            {
              "internalType": "uint256",
              "name": "score",
              "type": "uint256"
            }
          ],
          "internalType": "struct TrafficData.TrafficLightDetection",
          "name": "input",
          "type": "tuple"
        }
      ],
      "name": "registerTrafficLightDetection",
      "outputs": [],
      "stateMutability": "nonpayable",
      "type": "function"
    },
    {
      "inputs": [
        {
          "internalType": "string",
          "name": "name",
          "type": "string"
        },
        {
          "internalType": "string[]",
          "name": "supportedModels",
          "type": "string[]"
        }
      ],
      "name": "registerValidator",
      "outputs": [],
      "stateMutability": "nonpayable",
      "type": "function"
    },
    {
      "inputs": [
        {
          "internalType": "address",
          "name": "",
          "type": "address"
        },
        {
          "internalType": "uint256",
          "name": "",
          "type": "uint256"
        }
      ],
      "name": "trafficLightDetections",
      "outputs": [
        {
          "internalType": "uint256",
          "name": "id",
          "type": "uint256"
        },
        {
          "internalType": "uint256",
          "name": "lat",
          "type": "uint256"
        },
        {
          "internalType": "uint256",
          "name": "lng",
          "type": "uint256"
        },
        {
          "internalType": "uint256",
          "name": "orientation",
          "type": "uint256"
        },
        {
          "internalType": "string",
          "name": "cid",
          "type": "string"
        },
        {
          "internalType": "uint256",
          "name": "topLeft_x",
          "type": "uint256"
        },
        {
          "internalType": "uint256",
          "name": "topLeft_y",
          "type": "uint256"
        },
        {
          "internalType": "uint256",
          "name": "width",
          "type": "uint256"
        },
        {
          "internalType": "uint256",
          "name": "height",
          "type": "uint256"
        },
        {
          "internalType": "uint256",
          "name": "score",
          "type": "uint256"
        }
      ],
      "stateMutability": "view",
      "type": "function"
    },
    {
      "inputs": [],
      "name": "trafficLightsIndex",
      "outputs": [
        {
          "internalType": "uint256",
          "name": "",
          "type": "uint256"
        }
      ],
      "stateMutability": "view",
      "type": "function"
    },
    {
      "inputs": [
        {
          "internalType": "uint256",
          "name": "id",
          "type": "uint256"
        },
        {
          "internalType": "uint64",
          "name": "lat",
          "type": "uint64"
        },
        {
          "internalType": "uint64",
          "name": "lng",
          "type": "uint64"
        },
        {
          "internalType": "uint64",
          "name": "orientation",
          "type": "uint64"
        },
        {
          "internalType": "string[]",
          "name": "uri",
          "type": "string[]"
        }
      ],
      "name": "updateTrafficLight",
      "outputs": [],
      "stateMutability": "nonpayable",
      "type": "function"
    },
    {
      "inputs": [
        {
          "internalType": "uint256",
          "name": "id",
          "type": "uint256"
        },
        {
          "internalType": "enum TrafficData.TrafficLightValidationStatus",
          "name": "validationStatus",
          "type": "uint8"
        }
      ],
      "name": "updateValidationStatus",
      "outputs": [],
      "stateMutability": "nonpayable",
      "type": "function"
    },
    {
      "inputs": [],
      "name": "validatorIndex",
      "outputs": [
        {
          "internalType": "uint256",
          "name": "",
          "type": "uint256"
        }
      ],
      "stateMutability": "view",
      "type": "function"
    },
    {
      "inputs": [
        {
          "internalType": "address",
          "name": "",
          "type": "address"
        }
      ],
      "name": "validators",
      "outputs": [
        {
          "internalType": "string",
          "name": "name",
          "type": "string"
        },
        {
          "internalType": "address",
          "name": "owner",
          "type": "address"
        },
        {
          "internalType": "uint256",
          "name": "validatedCount",
          "type": "uint256"
        }
      ],
      "stateMutability": "view",
      "type": "function"
    },
    {
      "inputs": [
        {
          "internalType": "uint256",
          "name": "",
          "type": "uint256"
        }
      ],
      "name": "validatorsAddresses",
      "outputs": [
        {
          "internalType": "address",
          "name": "",
          "type": "address"
        }
      ],
      "stateMutability": "view",
      "type": "function"
    }
  ],
  "bytecode": "0x60806040526000600255600060065534801561001a57600080fd5b5033600160006101000a81548173ffffffffffffffffffffffffffffffffffffffff021916908373ffffffffffffffffffffffffffffffffffffffff1602179055506136358061006b6000396000f3fe608060405234801561001057600080fd5b50600436106101215760003560e01c80638dc87e4d116100ad578063b363c6c211610071578063b363c6c2146102fd578063ed7171841461032d578063f3513a371461035d578063f93227411461037b578063fa52c7d81461039757610121565b80638dc87e4d1461025b5780639f973e7d14610277578063a114251514610293578063a1bf49aa146102af578063aee991ef146102cd57610121565b80636957210e116100f45780636957210e146101ae5780636ddf30c4146101ca5780636fde5645146101e857806381045ead1461020457806388ca05cc1461022257610121565b806309824a80146101265780631c4bc0be146101425780632cc2e41e146101605780636219d0a91461017e575b600080fd5b610140600480360381019061013b9190611d1e565b6103c9565b005b61014a61049c565b6040516101579190611d64565b60405180910390f35b6101686104a1565b60405161017591906120b1565b60405180910390f35b610198600480360381019061019391906120ff565b610734565b6040516101a591906121b5565b60405180910390f35b6101c860048036038101906101c391906121fc565b6109de565b005b6101d2610b59565b6040516101df9190611d64565b60405180910390f35b61020260048036038101906101fd919061248d565b610b5f565b005b61020c610cdf565b6040516102199190611d64565b60405180910390f35b61023c600480360381019061023791906124d6565b610ce9565b6040516102529a99989796959493929190612560565b60405180910390f35b61027560048036038101906102709190612663565b610de2565b005b610291600480360381019061028c9190612860565b610e48565b005b6102ad60048036038101906102a891906128e9565b61107d565b005b6102b761119e565b6040516102c49190611d64565b60405180910390f35b6102e760048036038101906102e29190611d1e565b6111a4565b6040516102f49190612b1c565b60405180910390f35b610317600480360381019061031291906120ff565b61132f565b6040516103249190612b4d565b60405180910390f35b61034760048036038101906103429190611d1e565b61136e565b6040516103549190612bd2565b60405180910390f35b610365611592565b6040516103729190612d20565b60405180910390f35b61039560048036038101906103909190612d98565b61188d565b005b6103b160048036038101906103ac9190611d1e565b611a64565b6040516103c093929190612e19565b60405180910390f35b600160009054906101000a900473ffffffffffffffffffffffffffffffffffffffff1673ffffffffffffffffffffffffffffffffffffffff163373ffffffffffffffffffffffffffffffffffffffff1614610459576040517f08c379a000000000000000000000000000000000000000000000000000000000815260040161045090612ea3565b60405180910390fd5b806000806101000a81548173ffffffffffffffffffffffffffffffffffffffff021916908373ffffffffffffffffffffffffffffffffffffffff16021790555050565b600681565b60606000600380549050905060008054906101000a900473ffffffffffffffffffffffffffffffffffffffff1673ffffffffffffffffffffffffffffffffffffffff166323b872dd3330846040518463ffffffff1660e01b815260040161050a93929190612ec3565b6020604051808303816000875af1158015610529573d6000803e3d6000fd5b505050506040513d601f19601f8201168201806040525081019061054d9190612f32565b506003805480602002602001604051908101604052809291908181526020016000905b8282101561072a57838290600052602060002090600602016040518060c00160405290816000820160009054906101000a900473ffffffffffffffffffffffffffffffffffffffff1673ffffffffffffffffffffffffffffffffffffffff1673ffffffffffffffffffffffffffffffffffffffff16815260200160018201548152602001600282015481526020016003820154815260200160048201805480602002602001604051908101604052809291908181526020016000905b828210156106d857838290600052602060002001805461064b90612f8e565b80601f016020809104026020016040519081016040528092919081815260200182805461067790612f8e565b80156106c45780601f10610699576101008083540402835291602001916106c4565b820191906000526020600020905b8154815290600101906020018083116106a757829003601f168201915b50505050508152602001906001019061062c565b5050505081526020016005820160009054906101000a900460ff16600381111561070557610704611f1b565b5b600381111561071757610716611f1b565b5b8152505081526020019060010190610570565b5050505091505090565b61073c611b36565b8160025411610780576040517f08c379a00000000000000000000000000000000000000000000000000000000081526004016107779061300b565b60405180910390fd5b60008054906101000a900473ffffffffffffffffffffffffffffffffffffffff1673ffffffffffffffffffffffffffffffffffffffff166323b872dd333060016040518463ffffffff1660e01b81526004016107de93929190613070565b6020604051808303816000875af11580156107fd573d6000803e3d6000fd5b505050506040513d601f19601f820116820180604052508101906108219190612f32565b5060038281548110610836576108356130a7565b5b90600052602060002090600602016040518060c00160405290816000820160009054906101000a900473ffffffffffffffffffffffffffffffffffffffff1673ffffffffffffffffffffffffffffffffffffffff1673ffffffffffffffffffffffffffffffffffffffff16815260200160018201548152602001600282015481526020016003820154815260200160048201805480602002602001604051908101604052809291908181526020016000905b8282101561099457838290600052602060002001805461090790612f8e565b80601f016020809104026020016040519081016040528092919081815260200182805461093390612f8e565b80156109805780601f1061095557610100808354040283529160200191610980565b820191906000526020600020905b81548152906001019060200180831161096357829003601f168201915b5050505050815260200190600101906108e8565b5050505081526020016005820160009054906101000a900460ff1660038111156109c1576109c0611f1b565b5b60038111156109d3576109d2611f1b565b5b815250509050919050565b3373ffffffffffffffffffffffffffffffffffffffff16600560003373ffffffffffffffffffffffffffffffffffffffff1673ffffffffffffffffffffffffffffffffffffffff16815260200190815260200160002060010160009054906101000a900473ffffffffffffffffffffffffffffffffffffffff1673ffffffffffffffffffffffffffffffffffffffff1614610aae576040517f08c379a0000000000000000000000000000000000000000000000000000000008152600401610aa590613148565b60405180910390fd5b6001600560003373ffffffffffffffffffffffffffffffffffffffff1673ffffffffffffffffffffffffffffffffffffffff1681526020019081526020016000206003016000828254610b019190613197565b925050819055508060038381548110610b1d57610b1c6130a7565b5b906000526020600020906006020160050160006101000a81548160ff02191690836003811115610b5057610b4f611f1b565b5b02179055505050565b60025481565b600460003373ffffffffffffffffffffffffffffffffffffffff1673ffffffffffffffffffffffffffffffffffffffff1681526020019081526020016000208190806001815401808255809150506001900390600052602060002090600a0201600090919091909150600082015181600001556020820151816001015560408201518160020155606082015181600301556080820151816004019081610c05919061336d565b5060a0820151816005015560c0820151816006015560e0820151816007015561010082015181600801556101208201518160090155505060008054906101000a900473ffffffffffffffffffffffffffffffffffffffff1673ffffffffffffffffffffffffffffffffffffffff1663a9059cbb33600a6040518363ffffffff1660e01b8152600401610c9892919061347a565b6020604051808303816000875af1158015610cb7573d6000803e3d6000fd5b505050506040513d601f19601f82011682018060405250810190610cdb9190612f32565b5050565b6000600254905090565b60046020528160005260406000208181548110610d0557600080fd5b90600052602060002090600a020160009150915050806000015490806001015490806002015490806003015490806004018054610d4190612f8e565b80601f0160208091040260200160405190810160405280929190818152602001828054610d6d90612f8e565b8015610dba5780601f10610d8f57610100808354040283529160200191610dba565b820191906000526020600020905b815481529060010190602001808311610d9d57829003601f168201915b505050505090806005015490806006015490806007015490806008015490806009015490508a565b60038381548110610df657610df56130a7565b5b9060005260206000209060060201600401828290918060018154018082558091505060019003906000526020600020016000909192909192909192909192509182610e429291906134ae565b50505050565b33816000019073ffffffffffffffffffffffffffffffffffffffff16908173ffffffffffffffffffffffffffffffffffffffff168152505060008160a001906003811115610e9957610e98611f1b565b5b90816003811115610ead57610eac611f1b565b5b81525050600381908060018154018082558091505060019003906000526020600020906006020160009091909190915060008201518160000160006101000a81548173ffffffffffffffffffffffffffffffffffffffff021916908373ffffffffffffffffffffffffffffffffffffffff1602179055506020820151816001015560408201518160020155606082015181600301556080820151816004019080519060200190610f5e929190611b94565b5060a08201518160050160006101000a81548160ff02191690836003811115610f8a57610f89611f1b565b5b021790555050506002547f4046cd0d5427a1a3a70a3453f8a6114979200006ef5fba493a840ce915c612b360405160405180910390a2600160026000828254610fd39190613197565b9250508190555060008054906101000a900473ffffffffffffffffffffffffffffffffffffffff1673ffffffffffffffffffffffffffffffffffffffff1663a9059cbb33600a6040518363ffffffff1660e01b815260040161103692919061347a565b6020604051808303816000875af1158015611055573d6000803e3d6000fd5b505050506040513d601f19601f820116820180604052508101906110799190612f32565b5050565b60025485106110c1576040517f08c379a00000000000000000000000000000000000000000000000000000000081526004016110b8906135ca565b60405180910390fd5b8367ffffffffffffffff16600386815481106110e0576110df6130a7565b5b9060005260206000209060060201600101819055508267ffffffffffffffff1660038681548110611114576111136130a7565b5b9060005260206000209060060201600201819055508167ffffffffffffffff1660038681548110611148576111476130a7565b5b9060005260206000209060060201600301819055508060038681548110611172576111716130a7565b5b90600052602060002090600602016004019080519060200190611196929190611b94565b505050505050565b60065481565b6060600460008373ffffffffffffffffffffffffffffffffffffffff1673ffffffffffffffffffffffffffffffffffffffff168152602001908152602001600020805480602002602001604051908101604052809291908181526020016000905b8282101561132457838290600052602060002090600a0201604051806101400160405290816000820154815260200160018201548152602001600282015481526020016003820154815260200160048201805461126190612f8e565b80601f016020809104026020016040519081016040528092919081815260200182805461128d90612f8e565b80156112da5780601f106112af576101008083540402835291602001916112da565b820191906000526020600020905b8154815290600101906020018083116112bd57829003601f168201915b505050505081526020016005820154815260200160068201548152602001600782015481526020016008820154815260200160098201548152505081526020019060010190611205565b505050509050919050565b6007818154811061133f57600080fd5b906000526020600020016000915054906101000a900473ffffffffffffffffffffffffffffffffffffffff1681565b611376611bed565b600560008373ffffffffffffffffffffffffffffffffffffffff1673ffffffffffffffffffffffffffffffffffffffff1681526020019081526020016000206040518060800160405290816000820180546113d090612f8e565b80601f01602080910402602001604051908101604052809291908181526020018280546113fc90612f8e565b80156114495780601f1061141e57610100808354040283529160200191611449565b820191906000526020600020905b81548152906001019060200180831161142c57829003601f168201915b505050505081526020016001820160009054906101000a900473ffffffffffffffffffffffffffffffffffffffff1673ffffffffffffffffffffffffffffffffffffffff1673ffffffffffffffffffffffffffffffffffffffff16815260200160028201805480602002602001604051908101604052809291908181526020016000905b828210156115795783829060005260206000200180546114ec90612f8e565b80601f016020809104026020016040519081016040528092919081815260200182805461151890612f8e565b80156115655780601f1061153a57610100808354040283529160200191611565565b820191906000526020600020905b81548152906001019060200180831161154857829003601f168201915b5050505050815260200190600101906114cd565b5050505081526020016003820154815250509050919050565b6060600060065467ffffffffffffffff8111156115b2576115b1612241565b5b6040519080825280602002602001820160405280156115eb57816020015b6115d8611bed565b8152602001906001900390816115d05790505b50905060005b60065481101561188557600060078281548110611611576116106130a7565b5b9060005260206000200160009054906101000a900473ffffffffffffffffffffffffffffffffffffffff1690506000600560008373ffffffffffffffffffffffffffffffffffffffff1673ffffffffffffffffffffffffffffffffffffffff16815260200190815260200160002060405180608001604052908160008201805461169a90612f8e565b80601f01602080910402602001604051908101604052809291908181526020018280546116c690612f8e565b80156117135780601f106116e857610100808354040283529160200191611713565b820191906000526020600020905b8154815290600101906020018083116116f657829003601f168201915b505050505081526020016001820160009054906101000a900473ffffffffffffffffffffffffffffffffffffffff1673ffffffffffffffffffffffffffffffffffffffff1673ffffffffffffffffffffffffffffffffffffffff16815260200160028201805480602002602001604051908101604052809291908181526020016000905b828210156118435783829060005260206000200180546117b690612f8e565b80601f01602080910402602001604051908101604052809291908181526020018280546117e290612f8e565b801561182f5780601f106118045761010080835404028352916020019161182f565b820191906000526020600020905b81548152906001019060200180831161181257829003601f168201915b505050505081526020019060010190611797565b50505050815260200160038201548152505090508084848151811061186b5761186a6130a7565b5b6020026020010181905250505080806001019150506115f1565b508091505090565b6000604051806080016040528086868080601f016020809104026020016040519081016040528093929190818152602001838380828437600081840152601f19601f8201169050808301925050505050505081526020013373ffffffffffffffffffffffffffffffffffffffff16815260200184849061190d91906135ea565b81526020016000815250905080600560003373ffffffffffffffffffffffffffffffffffffffff1673ffffffffffffffffffffffffffffffffffffffff168152602001908152602001600020600082015181600001908161196e919061336d565b5060208201518160010160006101000a81548173ffffffffffffffffffffffffffffffffffffffff021916908373ffffffffffffffffffffffffffffffffffffffff16021790555060408201518160020190805190602001906119d2929190611b94565b50606082015181600301559050506007339080600181540180825580915050600190039060005260206000200160009091909190916101000a81548173ffffffffffffffffffffffffffffffffffffffff021916908373ffffffffffffffffffffffffffffffffffffffff160217905550600160066000828254611a569190613197565b925050819055505050505050565b6005602052806000526040600020600091509050806000018054611a8790612f8e565b80601f0160208091040260200160405190810160405280929190818152602001828054611ab390612f8e565b8015611b005780601f10611ad557610100808354040283529160200191611b00565b820191906000526020600020905b815481529060010190602001808311611ae357829003601f168201915b5050505050908060010160009054906101000a900473ffffffffffffffffffffffffffffffffffffffff16908060030154905083565b6040518060c00160405280600073ffffffffffffffffffffffffffffffffffffffff1681526020016000815260200160008152602001600081526020016060815260200160006003811115611b8e57611b8d611f1b565b5b81525090565b828054828255906000526020600020908101928215611bdc579160200282015b82811115611bdb578251829081611bcb919061336d565b5091602001919060010190611bb4565b5b509050611be99190611c2b565b5090565b604051806080016040528060608152602001600073ffffffffffffffffffffffffffffffffffffffff16815260200160608152602001600081525090565b5b80821115611c4b5760008181611c429190611c4f565b50600101611c2c565b5090565b508054611c5b90612f8e565b6000825580601f10611c6d5750611c8c565b601f016020900490600052602060002090810190611c8b9190611c8f565b5b50565b5b80821115611ca8576000816000905550600101611c90565b5090565b6000604051905090565b600080fd5b600080fd5b600073ffffffffffffffffffffffffffffffffffffffff82169050919050565b6000611ceb82611cc0565b9050919050565b611cfb81611ce0565b8114611d0657600080fd5b50565b600081359050611d1881611cf2565b92915050565b600060208284031215611d3457611d33611cb6565b5b6000611d4284828501611d09565b91505092915050565b6000819050919050565b611d5e81611d4b565b82525050565b6000602082019050611d796000830184611d55565b92915050565b600081519050919050565b600082825260208201905092915050565b6000819050602082019050919050565b611db481611ce0565b82525050565b611dc381611d4b565b82525050565b600081519050919050565b600082825260208201905092915050565b6000819050602082019050919050565b600081519050919050565b600082825260208201905092915050565b60005b83811015611e2f578082015181840152602081019050611e14565b60008484015250505050565b6000601f19601f8301169050919050565b6000611e5782611df5565b611e618185611e00565b9350611e71818560208601611e11565b611e7a81611e3b565b840191505092915050565b6000611e918383611e4c565b905092915050565b6000602082019050919050565b6000611eb182611dc9565b611ebb8185611dd4565b935083602082028501611ecd85611de5565b8060005b85811015611f095784840389528151611eea8582611e85565b9450611ef583611e99565b925060208a01995050600181019050611ed1565b50829750879550505050505092915050565b7f4e487b7100000000000000000000000000000000000000000000000000000000600052602160045260246000fd5b60048110611f5b57611f5a611f1b565b5b50565b6000819050611f6c82611f4a565b919050565b6000611f7c82611f5e565b9050919050565b611f8c81611f71565b82525050565b600060c083016000830151611faa6000860182611dab565b506020830151611fbd6020860182611dba565b506040830151611fd06040860182611dba565b506060830151611fe36060860182611dba565b5060808301518482036080860152611ffb8282611ea6565b91505060a083015161201060a0860182611f83565b508091505092915050565b60006120278383611f92565b905092915050565b6000602082019050919050565b600061204782611d7f565b6120518185611d8a565b93508360208202850161206385611d9b565b8060005b8581101561209f5784840389528151612080858261201b565b945061208b8361202f565b925060208a01995050600181019050612067565b50829750879550505050505092915050565b600060208201905081810360008301526120cb818461203c565b905092915050565b6120dc81611d4b565b81146120e757600080fd5b50565b6000813590506120f9816120d3565b92915050565b60006020828403121561211557612114611cb6565b5b6000612123848285016120ea565b91505092915050565b600060c0830160008301516121446000860182611dab565b5060208301516121576020860182611dba565b50604083015161216a6040860182611dba565b50606083015161217d6060860182611dba565b50608083015184820360808601526121958282611ea6565b91505060a08301516121aa60a0860182611f83565b508091505092915050565b600060208201905081810360008301526121cf818461212c565b905092915050565b600481106121e457600080fd5b50565b6000813590506121f6816121d7565b92915050565b6000806040838503121561221357612212611cb6565b5b6000612221858286016120ea565b9250506020612232858286016121e7565b9150509250929050565b600080fd5b7f4e487b7100000000000000000000000000000000000000000000000000000000600052604160045260246000fd5b61227982611e3b565b810181811067ffffffffffffffff8211171561229857612297612241565b5b80604052505050565b60006122ab611cac565b90506122b78282612270565b919050565b600080fd5b600080fd5b600080fd5b600067ffffffffffffffff8211156122e6576122e5612241565b5b6122ef82611e3b565b9050602081019050919050565b82818337600083830152505050565b600061231e612319846122cb565b6122a1565b90508281526020810184848401111561233a576123396122c6565b5b6123458482856122fc565b509392505050565b600082601f830112612362576123616122c1565b5b813561237284826020860161230b565b91505092915050565b600061014082840312156123925761239161223c565b5b61239d6101406122a1565b905060006123ad848285016120ea565b60008301525060206123c1848285016120ea565b60208301525060406123d5848285016120ea565b60408301525060606123e9848285016120ea565b606083015250608082013567ffffffffffffffff81111561240d5761240c6122bc565b5b6124198482850161234d565b60808301525060a061242d848285016120ea565b60a08301525060c0612441848285016120ea565b60c08301525060e0612455848285016120ea565b60e08301525061010061246a848285016120ea565b61010083015250610120612480848285016120ea565b6101208301525092915050565b6000602082840312156124a3576124a2611cb6565b5b600082013567ffffffffffffffff8111156124c1576124c0611cbb565b5b6124cd8482850161237b565b91505092915050565b600080604083850312156124ed576124ec611cb6565b5b60006124fb85828601611d09565b925050602061250c858286016120ea565b9150509250929050565b600082825260208201905092915050565b600061253282611df5565b61253c8185612516565b935061254c818560208601611e11565b61255581611e3b565b840191505092915050565b600061014082019050612576600083018d611d55565b612583602083018c611d55565b612590604083018b611d55565b61259d606083018a611d55565b81810360808301526125af8189612527565b90506125be60a0830188611d55565b6125cb60c0830187611d55565b6125d860e0830186611d55565b6125e6610100830185611d55565b6125f4610120830184611d55565b9b9a5050505050505050505050565b600080fd5b600080fd5b60008083601f840112612623576126226122c1565b5b8235905067ffffffffffffffff8111156126405761263f612603565b5b60208301915083600182028301111561265c5761265b612608565b5b9250929050565b60008060006040848603121561267c5761267b611cb6565b5b600061268a868287016120ea565b935050602084013567ffffffffffffffff8111156126ab576126aa611cbb565b5b6126b78682870161260d565b92509250509250925092565b600067ffffffffffffffff8211156126de576126dd612241565b5b602082029050602081019050919050565b60006127026126fd846126c3565b6122a1565b9050808382526020820190506020840283018581111561272557612724612608565b5b835b8181101561276c57803567ffffffffffffffff81111561274a576127496122c1565b5b808601612757898261234d565b85526020850194505050602081019050612727565b5050509392505050565b600082601f83011261278b5761278a6122c1565b5b813561279b8482602086016126ef565b91505092915050565b600060c082840312156127ba576127b961223c565b5b6127c460c06122a1565b905060006127d484828501611d09565b60008301525060206127e8848285016120ea565b60208301525060406127fc848285016120ea565b6040830152506060612810848285016120ea565b606083015250608082013567ffffffffffffffff811115612834576128336122bc565b5b61284084828501612776565b60808301525060a0612854848285016121e7565b60a08301525092915050565b60006020828403121561287657612875611cb6565b5b600082013567ffffffffffffffff81111561289457612893611cbb565b5b6128a0848285016127a4565b91505092915050565b600067ffffffffffffffff82169050919050565b6128c6816128a9565b81146128d157600080fd5b50565b6000813590506128e3816128bd565b92915050565b600080600080600060a0868803121561290557612904611cb6565b5b6000612913888289016120ea565b9550506020612924888289016128d4565b9450506040612935888289016128d4565b9350506060612946888289016128d4565b925050608086013567ffffffffffffffff81111561296757612966611cbb565b5b61297388828901612776565b9150509295509295909350565b600081519050919050565b600082825260208201905092915050565b6000819050602082019050919050565b6000610140830160008301516129c56000860182611dba565b5060208301516129d86020860182611dba565b5060408301516129eb6040860182611dba565b5060608301516129fe6060860182611dba565b5060808301518482036080860152612a168282611e4c565b91505060a0830151612a2b60a0860182611dba565b5060c0830151612a3e60c0860182611dba565b5060e0830151612a5160e0860182611dba565b50610100830151612a66610100860182611dba565b50610120830151612a7b610120860182611dba565b508091505092915050565b6000612a9283836129ac565b905092915050565b6000602082019050919050565b6000612ab282612980565b612abc818561298b565b935083602082028501612ace8561299c565b8060005b85811015612b0a5784840389528151612aeb8582612a86565b9450612af683612a9a565b925060208a01995050600181019050612ad2565b50829750879550505050505092915050565b60006020820190508181036000830152612b368184612aa7565b905092915050565b612b4781611ce0565b82525050565b6000602082019050612b626000830184612b3e565b92915050565b60006080830160008301518482036000860152612b858282611e4c565b9150506020830151612b9a6020860182611dab565b5060408301518482036040860152612bb28282611ea6565b9150506060830151612bc76060860182611dba565b508091505092915050565b60006020820190508181036000830152612bec8184612b68565b905092915050565b600081519050919050565b600082825260208201905092915050565b6000819050602082019050919050565b60006080830160008301518482036000860152612c3d8282611e4c565b9150506020830151612c526020860182611dab565b5060408301518482036040860152612c6a8282611ea6565b9150506060830151612c7f6060860182611dba565b508091505092915050565b6000612c968383612c20565b905092915050565b6000602082019050919050565b6000612cb682612bf4565b612cc08185612bff565b935083602082028501612cd285612c10565b8060005b85811015612d0e5784840389528151612cef8582612c8a565b9450612cfa83612c9e565b925060208a01995050600181019050612cd6565b50829750879550505050505092915050565b60006020820190508181036000830152612d3a8184612cab565b905092915050565b60008083601f840112612d5857612d576122c1565b5b8235905067ffffffffffffffff811115612d7557612d74612603565b5b602083019150836020820283011115612d9157612d90612608565b5b9250929050565b60008060008060408587031215612db257612db1611cb6565b5b600085013567ffffffffffffffff811115612dd057612dcf611cbb565b5b612ddc8782880161260d565b9450945050602085013567ffffffffffffffff811115612dff57612dfe611cbb565b5b612e0b87828801612d42565b925092505092959194509250565b60006060820190508181036000830152612e338186612527565b9050612e426020830185612b3e565b612e4f6040830184611d55565b949350505050565b7f6e6f74206f776e65720000000000000000000000000000000000000000000000600082015250565b6000612e8d600983612516565b9150612e9882612e57565b602082019050919050565b60006020820190508181036000830152612ebc81612e80565b9050919050565b6000606082019050612ed86000830186612b3e565b612ee56020830185612b3e565b612ef26040830184611d55565b949350505050565b60008115159050919050565b612f0f81612efa565b8114612f1a57600080fd5b50565b600081519050612f2c81612f06565b92915050565b600060208284031215612f4857612f47611cb6565b5b6000612f5684828501612f1d565b91505092915050565b7f4e487b7100000000000000000000000000000000000000000000000000000000600052602260045260246000fd5b60006002820490506001821680612fa657607f821691505b602082108103612fb957612fb8612f5f565b5b50919050565b7f696e646578206f7574206f662072616e67650000000000000000000000000000600082015250565b6000612ff5601283612516565b915061300082612fbf565b602082019050919050565b6000602082019050818103600083015261302481612fe8565b9050919050565b6000819050919050565b6000819050919050565b600061305a6130556130508461302b565b613035565b611d4b565b9050919050565b61306a8161303f565b82525050565b60006060820190506130856000830186612b3e565b6130926020830185612b3e565b61309f6040830184613061565b949350505050565b7f4e487b7100000000000000000000000000000000000000000000000000000000600052603260045260246000fd5b7f75736572206973206e6f7420612076616c696461746f722c20706c656173652060008201527f7265676973746572000000000000000000000000000000000000000000000000602082015250565b6000613132602883612516565b915061313d826130d6565b604082019050919050565b6000602082019050818103600083015261316181613125565b9050919050565b7f4e487b7100000000000000000000000000000000000000000000000000000000600052601160045260246000fd5b60006131a282611d4b565b91506131ad83611d4b565b92508282019050808211156131c5576131c4613168565b5b92915050565b60008190508160005260206000209050919050565b60006020601f8301049050919050565b600082821b905092915050565b60006008830261322d7fffffffffffffffffffffffffffffffffffffffffffffffffffffffffffffffff826131f0565b61323786836131f0565b95508019841693508086168417925050509392505050565b600061326a61326561326084611d4b565b613035565b611d4b565b9050919050565b6000819050919050565b6132848361324f565b61329861329082613271565b8484546131fd565b825550505050565b600090565b6132ad6132a0565b6132b881848461327b565b505050565b5b818110156132dc576132d16000826132a5565b6001810190506132be565b5050565b601f821115613321576132f2816131cb565b6132fb846131e0565b8101602085101561330a578190505b61331e613316856131e0565b8301826132bd565b50505b505050565b600082821c905092915050565b600061334460001984600802613326565b1980831691505092915050565b600061335d8383613333565b9150826002028217905092915050565b61337682611df5565b67ffffffffffffffff81111561338f5761338e612241565b5b6133998254612f8e565b6133a48282856132e0565b600060209050601f8311600181146133d757600084156133c5578287015190505b6133cf8582613351565b865550613437565b601f1984166133e5866131cb565b60005b8281101561340d578489015182556001820191506020850194506020810190506133e8565b8683101561342a5784890151613426601f891682613333565b8355505b6001600288020188555050505b505050505050565b6000819050919050565b600061346461345f61345a8461343f565b613035565b611d4b565b9050919050565b61347481613449565b82525050565b600060408201905061348f6000830185612b3e565b61349c602083018461346b565b9392505050565b600082905092915050565b6134b883836134a3565b67ffffffffffffffff8111156134d1576134d0612241565b5b6134db8254612f8e565b6134e68282856132e0565b6000601f8311600181146135155760008415613503578287013590505b61350d8582613351565b865550613575565b601f198416613523866131cb565b60005b8281101561354b57848901358255600182019150602085019450602081019050613526565b868310156135685784890135613564601f891682613333565b8355505b6001600288020188555050505b50505050505050565b7f696e76616c696420696400000000000000000000000000000000000000000000600082015250565b60006135b4600a83612516565b91506135bf8261357e565b602082019050919050565b600060208201905081810360008301526135e3816135a7565b9050919050565b60006135f73684846126ef565b90509291505056fea26469706673582212206f6d1974a3bebd51ee7d81c61e4b1b5fd09c08935646694a8f2b29aff7d9871064736f6c63430008180033",
  "linkReferences": {},
  "deployedLinkReferences": {}
}