{
  "_format": "hh-sol-artifact-1",
  "contractName": "TrafficData",
  "sourceName": "contracts/TrafficData.sol",
  "abi": [
    {
      "inputs": [],
      "stateMutability": "nonpayable",
      "type": "constructor"
    },
    {
      "anonymous": false,
      "inputs": [
        {
          "indexed": true,
          "internalType": "uint256",
          "name": "index",
          "type": "uint256"
        }
      ],
      "name": "NewTrafficLightRegister",
      "type": "event"
    },
    {
      "inputs": [],
      "name": "LLA_DECIMAL",
      "outputs": [
        {
          "internalType": "uint256",
          "name": "",
          "type": "uint256"
        }
      ],
      "stateMutability": "view",
      "type": "function"
    },
    {
      "inputs": [
        {
          "internalType": "uint256",
          "name": "id",
          "type": "uint256"
        },
        {
          "internalType": "string",
          "name": "imageUri",
          "type": "string"
        }
      ],
      "name": "addImages",
      "outputs": [],
      "stateMutability": "nonpayable",
      "type": "function"
    },
    {
      "inputs": [],
      "name": "getAllValidators",
      "outputs": [
        {
          "components": [
            {
              "internalType": "string",
              "name": "name",
              "type": "string"
            },
            {
              "internalType": "address",
              "name": "owner",
              "type": "address"
            },
            {
              "internalType": "string[]",
              "name": "supportedModels",
              "type": "string[]"
            },
            {
              "internalType": "uint256",
              "name": "validatedCount",
              "type": "uint256"
            }
          ],
          "internalType": "struct TrafficData.ValidatorMetadata[]",
          "name": "",
          "type": "tuple[]"
        }
      ],
      "stateMutability": "view",
      "type": "function"
    },
    {
      "inputs": [],
      "name": "getIndex",
      "outputs": [
        {
          "internalType": "uint256",
          "name": "",
          "type": "uint256"
        }
      ],
      "stateMutability": "view",
      "type": "function"
    },
    {
      "inputs": [
        {
          "internalType": "uint256",
          "name": "index",
          "type": "uint256"
        }
      ],
      "name": "getTrafficLightByIndex",
      "outputs": [
        {
          "components": [
            {
              "internalType": "address",
              "name": "owner",
              "type": "address"
            },
            {
              "internalType": "uint256",
              "name": "lat",
              "type": "uint256"
            },
            {
              "internalType": "uint256",
              "name": "lng",
              "type": "uint256"
            },
            {
              "internalType": "uint256",
              "name": "orientation",
              "type": "uint256"
            },
            {
              "internalType": "string[]",
              "name": "uri",
              "type": "string[]"
            },
            {
              "internalType": "enum TrafficData.TrafficLightValidationStatus",
              "name": "validationStatus",
              "type": "uint8"
            }
          ],
          "internalType": "struct TrafficData.TrafficLight",
          "name": "",
          "type": "tuple"
        }
      ],
      "stateMutability": "nonpayable",
      "type": "function"
    },
    {
      "inputs": [],
      "name": "getTrafficLights",
      "outputs": [
        {
          "components": [
            {
              "internalType": "address",
              "name": "owner",
              "type": "address"
            },
            {
              "internalType": "uint256",
              "name": "lat",
              "type": "uint256"
            },
            {
              "internalType": "uint256",
              "name": "lng",
              "type": "uint256"
            },
            {
              "internalType": "uint256",
              "name": "orientation",
              "type": "uint256"
            },
            {
              "internalType": "string[]",
              "name": "uri",
              "type": "string[]"
            },
            {
              "internalType": "enum TrafficData.TrafficLightValidationStatus",
              "name": "validationStatus",
              "type": "uint8"
            }
          ],
          "internalType": "struct TrafficData.TrafficLight[]",
          "name": "",
          "type": "tuple[]"
        }
      ],
      "stateMutability": "nonpayable",
      "type": "function"
    },
    {
      "inputs": [
        {
          "internalType": "address",
          "name": "validator",
          "type": "address"
        }
      ],
      "name": "getValidatorMetadata",
      "outputs": [
        {
          "components": [
            {
              "internalType": "string",
              "name": "name",
              "type": "string"
            },
            {
              "internalType": "address",
              "name": "owner",
              "type": "address"
            },
            {
              "internalType": "string[]",
              "name": "supportedModels",
              "type": "string[]"
            },
            {
              "internalType": "uint256",
              "name": "validatedCount",
              "type": "uint256"
            }
          ],
          "internalType": "struct TrafficData.ValidatorMetadata",
          "name": "",
          "type": "tuple"
        }
      ],
      "stateMutability": "view",
      "type": "function"
    },
    {
      "inputs": [
        {
          "internalType": "address",
          "name": "_token",
          "type": "address"
        }
      ],
      "name": "registerToken",
      "outputs": [],
      "stateMutability": "nonpayable",
      "type": "function"
    },
    {
      "inputs": [
        {
          "components": [
            {
              "internalType": "address",
              "name": "owner",
              "type": "address"
            },
            {
              "internalType": "uint256",
              "name": "lat",
              "type": "uint256"
            },
            {
              "internalType": "uint256",
              "name": "lng",
              "type": "uint256"
            },
            {
              "internalType": "uint256",
              "name": "orientation",
              "type": "uint256"
            },
            {
              "internalType": "string[]",
              "name": "uri",
              "type": "string[]"
            },
            {
              "internalType": "enum TrafficData.TrafficLightValidationStatus",
              "name": "validationStatus",
              "type": "uint8"
            }
          ],
          "internalType": "struct TrafficData.TrafficLight",
          "name": "input",
          "type": "tuple"
        }
      ],
      "name": "registerTrafficLight",
      "outputs": [],
      "stateMutability": "nonpayable",
      "type": "function"
    },
    {
      "inputs": [
        {
          "internalType": "string",
          "name": "name",
          "type": "string"
        },
        {
          "internalType": "string[]",
          "name": "supportedModels",
          "type": "string[]"
        }
      ],
      "name": "registerValidator",
      "outputs": [],
      "stateMutability": "nonpayable",
      "type": "function"
    },
    {
      "inputs": [],
      "name": "trafficLightsIndex",
      "outputs": [
        {
          "internalType": "uint256",
          "name": "",
          "type": "uint256"
        }
      ],
      "stateMutability": "view",
      "type": "function"
    },
    {
      "inputs": [
        {
          "internalType": "uint256",
          "name": "id",
          "type": "uint256"
        },
        {
          "internalType": "uint64",
          "name": "lat",
          "type": "uint64"
        },
        {
          "internalType": "uint64",
          "name": "lng",
          "type": "uint64"
        },
        {
          "internalType": "uint64",
          "name": "orientation",
          "type": "uint64"
        },
        {
          "internalType": "string[]",
          "name": "uri",
          "type": "string[]"
        }
      ],
      "name": "updateTrafficLight",
      "outputs": [],
      "stateMutability": "nonpayable",
      "type": "function"
    },
    {
      "inputs": [
        {
          "internalType": "uint256",
          "name": "id",
          "type": "uint256"
        },
        {
          "internalType": "enum TrafficData.TrafficLightValidationStatus",
          "name": "validationStatus",
          "type": "uint8"
        }
      ],
      "name": "updateValidationStatus",
      "outputs": [],
      "stateMutability": "nonpayable",
      "type": "function"
    },
    {
      "inputs": [],
      "name": "validatorIndex",
      "outputs": [
        {
          "internalType": "uint256",
          "name": "",
          "type": "uint256"
        }
      ],
      "stateMutability": "view",
      "type": "function"
    },
    {
      "inputs": [
        {
          "internalType": "address",
          "name": "",
          "type": "address"
        }
      ],
      "name": "validators",
      "outputs": [
        {
          "internalType": "string",
          "name": "name",
          "type": "string"
        },
        {
          "internalType": "address",
          "name": "owner",
          "type": "address"
        },
        {
          "internalType": "uint256",
          "name": "validatedCount",
          "type": "uint256"
        }
      ],
      "stateMutability": "view",
      "type": "function"
    },
    {
      "inputs": [
        {
          "internalType": "uint256",
          "name": "",
          "type": "uint256"
        }
      ],
      "name": "validatorsAddresses",
      "outputs": [
        {
          "internalType": "address",
          "name": "",
          "type": "address"
        }
      ],
      "stateMutability": "view",
      "type": "function"
    }
  ],
  "bytecode": "0x60806040526000600255600060055534801561001a57600080fd5b5033600160006101000a81548173ffffffffffffffffffffffffffffffffffffffff021916908373ffffffffffffffffffffffffffffffffffffffff160217905550612d8f8061006b6000396000f3fe608060405234801561001057600080fd5b50600436106101005760003560e01c80639f973e7d11610097578063ed71718411610066578063ed71718414610287578063f3513a37146102b7578063f9322741146102d5578063fa52c7d8146102f157610100565b80639f973e7d14610201578063a11425151461021d578063a1bf49aa14610239578063b363c6c21461025757610100565b80636957210e116100d35780636957210e1461018d5780636ddf30c4146101a957806381045ead146101c75780638dc87e4d146101e557610100565b806309824a80146101055780631c4bc0be146101215780632cc2e41e1461013f5780636219d0a91461015d575b600080fd5b61011f600480360381019061011a9190611874565b610323565b005b6101296103f6565b60405161013691906118ba565b60405180910390f35b6101476103fb565b6040516101549190611c07565b60405180910390f35b61017760048036038101906101729190611c55565b61068e565b6040516101849190611d0b565b60405180910390f35b6101a760048036038101906101a29190611d52565b610938565b005b6101b1610ab3565b6040516101be91906118ba565b60405180910390f35b6101cf610ab9565b6040516101dc91906118ba565b60405180910390f35b6101ff60048036038101906101fa9190611df7565b610ac3565b005b61021b6004803603810190610216919061212e565b610b29565b005b610237600480360381019061023291906121b7565b610d5e565b005b610241610e7f565b60405161024e91906118ba565b60405180910390f35b610271600480360381019061026c9190611c55565b610e85565b60405161027e919061225d565b60405180910390f35b6102a1600480360381019061029c9190611874565b610ec4565b6040516102ae91906122e2565b60405180910390f35b6102bf6110e8565b6040516102cc9190612430565b60405180910390f35b6102ef60048036038101906102ea91906124a8565b6113e3565b005b61030b60048036038101906103069190611874565b6115ba565b60405161031a93929190612573565b60405180910390f35b600160009054906101000a900473ffffffffffffffffffffffffffffffffffffffff1673ffffffffffffffffffffffffffffffffffffffff163373ffffffffffffffffffffffffffffffffffffffff16146103b3576040517f08c379a00000000000000000000000000000000000000000000000000000000081526004016103aa906125fd565b60405180910390fd5b806000806101000a81548173ffffffffffffffffffffffffffffffffffffffff021916908373ffffffffffffffffffffffffffffffffffffffff16021790555050565b600681565b60606000600380549050905060008054906101000a900473ffffffffffffffffffffffffffffffffffffffff1673ffffffffffffffffffffffffffffffffffffffff166323b872dd3330846040518463ffffffff1660e01b81526004016104649392919061261d565b6020604051808303816000875af1158015610483573d6000803e3d6000fd5b505050506040513d601f19601f820116820180604052508101906104a7919061268c565b506003805480602002602001604051908101604052809291908181526020016000905b8282101561068457838290600052602060002090600602016040518060c00160405290816000820160009054906101000a900473ffffffffffffffffffffffffffffffffffffffff1673ffffffffffffffffffffffffffffffffffffffff1673ffffffffffffffffffffffffffffffffffffffff16815260200160018201548152602001600282015481526020016003820154815260200160048201805480602002602001604051908101604052809291908181526020016000905b828210156106325783829060005260206000200180546105a5906126e8565b80601f01602080910402602001604051908101604052809291908181526020018280546105d1906126e8565b801561061e5780601f106105f35761010080835404028352916020019161061e565b820191906000526020600020905b81548152906001019060200180831161060157829003601f168201915b505050505081526020019060010190610586565b5050505081526020016005820160009054906101000a900460ff16600381111561065f5761065e611a71565b5b600381111561067157610670611a71565b5b81525050815260200190600101906104ca565b5050505091505090565b61069661168c565b81600254116106da576040517f08c379a00000000000000000000000000000000000000000000000000000000081526004016106d190612765565b60405180910390fd5b60008054906101000a900473ffffffffffffffffffffffffffffffffffffffff1673ffffffffffffffffffffffffffffffffffffffff166323b872dd333060016040518463ffffffff1660e01b8152600401610738939291906127ca565b6020604051808303816000875af1158015610757573d6000803e3d6000fd5b505050506040513d601f19601f8201168201806040525081019061077b919061268c565b50600382815481106107905761078f612801565b5b90600052602060002090600602016040518060c00160405290816000820160009054906101000a900473ffffffffffffffffffffffffffffffffffffffff1673ffffffffffffffffffffffffffffffffffffffff1673ffffffffffffffffffffffffffffffffffffffff16815260200160018201548152602001600282015481526020016003820154815260200160048201805480602002602001604051908101604052809291908181526020016000905b828210156108ee578382906000526020600020018054610861906126e8565b80601f016020809104026020016040519081016040528092919081815260200182805461088d906126e8565b80156108da5780601f106108af576101008083540402835291602001916108da565b820191906000526020600020905b8154815290600101906020018083116108bd57829003601f168201915b505050505081526020019060010190610842565b5050505081526020016005820160009054906101000a900460ff16600381111561091b5761091a611a71565b5b600381111561092d5761092c611a71565b5b815250509050919050565b3373ffffffffffffffffffffffffffffffffffffffff16600460003373ffffffffffffffffffffffffffffffffffffffff1673ffffffffffffffffffffffffffffffffffffffff16815260200190815260200160002060010160009054906101000a900473ffffffffffffffffffffffffffffffffffffffff1673ffffffffffffffffffffffffffffffffffffffff1614610a08576040517f08c379a00000000000000000000000000000000000000000000000000000000081526004016109ff906128a2565b60405180910390fd5b6001600460003373ffffffffffffffffffffffffffffffffffffffff1673ffffffffffffffffffffffffffffffffffffffff1681526020019081526020016000206003016000828254610a5b91906128f1565b925050819055508060038381548110610a7757610a76612801565b5b906000526020600020906006020160050160006101000a81548160ff02191690836003811115610aaa57610aa9611a71565b5b02179055505050565b60025481565b6000600254905090565b60038381548110610ad757610ad6612801565b5b9060005260206000209060060201600401828290918060018154018082558091505060019003906000526020600020016000909192909192909192909192509182610b23929190612ad2565b50505050565b33816000019073ffffffffffffffffffffffffffffffffffffffff16908173ffffffffffffffffffffffffffffffffffffffff168152505060008160a001906003811115610b7a57610b79611a71565b5b90816003811115610b8e57610b8d611a71565b5b81525050600381908060018154018082558091505060019003906000526020600020906006020160009091909190915060008201518160000160006101000a81548173ffffffffffffffffffffffffffffffffffffffff021916908373ffffffffffffffffffffffffffffffffffffffff1602179055506020820151816001015560408201518160020155606082015181600301556080820151816004019080519060200190610c3f9291906116ea565b5060a08201518160050160006101000a81548160ff02191690836003811115610c6b57610c6a611a71565b5b021790555050506002547f4046cd0d5427a1a3a70a3453f8a6114979200006ef5fba493a840ce915c612b360405160405180910390a2600160026000828254610cb491906128f1565b9250508190555060008054906101000a900473ffffffffffffffffffffffffffffffffffffffff1673ffffffffffffffffffffffffffffffffffffffff1663a9059cbb33600a6040518363ffffffff1660e01b8152600401610d17929190612bdd565b6020604051808303816000875af1158015610d36573d6000803e3d6000fd5b505050506040513d601f19601f82011682018060405250810190610d5a919061268c565b5050565b6002548510610da2576040517f08c379a0000000000000000000000000000000000000000000000000000000008152600401610d9990612c52565b60405180910390fd5b8367ffffffffffffffff1660038681548110610dc157610dc0612801565b5b9060005260206000209060060201600101819055508267ffffffffffffffff1660038681548110610df557610df4612801565b5b9060005260206000209060060201600201819055508167ffffffffffffffff1660038681548110610e2957610e28612801565b5b9060005260206000209060060201600301819055508060038681548110610e5357610e52612801565b5b90600052602060002090600602016004019080519060200190610e779291906116ea565b505050505050565b60055481565b60068181548110610e9557600080fd5b906000526020600020016000915054906101000a900473ffffffffffffffffffffffffffffffffffffffff1681565b610ecc611743565b600460008373ffffffffffffffffffffffffffffffffffffffff1673ffffffffffffffffffffffffffffffffffffffff168152602001908152602001600020604051806080016040529081600082018054610f26906126e8565b80601f0160208091040260200160405190810160405280929190818152602001828054610f52906126e8565b8015610f9f5780601f10610f7457610100808354040283529160200191610f9f565b820191906000526020600020905b815481529060010190602001808311610f8257829003601f168201915b505050505081526020016001820160009054906101000a900473ffffffffffffffffffffffffffffffffffffffff1673ffffffffffffffffffffffffffffffffffffffff1673ffffffffffffffffffffffffffffffffffffffff16815260200160028201805480602002602001604051908101604052809291908181526020016000905b828210156110cf578382906000526020600020018054611042906126e8565b80601f016020809104026020016040519081016040528092919081815260200182805461106e906126e8565b80156110bb5780601f10611090576101008083540402835291602001916110bb565b820191906000526020600020905b81548152906001019060200180831161109e57829003601f168201915b505050505081526020019060010190611023565b5050505081526020016003820154815250509050919050565b6060600060055467ffffffffffffffff81111561110857611107611e5c565b5b60405190808252806020026020018201604052801561114157816020015b61112e611743565b8152602001906001900390816111265790505b50905060005b6005548110156113db5760006006828154811061116757611166612801565b5b9060005260206000200160009054906101000a900473ffffffffffffffffffffffffffffffffffffffff1690506000600460008373ffffffffffffffffffffffffffffffffffffffff1673ffffffffffffffffffffffffffffffffffffffff1681526020019081526020016000206040518060800160405290816000820180546111f0906126e8565b80601f016020809104026020016040519081016040528092919081815260200182805461121c906126e8565b80156112695780601f1061123e57610100808354040283529160200191611269565b820191906000526020600020905b81548152906001019060200180831161124c57829003601f168201915b505050505081526020016001820160009054906101000a900473ffffffffffffffffffffffffffffffffffffffff1673ffffffffffffffffffffffffffffffffffffffff1673ffffffffffffffffffffffffffffffffffffffff16815260200160028201805480602002602001604051908101604052809291908181526020016000905b8282101561139957838290600052602060002001805461130c906126e8565b80601f0160208091040260200160405190810160405280929190818152602001828054611338906126e8565b80156113855780601f1061135a57610100808354040283529160200191611385565b820191906000526020600020905b81548152906001019060200180831161136857829003601f168201915b5050505050815260200190600101906112ed565b5050505081526020016003820154815250509050808484815181106113c1576113c0612801565b5b602002602001018190525050508080600101915050611147565b508091505090565b6000604051806080016040528086868080601f016020809104026020016040519081016040528093929190818152602001838380828437600081840152601f19601f8201169050808301925050505050505081526020013373ffffffffffffffffffffffffffffffffffffffff1681526020018484906114639190612c72565b81526020016000815250905080600460003373ffffffffffffffffffffffffffffffffffffffff1673ffffffffffffffffffffffffffffffffffffffff16815260200190815260200160002060008201518160000190816114c49190612c87565b5060208201518160010160006101000a81548173ffffffffffffffffffffffffffffffffffffffff021916908373ffffffffffffffffffffffffffffffffffffffff16021790555060408201518160020190805190602001906115289291906116ea565b50606082015181600301559050506006339080600181540180825580915050600190039060005260206000200160009091909190916101000a81548173ffffffffffffffffffffffffffffffffffffffff021916908373ffffffffffffffffffffffffffffffffffffffff1602179055506001600560008282546115ac91906128f1565b925050819055505050505050565b60046020528060005260406000206000915090508060000180546115dd906126e8565b80601f0160208091040260200160405190810160405280929190818152602001828054611609906126e8565b80156116565780601f1061162b57610100808354040283529160200191611656565b820191906000526020600020905b81548152906001019060200180831161163957829003601f168201915b5050505050908060010160009054906101000a900473ffffffffffffffffffffffffffffffffffffffff16908060030154905083565b6040518060c00160405280600073ffffffffffffffffffffffffffffffffffffffff16815260200160008152602001600081526020016000815260200160608152602001600060038111156116e4576116e3611a71565b5b81525090565b828054828255906000526020600020908101928215611732579160200282015b828111156117315782518290816117219190612c87565b509160200191906001019061170a565b5b50905061173f9190611781565b5090565b604051806080016040528060608152602001600073ffffffffffffffffffffffffffffffffffffffff16815260200160608152602001600081525090565b5b808211156117a1576000818161179891906117a5565b50600101611782565b5090565b5080546117b1906126e8565b6000825580601f106117c357506117e2565b601f0160209004906000526020600020908101906117e191906117e5565b5b50565b5b808211156117fe5760008160009055506001016117e6565b5090565b6000604051905090565b600080fd5b600080fd5b600073ffffffffffffffffffffffffffffffffffffffff82169050919050565b600061184182611816565b9050919050565b61185181611836565b811461185c57600080fd5b50565b60008135905061186e81611848565b92915050565b60006020828403121561188a5761188961180c565b5b60006118988482850161185f565b91505092915050565b6000819050919050565b6118b4816118a1565b82525050565b60006020820190506118cf60008301846118ab565b92915050565b600081519050919050565b600082825260208201905092915050565b6000819050602082019050919050565b61190a81611836565b82525050565b611919816118a1565b82525050565b600081519050919050565b600082825260208201905092915050565b6000819050602082019050919050565b600081519050919050565b600082825260208201905092915050565b60005b8381101561198557808201518184015260208101905061196a565b60008484015250505050565b6000601f19601f8301169050919050565b60006119ad8261194b565b6119b78185611956565b93506119c7818560208601611967565b6119d081611991565b840191505092915050565b60006119e783836119a2565b905092915050565b6000602082019050919050565b6000611a078261191f565b611a11818561192a565b935083602082028501611a238561193b565b8060005b85811015611a5f5784840389528151611a4085826119db565b9450611a4b836119ef565b925060208a01995050600181019050611a27565b50829750879550505050505092915050565b7f4e487b7100000000000000000000000000000000000000000000000000000000600052602160045260246000fd5b60048110611ab157611ab0611a71565b5b50565b6000819050611ac282611aa0565b919050565b6000611ad282611ab4565b9050919050565b611ae281611ac7565b82525050565b600060c083016000830151611b006000860182611901565b506020830151611b136020860182611910565b506040830151611b266040860182611910565b506060830151611b396060860182611910565b5060808301518482036080860152611b5182826119fc565b91505060a0830151611b6660a0860182611ad9565b508091505092915050565b6000611b7d8383611ae8565b905092915050565b6000602082019050919050565b6000611b9d826118d5565b611ba781856118e0565b935083602082028501611bb9856118f1565b8060005b85811015611bf55784840389528151611bd68582611b71565b9450611be183611b85565b925060208a01995050600181019050611bbd565b50829750879550505050505092915050565b60006020820190508181036000830152611c218184611b92565b905092915050565b611c32816118a1565b8114611c3d57600080fd5b50565b600081359050611c4f81611c29565b92915050565b600060208284031215611c6b57611c6a61180c565b5b6000611c7984828501611c40565b91505092915050565b600060c083016000830151611c9a6000860182611901565b506020830151611cad6020860182611910565b506040830151611cc06040860182611910565b506060830151611cd36060860182611910565b5060808301518482036080860152611ceb82826119fc565b91505060a0830151611d0060a0860182611ad9565b508091505092915050565b60006020820190508181036000830152611d258184611c82565b905092915050565b60048110611d3a57600080fd5b50565b600081359050611d4c81611d2d565b92915050565b60008060408385031215611d6957611d6861180c565b5b6000611d7785828601611c40565b9250506020611d8885828601611d3d565b9150509250929050565b600080fd5b600080fd5b600080fd5b60008083601f840112611db757611db6611d92565b5b8235905067ffffffffffffffff811115611dd457611dd3611d97565b5b602083019150836001820283011115611df057611def611d9c565b5b9250929050565b600080600060408486031215611e1057611e0f61180c565b5b6000611e1e86828701611c40565b935050602084013567ffffffffffffffff811115611e3f57611e3e611811565b5b611e4b86828701611da1565b92509250509250925092565b600080fd5b7f4e487b7100000000000000000000000000000000000000000000000000000000600052604160045260246000fd5b611e9482611991565b810181811067ffffffffffffffff82111715611eb357611eb2611e5c565b5b80604052505050565b6000611ec6611802565b9050611ed28282611e8b565b919050565b600080fd5b600067ffffffffffffffff821115611ef757611ef6611e5c565b5b602082029050602081019050919050565b600080fd5b600067ffffffffffffffff821115611f2857611f27611e5c565b5b611f3182611991565b9050602081019050919050565b82818337600083830152505050565b6000611f60611f5b84611f0d565b611ebc565b905082815260208101848484011115611f7c57611f7b611f08565b5b611f87848285611f3e565b509392505050565b600082601f830112611fa457611fa3611d92565b5b8135611fb4848260208601611f4d565b91505092915050565b6000611fd0611fcb84611edc565b611ebc565b90508083825260208201905060208402830185811115611ff357611ff2611d9c565b5b835b8181101561203a57803567ffffffffffffffff81111561201857612017611d92565b5b8086016120258982611f8f565b85526020850194505050602081019050611ff5565b5050509392505050565b600082601f83011261205957612058611d92565b5b8135612069848260208601611fbd565b91505092915050565b600060c0828403121561208857612087611e57565b5b61209260c0611ebc565b905060006120a28482850161185f565b60008301525060206120b684828501611c40565b60208301525060406120ca84828501611c40565b60408301525060606120de84828501611c40565b606083015250608082013567ffffffffffffffff81111561210257612101611ed7565b5b61210e84828501612044565b60808301525060a061212284828501611d3d565b60a08301525092915050565b6000602082840312156121445761214361180c565b5b600082013567ffffffffffffffff81111561216257612161611811565b5b61216e84828501612072565b91505092915050565b600067ffffffffffffffff82169050919050565b61219481612177565b811461219f57600080fd5b50565b6000813590506121b18161218b565b92915050565b600080600080600060a086880312156121d3576121d261180c565b5b60006121e188828901611c40565b95505060206121f2888289016121a2565b9450506040612203888289016121a2565b9350506060612214888289016121a2565b925050608086013567ffffffffffffffff81111561223557612234611811565b5b61224188828901612044565b9150509295509295909350565b61225781611836565b82525050565b6000602082019050612272600083018461224e565b92915050565b6000608083016000830151848203600086015261229582826119a2565b91505060208301516122aa6020860182611901565b50604083015184820360408601526122c282826119fc565b91505060608301516122d76060860182611910565b508091505092915050565b600060208201905081810360008301526122fc8184612278565b905092915050565b600081519050919050565b600082825260208201905092915050565b6000819050602082019050919050565b6000608083016000830151848203600086015261234d82826119a2565b91505060208301516123626020860182611901565b506040830151848203604086015261237a82826119fc565b915050606083015161238f6060860182611910565b508091505092915050565b60006123a68383612330565b905092915050565b6000602082019050919050565b60006123c682612304565b6123d0818561230f565b9350836020820285016123e285612320565b8060005b8581101561241e57848403895281516123ff858261239a565b945061240a836123ae565b925060208a019950506001810190506123e6565b50829750879550505050505092915050565b6000602082019050818103600083015261244a81846123bb565b905092915050565b60008083601f84011261246857612467611d92565b5b8235905067ffffffffffffffff81111561248557612484611d97565b5b6020830191508360208202830111156124a1576124a0611d9c565b5b9250929050565b600080600080604085870312156124c2576124c161180c565b5b600085013567ffffffffffffffff8111156124e0576124df611811565b5b6124ec87828801611da1565b9450945050602085013567ffffffffffffffff81111561250f5761250e611811565b5b61251b87828801612452565b925092505092959194509250565b600082825260208201905092915050565b60006125458261194b565b61254f8185612529565b935061255f818560208601611967565b61256881611991565b840191505092915050565b6000606082019050818103600083015261258d818661253a565b905061259c602083018561224e565b6125a960408301846118ab565b949350505050565b7f6e6f74206f776e65720000000000000000000000000000000000000000000000600082015250565b60006125e7600983612529565b91506125f2826125b1565b602082019050919050565b60006020820190508181036000830152612616816125da565b9050919050565b6000606082019050612632600083018661224e565b61263f602083018561224e565b61264c60408301846118ab565b949350505050565b60008115159050919050565b61266981612654565b811461267457600080fd5b50565b60008151905061268681612660565b92915050565b6000602082840312156126a2576126a161180c565b5b60006126b084828501612677565b91505092915050565b7f4e487b7100000000000000000000000000000000000000000000000000000000600052602260045260246000fd5b6000600282049050600182168061270057607f821691505b602082108103612713576127126126b9565b5b50919050565b7f696e646578206f7574206f662072616e67650000000000000000000000000000600082015250565b600061274f601283612529565b915061275a82612719565b602082019050919050565b6000602082019050818103600083015261277e81612742565b9050919050565b6000819050919050565b6000819050919050565b60006127b46127af6127aa84612785565b61278f565b6118a1565b9050919050565b6127c481612799565b82525050565b60006060820190506127df600083018661224e565b6127ec602083018561224e565b6127f960408301846127bb565b949350505050565b7f4e487b7100000000000000000000000000000000000000000000000000000000600052603260045260246000fd5b7f75736572206973206e6f7420612076616c696461746f722c20706c656173652060008201527f7265676973746572000000000000000000000000000000000000000000000000602082015250565b600061288c602883612529565b915061289782612830565b604082019050919050565b600060208201905081810360008301526128bb8161287f565b9050919050565b7f4e487b7100000000000000000000000000000000000000000000000000000000600052601160045260246000fd5b60006128fc826118a1565b9150612907836118a1565b925082820190508082111561291f5761291e6128c2565b5b92915050565b600082905092915050565b60008190508160005260206000209050919050565b60006020601f8301049050919050565b600082821b905092915050565b6000600883026129927fffffffffffffffffffffffffffffffffffffffffffffffffffffffffffffffff82612955565b61299c8683612955565b95508019841693508086168417925050509392505050565b60006129cf6129ca6129c5846118a1565b61278f565b6118a1565b9050919050565b6000819050919050565b6129e9836129b4565b6129fd6129f5826129d6565b848454612962565b825550505050565b600090565b612a12612a05565b612a1d8184846129e0565b505050565b5b81811015612a4157612a36600082612a0a565b600181019050612a23565b5050565b601f821115612a8657612a5781612930565b612a6084612945565b81016020851015612a6f578190505b612a83612a7b85612945565b830182612a22565b50505b505050565b600082821c905092915050565b6000612aa960001984600802612a8b565b1980831691505092915050565b6000612ac28383612a98565b9150826002028217905092915050565b612adc8383612925565b67ffffffffffffffff811115612af557612af4611e5c565b5b612aff82546126e8565b612b0a828285612a45565b6000601f831160018114612b395760008415612b27578287013590505b612b318582612ab6565b865550612b99565b601f198416612b4786612930565b60005b82811015612b6f57848901358255600182019150602085019450602081019050612b4a565b86831015612b8c5784890135612b88601f891682612a98565b8355505b6001600288020188555050505b50505050505050565b6000819050919050565b6000612bc7612bc2612bbd84612ba2565b61278f565b6118a1565b9050919050565b612bd781612bac565b82525050565b6000604082019050612bf2600083018561224e565b612bff6020830184612bce565b9392505050565b7f696e76616c696420696400000000000000000000000000000000000000000000600082015250565b6000612c3c600a83612529565b9150612c4782612c06565b602082019050919050565b60006020820190508181036000830152612c6b81612c2f565b9050919050565b6000612c7f368484611fbd565b905092915050565b612c908261194b565b67ffffffffffffffff811115612ca957612ca8611e5c565b5b612cb382546126e8565b612cbe828285612a45565b600060209050601f831160018114612cf15760008415612cdf578287015190505b612ce98582612ab6565b865550612d51565b601f198416612cff86612930565b60005b82811015612d2757848901518255600182019150602085019450602081019050612d02565b86831015612d445784890151612d40601f891682612a98565b8355505b6001600288020188555050505b50505050505056fea264697066735822122030afd7b3b9744a68b25e61a832b3b62ba9c567ba43a5997ce08b080800d7d2a964736f6c63430008180033",
  "linkReferences": {},
  "deployedLinkReferences": {}
}