{
  "_format": "hh-sol-artifact-1",
  "contractName": "TrafficERC20",
  "sourceName": "contracts/TrafficERC20.sol",
  "abi": [
    {
      "inputs": [],
      "stateMutability": "nonpayable",
      "type": "constructor"
    },
    {
      "inputs": [
        {
          "internalType": "uint256",
          "name": "increasedSupply",
          "type": "uint256"
        },
        {
          "internalType": "uint256",
          "name": "cap",
          "type": "uint256"
        }
      ],
      "name": "ERC20ExceededCap",
      "type": "error"
    },
    {
      "inputs": [
        {
          "internalType": "address",
          "name": "spender",
          "type": "address"
        },
        {
          "internalType": "uint256",
          "name": "allowance",
          "type": "uint256"
        },
        {
          "internalType": "uint256",
          "name": "needed",
          "type": "uint256"
        }
      ],
      "name": "ERC20InsufficientAllowance",
      "type": "error"
    },
    {
      "inputs": [
        {
          "internalType": "address",
          "name": "sender",
          "type": "address"
        },
        {
          "internalType": "uint256",
          "name": "balance",
          "type": "uint256"
        },
        {
          "internalType": "uint256",
          "name": "needed",
          "type": "uint256"
        }
      ],
      "name": "ERC20InsufficientBalance",
      "type": "error"
    },
    {
      "inputs": [
        {
          "internalType": "address",
          "name": "approver",
          "type": "address"
        }
      ],
      "name": "ERC20InvalidApprover",
      "type": "error"
    },
    {
      "inputs": [
        {
          "internalType": "uint256",
          "name": "cap",
          "type": "uint256"
        }
      ],
      "name": "ERC20InvalidCap",
      "type": "error"
    },
    {
      "inputs": [
        {
          "internalType": "address",
          "name": "receiver",
          "type": "address"
        }
      ],
      "name": "ERC20InvalidReceiver",
      "type": "error"
    },
    {
      "inputs": [
        {
          "internalType": "address",
          "name": "sender",
          "type": "address"
        }
      ],
      "name": "ERC20InvalidSender",
      "type": "error"
    },
    {
      "inputs": [
        {
          "internalType": "address",
          "name": "spender",
          "type": "address"
        }
      ],
      "name": "ERC20InvalidSpender",
      "type": "error"
    },
    {
      "anonymous": false,
      "inputs": [
        {
          "indexed": true,
          "internalType": "address",
          "name": "owner",
          "type": "address"
        },
        {
          "indexed": true,
          "internalType": "address",
          "name": "spender",
          "type": "address"
        },
        {
          "indexed": false,
          "internalType": "uint256",
          "name": "value",
          "type": "uint256"
        }
      ],
      "name": "Approval",
      "type": "event"
    },
    {
      "anonymous": false,
      "inputs": [
        {
          "indexed": true,
          "internalType": "address",
          "name": "from",
          "type": "address"
        },
        {
          "indexed": true,
          "internalType": "address",
          "name": "to",
          "type": "address"
        },
        {
          "indexed": false,
          "internalType": "uint256",
          "name": "value",
          "type": "uint256"
        }
      ],
      "name": "Transfer",
      "type": "event"
    },
    {
      "inputs": [
        {
          "internalType": "address",
          "name": "owner",
          "type": "address"
        },
        {
          "internalType": "address",
          "name": "spender",
          "type": "address"
        }
      ],
      "name": "allowance",
      "outputs": [
        {
          "internalType": "uint256",
          "name": "",
          "type": "uint256"
        }
      ],
      "stateMutability": "view",
      "type": "function"
    },
    {
      "inputs": [
        {
          "internalType": "address",
          "name": "spender",
          "type": "address"
        },
        {
          "internalType": "uint256",
          "name": "value",
          "type": "uint256"
        }
      ],
      "name": "approve",
      "outputs": [
        {
          "internalType": "bool",
          "name": "",
          "type": "bool"
        }
      ],
      "stateMutability": "nonpayable",
      "type": "function"
    },
    {
      "inputs": [
        {
          "internalType": "address",
          "name": "account",
          "type": "address"
        }
      ],
      "name": "balanceOf",
      "outputs": [
        {
          "internalType": "uint256",
          "name": "",
          "type": "uint256"
        }
      ],
      "stateMutability": "view",
      "type": "function"
    },
    {
      "inputs": [],
      "name": "cap",
      "outputs": [
        {
          "internalType": "uint256",
          "name": "",
          "type": "uint256"
        }
      ],
      "stateMutability": "view",
      "type": "function"
    },
    {
      "inputs": [],
      "name": "decimals",
      "outputs": [
        {
          "internalType": "uint8",
          "name": "",
          "type": "uint8"
        }
      ],
      "stateMutability": "view",
      "type": "function"
    },
    {
      "inputs": [
        {
          "internalType": "address",
          "name": "_to",
          "type": "address"
        },
        {
          "internalType": "uint256",
          "name": "_amount",
          "type": "uint256"
        }
      ],
      "name": "mint",
      "outputs": [
        {
          "internalType": "bool",
          "name": "",
          "type": "bool"
        }
      ],
      "stateMutability": "nonpayable",
      "type": "function"
    },
    {
      "inputs": [],
      "name": "name",
      "outputs": [
        {
          "internalType": "string",
          "name": "",
          "type": "string"
        }
      ],
      "stateMutability": "view",
      "type": "function"
    },
    {
      "inputs": [],
      "name": "symbol",
      "outputs": [
        {
          "internalType": "string",
          "name": "",
          "type": "string"
        }
      ],
      "stateMutability": "view",
      "type": "function"
    },
    {
      "inputs": [],
      "name": "totalSupply",
      "outputs": [
        {
          "internalType": "uint256",
          "name": "",
          "type": "uint256"
        }
      ],
      "stateMutability": "view",
      "type": "function"
    },
    {
      "inputs": [
        {
          "internalType": "address",
          "name": "to",
          "type": "address"
        },
        {
          "internalType": "uint256",
          "name": "value",
          "type": "uint256"
        }
      ],
      "name": "transfer",
      "outputs": [
        {
          "internalType": "bool",
          "name": "",
          "type": "bool"
        }
      ],
      "stateMutability": "nonpayable",
      "type": "function"
    },
    {
      "inputs": [
        {
          "internalType": "address",
          "name": "from",
          "type": "address"
        },
        {
          "internalType": "address",
          "name": "to",
          "type": "address"
        },
        {
          "internalType": "uint256",
          "name": "value",
          "type": "uint256"
        }
      ],
      "name": "transferFrom",
      "outputs": [
        {
          "internalType": "bool",
          "name": "",
          "type": "bool"
        }
      ],
      "stateMutability": "nonpayable",
      "type": "function"
    }
  ],
  "bytecode": "0x60a06040523480156200001157600080fd5b50629896806040518060400160405280600781526020017f54726166666963000000000000000000000000000000000000000000000000008152506040518060400160405280600481526020017f5452464300000000000000000000000000000000000000000000000000000000815250816003908162000093919062000396565b508060049081620000a5919062000396565b50505060008103620000f15760006040517f392e1e27000000000000000000000000000000000000000000000000000000008152600401620000e89190620004c0565b60405180910390fd5b8060808181525050506012600560006101000a81548160ff021916908360ff160217905550620004dd565b600081519050919050565b7f4e487b7100000000000000000000000000000000000000000000000000000000600052604160045260246000fd5b7f4e487b7100000000000000000000000000000000000000000000000000000000600052602260045260246000fd5b600060028204905060018216806200019e57607f821691505b602082108103620001b457620001b362000156565b5b50919050565b60008190508160005260206000209050919050565b60006020601f8301049050919050565b600082821b905092915050565b6000600883026200021e7fffffffffffffffffffffffffffffffffffffffffffffffffffffffffffffffff82620001df565b6200022a8683620001df565b95508019841693508086168417925050509392505050565b6000819050919050565b6000819050919050565b600062000277620002716200026b8462000242565b6200024c565b62000242565b9050919050565b6000819050919050565b620002938362000256565b620002ab620002a2826200027e565b848454620001ec565b825550505050565b600090565b620002c2620002b3565b620002cf81848462000288565b505050565b5b81811015620002f757620002eb600082620002b8565b600181019050620002d5565b5050565b601f82111562000346576200031081620001ba565b6200031b84620001cf565b810160208510156200032b578190505b620003436200033a85620001cf565b830182620002d4565b50505b505050565b600082821c905092915050565b60006200036b600019846008026200034b565b1980831691505092915050565b600062000386838362000358565b9150826002028217905092915050565b620003a1826200011c565b67ffffffffffffffff811115620003bd57620003bc62000127565b5b620003c9825462000185565b620003d6828285620002fb565b600060209050601f8311600181146200040e5760008415620003f9578287015190505b62000405858262000378565b86555062000475565b601f1984166200041e86620001ba565b60005b82811015620004485784890151825560018201915060208501945060208101905062000421565b8683101562000468578489015162000464601f89168262000358565b8355505b6001600288020188555050505b505050505050565b6000819050919050565b6000620004a8620004a26200049c846200047d565b6200024c565b62000242565b9050919050565b620004ba8162000487565b82525050565b6000602082019050620004d76000830184620004af565b92915050565b608051611066620004f9600039600061036d01526110666000f3fe608060405234801561001057600080fd5b50600436106100a95760003560e01c8063355274ea11610071578063355274ea1461016857806340c10f191461018657806370a08231146101b657806395d89b41146101e6578063a9059cbb14610204578063dd62ed3e14610234576100a9565b806306fdde03146100ae578063095ea7b3146100cc57806318160ddd146100fc57806323b872dd1461011a578063313ce5671461014a575b600080fd5b6100b6610264565b6040516100c39190610c91565b60405180910390f35b6100e660048036038101906100e19190610d4c565b6102f6565b6040516100f39190610da7565b60405180910390f35b610104610319565b6040516101119190610dd1565b60405180910390f35b610134600480360381019061012f9190610dec565b610323565b6040516101419190610da7565b60405180910390f35b610152610352565b60405161015f9190610e5b565b60405180910390f35b610170610369565b60405161017d9190610dd1565b60405180910390f35b6101a0600480360381019061019b9190610d4c565b610391565b6040516101ad9190610da7565b60405180910390f35b6101d060048036038101906101cb9190610e76565b6103a7565b6040516101dd9190610dd1565b60405180910390f35b6101ee6103ef565b6040516101fb9190610c91565b60405180910390f35b61021e60048036038101906102199190610d4c565b610481565b60405161022b9190610da7565b60405180910390f35b61024e60048036038101906102499190610ea3565b6104a4565b60405161025b9190610dd1565b60405180910390f35b60606003805461027390610f12565b80601f016020809104026020016040519081016040528092919081815260200182805461029f90610f12565b80156102ec5780601f106102c1576101008083540402835291602001916102ec565b820191906000526020600020905b8154815290600101906020018083116102cf57829003601f168201915b5050505050905090565b60008061030161052b565b905061030e818585610533565b600191505092915050565b6000600254905090565b60008061032e61052b565b905061033b858285610545565b6103468585856105d9565b60019150509392505050565b6000600560009054906101000a900460ff16905090565b60007f0000000000000000000000000000000000000000000000000000000000000000905090565b600061039d83836106cd565b6001905092915050565b60008060008373ffffffffffffffffffffffffffffffffffffffff1673ffffffffffffffffffffffffffffffffffffffff168152602001908152602001600020549050919050565b6060600480546103fe90610f12565b80601f016020809104026020016040519081016040528092919081815260200182805461042a90610f12565b80156104775780601f1061044c57610100808354040283529160200191610477565b820191906000526020600020905b81548152906001019060200180831161045a57829003601f168201915b5050505050905090565b60008061048c61052b565b90506104998185856105d9565b600191505092915050565b6000600160008473ffffffffffffffffffffffffffffffffffffffff1673ffffffffffffffffffffffffffffffffffffffff16815260200190815260200160002060008373ffffffffffffffffffffffffffffffffffffffff1673ffffffffffffffffffffffffffffffffffffffff16815260200190815260200160002054905092915050565b600033905090565b610540838383600161074f565b505050565b600061055184846104a4565b90507fffffffffffffffffffffffffffffffffffffffffffffffffffffffffffffffff81146105d357818110156105c3578281836040517ffb8f41b20000000000000000000000000000000000000000000000000000000081526004016105ba93929190610f52565b60405180910390fd5b6105d28484848403600061074f565b5b50505050565b600073ffffffffffffffffffffffffffffffffffffffff168373ffffffffffffffffffffffffffffffffffffffff160361064b5760006040517f96c6fd1e0000000000000000000000000000000000000000000000000000000081526004016106429190610f89565b60405180910390fd5b600073ffffffffffffffffffffffffffffffffffffffff168273ffffffffffffffffffffffffffffffffffffffff16036106bd5760006040517fec442f050000000000000000000000000000000000000000000000000000000081526004016106b49190610f89565b60405180910390fd5b6106c8838383610926565b505050565b600073ffffffffffffffffffffffffffffffffffffffff168273ffffffffffffffffffffffffffffffffffffffff160361073f5760006040517fec442f050000000000000000000000000000000000000000000000000000000081526004016107369190610f89565b60405180910390fd5b61074b60008383610926565b5050565b600073ffffffffffffffffffffffffffffffffffffffff168473ffffffffffffffffffffffffffffffffffffffff16036107c15760006040517fe602df050000000000000000000000000000000000000000000000000000000081526004016107b89190610f89565b60405180910390fd5b600073ffffffffffffffffffffffffffffffffffffffff168373ffffffffffffffffffffffffffffffffffffffff16036108335760006040517f94280d6200000000000000000000000000000000000000000000000000000000815260040161082a9190610f89565b60405180910390fd5b81600160008673ffffffffffffffffffffffffffffffffffffffff1673ffffffffffffffffffffffffffffffffffffffff16815260200190815260200160002060008573ffffffffffffffffffffffffffffffffffffffff1673ffffffffffffffffffffffffffffffffffffffff168152602001908152602001600020819055508015610920578273ffffffffffffffffffffffffffffffffffffffff168473ffffffffffffffffffffffffffffffffffffffff167f8c5be1e5ebec7d5bd14f71427d1e84f3dd0314c0f7b2291e5b200ac8c7c3b925846040516109179190610dd1565b60405180910390a35b50505050565b610931838383610936565b505050565b6109418383836109dc565b600073ffffffffffffffffffffffffffffffffffffffff168373ffffffffffffffffffffffffffffffffffffffff16036109d757600061097f610369565b9050600061098b610319565b9050818111156109d45780826040517f9e79f8540000000000000000000000000000000000000000000000000000000081526004016109cb929190610fa4565b60405180910390fd5b50505b505050565b600073ffffffffffffffffffffffffffffffffffffffff168373ffffffffffffffffffffffffffffffffffffffff1603610a2e578060026000828254610a229190610ffc565b92505081905550610b01565b60008060008573ffffffffffffffffffffffffffffffffffffffff1673ffffffffffffffffffffffffffffffffffffffff16815260200190815260200160002054905081811015610aba578381836040517fe450d38c000000000000000000000000000000000000000000000000000000008152600401610ab193929190610f52565b60405180910390fd5b8181036000808673ffffffffffffffffffffffffffffffffffffffff1673ffffffffffffffffffffffffffffffffffffffff16815260200190815260200160002081905550505b600073ffffffffffffffffffffffffffffffffffffffff168273ffffffffffffffffffffffffffffffffffffffff1603610b4a5780600260008282540392505081905550610b97565b806000808473ffffffffffffffffffffffffffffffffffffffff1673ffffffffffffffffffffffffffffffffffffffff168152602001908152602001600020600082825401925050819055505b8173ffffffffffffffffffffffffffffffffffffffff168373ffffffffffffffffffffffffffffffffffffffff167fddf252ad1be2c89b69c2b068fc378daa952ba7f163c4a11628f55a4df523b3ef83604051610bf49190610dd1565b60405180910390a3505050565b600081519050919050565b600082825260208201905092915050565b60005b83811015610c3b578082015181840152602081019050610c20565b60008484015250505050565b6000601f19601f8301169050919050565b6000610c6382610c01565b610c6d8185610c0c565b9350610c7d818560208601610c1d565b610c8681610c47565b840191505092915050565b60006020820190508181036000830152610cab8184610c58565b905092915050565b600080fd5b600073ffffffffffffffffffffffffffffffffffffffff82169050919050565b6000610ce382610cb8565b9050919050565b610cf381610cd8565b8114610cfe57600080fd5b50565b600081359050610d1081610cea565b92915050565b6000819050919050565b610d2981610d16565b8114610d3457600080fd5b50565b600081359050610d4681610d20565b92915050565b60008060408385031215610d6357610d62610cb3565b5b6000610d7185828601610d01565b9250506020610d8285828601610d37565b9150509250929050565b60008115159050919050565b610da181610d8c565b82525050565b6000602082019050610dbc6000830184610d98565b92915050565b610dcb81610d16565b82525050565b6000602082019050610de66000830184610dc2565b92915050565b600080600060608486031215610e0557610e04610cb3565b5b6000610e1386828701610d01565b9350506020610e2486828701610d01565b9250506040610e3586828701610d37565b9150509250925092565b600060ff82169050919050565b610e5581610e3f565b82525050565b6000602082019050610e706000830184610e4c565b92915050565b600060208284031215610e8c57610e8b610cb3565b5b6000610e9a84828501610d01565b91505092915050565b60008060408385031215610eba57610eb9610cb3565b5b6000610ec885828601610d01565b9250506020610ed985828601610d01565b9150509250929050565b7f4e487b7100000000000000000000000000000000000000000000000000000000600052602260045260246000fd5b60006002820490506001821680610f2a57607f821691505b602082108103610f3d57610f3c610ee3565b5b50919050565b610f4c81610cd8565b82525050565b6000606082019050610f676000830186610f43565b610f746020830185610dc2565b610f816040830184610dc2565b949350505050565b6000602082019050610f9e6000830184610f43565b92915050565b6000604082019050610fb96000830185610dc2565b610fc66020830184610dc2565b9392505050565b7f4e487b7100000000000000000000000000000000000000000000000000000000600052601160045260246000fd5b600061100782610d16565b915061101283610d16565b925082820190508082111561102a57611029610fcd565b5b9291505056fea2646970667358221220b0a935c365edacfe86123eafe98e847b1583e977c7a4589fe07a97e1af9197d964736f6c63430008180033",
  "linkReferences": {},
  "deployedLinkReferences": {}
}